{"abi":[{"type":"constructor","inputs":[{"name":"_usdc","type":"address","internalType":"address"},{"name":"_aUsdc","type":"address","internalType":"address"},{"name":"_pool","type":"address","internalType":"address"},{"name":"_owner","type":"address","internalType":"address"}],"stateMutability":"nonpayable"},{"type":"function","name":"aUsdc","inputs":[],"outputs":[{"name":"","type":"address","internalType":"contract IERC20"}],"stateMutability":"view"},{"type":"function","name":"deposit","inputs":[{"name":"amount","type":"uint256","internalType":"uint256"}],"outputs":[],"stateMutability":"nonpayable"},{"type":"function","name":"owner","inputs":[],"outputs":[{"name":"","type":"address","internalType":"address"}],"stateMutability":"view"},{"type":"function","name":"pool","inputs":[],"outputs":[{"name":"","type":"address","internalType":"contract IAavePool"}],"stateMutability":"view"},{"type":"function","name":"renounceOwnership","inputs":[],"outputs":[],"stateMutability":"nonpayable"},{"type":"function","name":"totalAssets","inputs":[],"outputs":[{"name":"","type":"uint256","internalType":"uint256"}],"stateMutability":"view"},{"type":"function","name":"transferOwnership","inputs":[{"name":"newOwner","type":"address","internalType":"address"}],"outputs":[],"stateMutability":"nonpayable"},{"type":"function","name":"underlying","inputs":[],"outputs":[{"name":"","type":"address","internalType":"address"}],"stateMutability":"view"},{"type":"function","name":"usdc","inputs":[],"outputs":[{"name":"","type":"address","internalType":"contract IERC20"}],"stateMutability":"view"},{"type":"function","name":"withdraw","inputs":[{"name":"amount","type":"uint256","internalType":"uint256"}],"outputs":[{"name":"withdrawn","type":"uint256","internalType":"uint256"}],"stateMutability":"nonpayable"},{"type":"function","name":"withdrawAll","inputs":[],"outputs":[{"name":"withdrawn","type":"uint256","internalType":"uint256"}],"stateMutability":"nonpayable"},{"type":"event","name":"OwnershipTransferred","inputs":[{"name":"previousOwner","type":"address","indexed":true,"internalType":"address"},{"name":"newOwner","type":"address","indexed":true,"internalType":"address"}],"anonymous":false},{"type":"error","name":"OwnableInvalidOwner","inputs":[{"name":"owner","type":"address","internalType":"address"}]},{"type":"error","name":"OwnableUnauthorizedAccount","inputs":[{"name":"account","type":"address","internalType":"address"}]},{"type":"error","name":"SafeERC20FailedOperation","inputs":[{"name":"token","type":"address","internalType":"address"}]}],"bytecode":{"object":"0x60e0604090808252346101ee576080816109dc803803809161002182856101f2565b8339810103126101ee5761003481610229565b602091610042838201610229565b916060610050868401610229565b926001600160a01b039182916100669101610229565b169182156101d7575f80546001600160a01b03198116851782558851948493849390928416907f8be0079c531659141344cd1fd0a4f28419497f9722a3daafe3b4186f6b6457e09080a316948560805216928360a05216908160c05263095ea7b360e01b80825282600483015285826044815f8019998a60248401525af180156101cd5786946044935f926101b0575b50885196879586948552600485015260248401525af180156101a657610178575b8251610786908161025682396080518181816101500152818161034b015281816103f6015261063c015260a05181818161038e0152818161051a01526105f5015260c0518181816101b40152818161043e015281816104c201526106860152f35b8161019792903d1061019f575b61018f81836101f2565b81019061023d565b505f80610117565b503d610185565b83513d5f823e3d90fd5b6101c690873d891161019f5761018f81836101f2565b505f6100f6565b87513d5f823e3d90fd5b8651631e4fbdf760e01b81525f6004820152602490fd5b5f80fd5b601f909101601f19168101906001600160401b0382119082101761021557604052565b634e487b7160e01b5f52604160045260245ffd5b51906001600160a01b03821682036101ee57565b908160209103126101ee575180151581036101ee579056fe6080604081815260049081361015610015575f80fd5b5f925f3560e01c90816301e1d114146104f15750806316f0115b146104ae5780632e1a7d4d146103bd5780633e413bee1461033757806365196e1e1461037a5780636f307dc314610337578063715018a6146102e0578063853828b6146102b55780638da5cb5b1461028e578063b6b55f25146101315763f2fde38b1461009a575f80fd5b3461012d57602036600319011261012d576001600160a01b03823581811693919290849003610129576100cb610725565b83156101135750505f54826bffffffffffffffffffffffff60a01b8216175f55167f8be0079c531659141344cd1fd0a4f28419497f9722a3daafe3b4186f6b6457e05f80a380f35b51631e4fbdf760e01b8152908101849052602490fd5b8480fd5b8280fd5b503461024d57602036600319011261024d5781359161014e610725565b7f000000000000000000000000000000000000000000000000000000000000000082516323b872dd60e01b5f52338352306024528460445260205f60648180865af160015f511481161561026f575b8185525f6060521561025157506001600160a01b037f00000000000000000000000000000000000000000000000000000000000000008116803b1561024d575f92836084928751988995869463617ba03760e01b8652168885015260248401523060448401528160648401525af1801561024357610219578380f35b9091925067ffffffffffffffff8311610230575052005b604190634e487b7160e01b5f525260245ffd5b82513d5f823e3d90fd5b5f80fd5b635274afe760e01b81526001600160a01b0390911681830152602490fd5b600181151661028557823b15153d15161661019d565b503d5f823e3d90fd5b503461024d575f36600319011261024d575f5490516001600160a01b039091168152602090f35b503461024d575f36600319011261024d576020906102d1610725565b6102d96105d0565b9051908152f35b3461024d575f36600319011261024d576102f8610725565b5f80546001600160a01b0319811682556001600160a01b03167f8be0079c531659141344cd1fd0a4f28419497f9722a3daafe3b4186f6b6457e08280a3005b503461024d575f36600319011261024d57517f00000000000000000000000000000000000000000000000000000000000000006001600160a01b03168152602090f35b503461024d575f36600319011261024d57517f00000000000000000000000000000000000000000000000000000000000000006001600160a01b03168152602090f35b50903461024d576020918260031936011261024d578261043a5f936103e0610725565b8351631a4ca37b60e21b81526001600160a01b037f00000000000000000000000000000000000000000000000000000000000000008116838301908152923560208401523360408401529095869391928492839160600190565b03927f0000000000000000000000000000000000000000000000000000000000000000165af19182156104a4575f92610475575b5051908152f35b9091508281813d831161049d575b61048d818361059a565b8101031261024d5751908361046e565b503d610483565b50513d5f823e3d90fd5b503461024d575f36600319011261024d57517f00000000000000000000000000000000000000000000000000000000000000006001600160a01b03168152602090f35b82843461024d575f36600319011261024d576370a0823160e01b835230908301526020826024817f00000000000000000000000000000000000000000000000000000000000000006001600160a01b03165afa908115610591575f9161055c575b6020925051908152f35b90506020823d602011610589575b816105776020938361059a565b8101031261024d576020915190610552565b3d915061056a565b513d5f823e3d90fd5b90601f8019910116810190811067ffffffffffffffff8211176105bc57604052565b634e487b7160e01b5f52604160045260245ffd5b6040516370a0823160e01b81523060048201526020906001600160a01b0382826024817f000000000000000000000000000000000000000000000000000000000000000085165afa9182156106e4575f926106f6575b5081156106ef57604051631a4ca37b60e21b81527f000000000000000000000000000000000000000000000000000000000000000082166001600160a01b0316600482015260248101929092523360448301528290829060649082905f907f0000000000000000000000000000000000000000000000000000000000000000165af19182156106e4575f926106ba57505090565b90809250813d83116106dd575b6106d1818361059a565b8101031261024d575190565b503d6106c7565b6040513d5f823e3d90fd5b5050505f90565b9091508281813d831161071e575b61070e818361059a565b8101031261024d5751905f610626565b503d610704565b5f546001600160a01b0316330361073857565b60405163118cdaa760e01b8152336004820152602490fdfea264697066735822122040a873d729213b50d260a65f8c21d50279cc15f4ffc56d4a89642aa94bba37ae64736f6c63430008180033","linkReferences":{}},"methodIdentifiers":{"aUsdc()":"65196e1e","deposit(uint256)":"b6b55f25","owner()":"8da5cb5b","pool()":"16f0115b","renounceOwnership()":"715018a6","totalAssets()":"01e1d114","transferOwnership(address)":"f2fde38b","underlying()":"6f307dc3","usdc()":"3e413bee","withdraw(uint256)":"2e1a7d4d","withdrawAll()":"853828b6"},"id":49}