{"abi":[{"type":"constructor","inputs":[{"name":"_usdc","type":"address","internalType":"address"},{"name":"_admin","type":"address","internalType":"address"}],"stateMutability":"nonpayable"},{"type":"function","name":"DEFAULT_ADMIN_ROLE","inputs":[],"outputs":[{"name":"","type":"bytes32","internalType":"bytes32"}],"stateMutability":"view"},{"type":"function","name":"DOMAIN_SEPARATOR","inputs":[],"outputs":[{"name":"","type":"bytes32","internalType":"bytes32"}],"stateMutability":"view"},{"type":"function","name":"EMERGENCY_WITHDRAW_DELAY","inputs":[],"outputs":[{"name":"","type":"uint256","internalType":"uint256"}],"stateMutability":"view"},{"type":"function","name":"FAST_WITHDRAW_TYPEHASH","inputs":[],"outputs":[{"name":"","type":"bytes32","internalType":"bytes32"}],"stateMutability":"view"},{"type":"function","name":"SEQUENCER_ROLE","inputs":[],"outputs":[{"name":"","type":"bytes32","internalType":"bytes32"}],"stateMutability":"view"},{"type":"function","name":"SETTLEMENT_ROLE","inputs":[],"outputs":[{"name":"","type":"bytes32","internalType":"bytes32"}],"stateMutability":"view"},{"type":"function","name":"SLOW_WITHDRAW_DELAY","inputs":[],"outputs":[{"name":"","type":"uint256","internalType":"uint256"}],"stateMutability":"view"},{"type":"function","name":"balances","inputs":[{"name":"","type":"address","internalType":"address"}],"outputs":[{"name":"","type":"uint256","internalType":"uint256"}],"stateMutability":"view"},{"type":"function","name":"cancelEmergencyWithdraw","inputs":[],"outputs":[],"stateMutability":"nonpayable"},{"type":"function","name":"deposit","inputs":[{"name":"amount","type":"uint256","internalType":"uint256"}],"outputs":[],"stateMutability":"nonpayable"},{"type":"function","name":"eip712Domain","inputs":[],"outputs":[{"name":"fields","type":"bytes1","internalType":"bytes1"},{"name":"name","type":"string","internalType":"string"},{"name":"version","type":"string","internalType":"string"},{"name":"chainId","type":"uint256","internalType":"uint256"},{"name":"verifyingContract","type":"address","internalType":"address"},{"name":"salt","type":"bytes32","internalType":"bytes32"},{"name":"extensions","type":"uint256[]","internalType":"uint256[]"}],"stateMutability":"view"},{"type":"function","name":"executeEmergencyWithdraw","inputs":[],"outputs":[],"stateMutability":"nonpayable"},{"type":"function","name":"executeSlowWithdraw","inputs":[],"outputs":[],"stateMutability":"nonpayable"},{"type":"function","name":"fastWithdraw","inputs":[{"name":"amount","type":"uint256","internalType":"uint256"},{"name":"deadline","type":"uint256","internalType":"uint256"},{"name":"sequencerSig","type":"bytes","internalType":"bytes"}],"outputs":[],"stateMutability":"nonpayable"},{"type":"function","name":"fastWithdrawNonce","inputs":[{"name":"","type":"address","internalType":"address"}],"outputs":[{"name":"","type":"uint256","internalType":"uint256"}],"stateMutability":"view"},{"type":"function","name":"getAvailableBalance","inputs":[{"name":"user","type":"address","internalType":"address"}],"outputs":[{"name":"","type":"uint256","internalType":"uint256"}],"stateMutability":"view"},{"type":"function","name":"getAvailableLiquidity","inputs":[],"outputs":[{"name":"","type":"uint256","internalType":"uint256"}],"stateMutability":"view"},{"type":"function","name":"getEmergencyStatus","inputs":[{"name":"user","type":"address","internalType":"address"}],"outputs":[{"name":"active","type":"bool","internalType":"bool"},{"name":"readyTime","type":"uint256","internalType":"uint256"},{"name":"timeRemaining","type":"uint256","internalType":"uint256"}],"stateMutability":"view"},{"type":"function","name":"getRoleAdmin","inputs":[{"name":"role","type":"bytes32","internalType":"bytes32"}],"outputs":[{"name":"","type":"bytes32","internalType":"bytes32"}],"stateMutability":"view"},{"type":"function","name":"getSlowWithdrawStatus","inputs":[{"name":"user","type":"address","internalType":"address"}],"outputs":[{"name":"amount","type":"uint256","internalType":"uint256"},{"name":"readyTime","type":"uint256","internalType":"uint256"},{"name":"canExecute","type":"bool","internalType":"bool"}],"stateMutability":"view"},{"type":"function","name":"getTotalAssets","inputs":[],"outputs":[{"name":"","type":"uint256","internalType":"uint256"}],"stateMutability":"view"},{"type":"function","name":"grantRole","inputs":[{"name":"role","type":"bytes32","internalType":"bytes32"},{"name":"account","type":"address","internalType":"address"}],"outputs":[],"stateMutability":"nonpayable"},{"type":"function","name":"hasRole","inputs":[{"name":"role","type":"bytes32","internalType":"bytes32"},{"name":"account","type":"address","internalType":"address"}],"outputs":[{"name":"","type":"bool","internalType":"bool"}],"stateMutability":"view"},{"type":"function","name":"lockedBalance","inputs":[{"name":"","type":"address","internalType":"address"}],"outputs":[{"name":"","type":"uint256","internalType":"uint256"}],"stateMutability":"view"},{"type":"function","name":"lpDeposit","inputs":[{"name":"amount","type":"uint256","internalType":"uint256"}],"outputs":[],"stateMutability":"nonpayable"},{"type":"function","name":"lpPool","inputs":[],"outputs":[{"name":"","type":"uint256","internalType":"uint256"}],"stateMutability":"view"},{"type":"function","name":"lpShares","inputs":[{"name":"","type":"address","internalType":"address"}],"outputs":[{"name":"","type":"uint256","internalType":"uint256"}],"stateMutability":"view"},{"type":"function","name":"lpWithdraw","inputs":[{"name":"shares","type":"uint256","internalType":"uint256"}],"outputs":[],"stateMutability":"nonpayable"},{"type":"function","name":"pause","inputs":[],"outputs":[],"stateMutability":"nonpayable"},{"type":"function","name":"paused","inputs":[],"outputs":[{"name":"","type":"bool","internalType":"bool"}],"stateMutability":"view"},{"type":"function","name":"renounceRole","inputs":[{"name":"role","type":"bytes32","internalType":"bytes32"},{"name":"callerConfirmation","type":"address","internalType":"address"}],"outputs":[],"stateMutability":"nonpayable"},{"type":"function","name":"requestEmergencyWithdraw","inputs":[],"outputs":[],"stateMutability":"nonpayable"},{"type":"function","name":"requestSlowWithdraw","inputs":[{"name":"amount","type":"uint256","internalType":"uint256"}],"outputs":[],"stateMutability":"nonpayable"},{"type":"function","name":"revokeRole","inputs":[{"name":"role","type":"bytes32","internalType":"bytes32"},{"name":"account","type":"address","internalType":"address"}],"outputs":[],"stateMutability":"nonpayable"},{"type":"function","name":"settleBalances","inputs":[{"name":"users","type":"address[]","internalType":"address[]"},{"name":"deltas","type":"int256[]","internalType":"int256[]"},{"name":"lockedDeltas","type":"uint256[]","internalType":"uint256[]"}],"outputs":[],"stateMutability":"nonpayable"},{"type":"function","name":"supportsInterface","inputs":[{"name":"interfaceId","type":"bytes4","internalType":"bytes4"}],"outputs":[{"name":"","type":"bool","internalType":"bool"}],"stateMutability":"view"},{"type":"function","name":"totalLPShares","inputs":[],"outputs":[{"name":"","type":"uint256","internalType":"uint256"}],"stateMutability":"view"},{"type":"function","name":"totalLockedBalance","inputs":[],"outputs":[{"name":"","type":"uint256","internalType":"uint256"}],"stateMutability":"view"},{"type":"function","name":"totalUserDeposits","inputs":[],"outputs":[{"name":"","type":"uint256","internalType":"uint256"}],"stateMutability":"view"},{"type":"function","name":"unpause","inputs":[],"outputs":[],"stateMutability":"nonpayable"},{"type":"function","name":"updateLockedBalance","inputs":[{"name":"user","type":"address","internalType":"address"},{"name":"amount","type":"uint256","internalType":"uint256"}],"outputs":[],"stateMutability":"nonpayable"},{"type":"function","name":"usdc","inputs":[],"outputs":[{"name":"","type":"address","internalType":"contract IERC20"}],"stateMutability":"view"},{"type":"event","name":"BalancesSettled","inputs":[{"name":"userCount","type":"uint256","indexed":false,"internalType":"uint256"},{"name":"netDelta","type":"int256","indexed":false,"internalType":"int256"}],"anonymous":false},{"type":"event","name":"Deposited","inputs":[{"name":"user","type":"address","indexed":true,"internalType":"address"},{"name":"amount","type":"uint256","indexed":false,"internalType":"uint256"},{"name":"newBalance","type":"uint256","indexed":false,"internalType":"uint256"}],"anonymous":false},{"type":"event","name":"EIP712DomainChanged","inputs":[],"anonymous":false},{"type":"event","name":"EmergencyWithdrawCancelled","inputs":[{"name":"user","type":"address","indexed":true,"internalType":"address"}],"anonymous":false},{"type":"event","name":"EmergencyWithdrawRequested","inputs":[{"name":"user","type":"address","indexed":true,"internalType":"address"},{"name":"readyTime","type":"uint256","indexed":false,"internalType":"uint256"}],"anonymous":false},{"type":"event","name":"EmergencyWithdrawn","inputs":[{"name":"user","type":"address","indexed":true,"internalType":"address"},{"name":"amount","type":"uint256","indexed":false,"internalType":"uint256"}],"anonymous":false},{"type":"event","name":"FastWithdrawn","inputs":[{"name":"user","type":"address","indexed":true,"internalType":"address"},{"name":"amount","type":"uint256","indexed":false,"internalType":"uint256"},{"name":"nonce","type":"uint256","indexed":false,"internalType":"uint256"}],"anonymous":false},{"type":"event","name":"LPDeposited","inputs":[{"name":"provider","type":"address","indexed":true,"internalType":"address"},{"name":"amount","type":"uint256","indexed":false,"internalType":"uint256"},{"name":"shares","type":"uint256","indexed":false,"internalType":"uint256"}],"anonymous":false},{"type":"event","name":"LPWithdrawn","inputs":[{"name":"provider","type":"address","indexed":true,"internalType":"address"},{"name":"amount","type":"uint256","indexed":false,"internalType":"uint256"},{"name":"shares","type":"uint256","indexed":false,"internalType":"uint256"}],"anonymous":false},{"type":"event","name":"Paused","inputs":[{"name":"account","type":"address","indexed":false,"internalType":"address"}],"anonymous":false},{"type":"event","name":"RoleAdminChanged","inputs":[{"name":"role","type":"bytes32","indexed":true,"internalType":"bytes32"},{"name":"previousAdminRole","type":"bytes32","indexed":true,"internalType":"bytes32"},{"name":"newAdminRole","type":"bytes32","indexed":true,"internalType":"bytes32"}],"anonymous":false},{"type":"event","name":"RoleGranted","inputs":[{"name":"role","type":"bytes32","indexed":true,"internalType":"bytes32"},{"name":"account","type":"address","indexed":true,"internalType":"address"},{"name":"sender","type":"address","indexed":true,"internalType":"address"}],"anonymous":false},{"type":"event","name":"RoleRevoked","inputs":[{"name":"role","type":"bytes32","indexed":true,"internalType":"bytes32"},{"name":"account","type":"address","indexed":true,"internalType":"address"},{"name":"sender","type":"address","indexed":true,"internalType":"address"}],"anonymous":false},{"type":"event","name":"SlowWithdrawRequested","inputs":[{"name":"user","type":"address","indexed":true,"internalType":"address"},{"name":"amount","type":"uint256","indexed":false,"internalType":"uint256"},{"name":"readyTime","type":"uint256","indexed":false,"internalType":"uint256"}],"anonymous":false},{"type":"event","name":"SlowWithdrawn","inputs":[{"name":"user","type":"address","indexed":true,"internalType":"address"},{"name":"amount","type":"uint256","indexed":false,"internalType":"uint256"}],"anonymous":false},{"type":"event","name":"Unpaused","inputs":[{"name":"account","type":"address","indexed":false,"internalType":"address"}],"anonymous":false},{"type":"error","name":"AccessControlBadConfirmation","inputs":[]},{"type":"error","name":"AccessControlUnauthorizedAccount","inputs":[{"name":"account","type":"address","internalType":"address"},{"name":"neededRole","type":"bytes32","internalType":"bytes32"}]},{"type":"error","name":"ECDSAInvalidSignature","inputs":[]},{"type":"error","name":"ECDSAInvalidSignatureLength","inputs":[{"name":"length","type":"uint256","internalType":"uint256"}]},{"type":"error","name":"ECDSAInvalidSignatureS","inputs":[{"name":"s","type":"bytes32","internalType":"bytes32"}]},{"type":"error","name":"EnforcedPause","inputs":[]},{"type":"error","name":"ExpectedPause","inputs":[]},{"type":"error","name":"InsufficientAvailable","inputs":[{"name":"available","type":"uint256","internalType":"uint256"},{"name":"requested","type":"uint256","internalType":"uint256"}]},{"type":"error","name":"InsufficientLP","inputs":[{"name":"lpPool","type":"uint256","internalType":"uint256"},{"name":"required","type":"uint256","internalType":"uint256"}]},{"type":"error","name":"InvalidSequencerSig","inputs":[{"name":"recovered","type":"address","internalType":"address"}]},{"type":"error","name":"InvalidShares","inputs":[]},{"type":"error","name":"InvalidShortString","inputs":[]},{"type":"error","name":"LengthMismatch","inputs":[]},{"type":"error","name":"NoActiveRequest","inputs":[]},{"type":"error","name":"NoBalance","inputs":[]},{"type":"error","name":"PendingSlowWithdraw","inputs":[]},{"type":"error","name":"ReentrancyGuardReentrantCall","inputs":[]},{"type":"error","name":"SafeERC20FailedOperation","inputs":[{"name":"token","type":"address","internalType":"address"}]},{"type":"error","name":"SignatureExpired","inputs":[{"name":"deadline","type":"uint256","internalType":"uint256"},{"name":"currentTime","type":"uint256","internalType":"uint256"}]},{"type":"error","name":"StringTooLong","inputs":[{"name":"str","type":"string","internalType":"string"}]},{"type":"error","name":"TooEarly","inputs":[{"name":"readyTime","type":"uint256","internalType":"uint256"},{"name":"currentTime","type":"uint256","internalType":"uint256"}]},{"type":"error","name":"ZeroAmount","inputs":[]}],"bytecode":{"object":"0x610180346200026e576001600160401b03906200288390601f38839003908101601f1916820190848211838310176200025a57808391604095869485528339810103126200026e5762000060602062000058836200028e565b92016200028e565b918051906200006f8262000272565b600c825260208201936b12d3585c9ad95d15985d5b1d60a21b8552815195620000988762000272565b6001875260208701603160f81b815260017f9b779b17422d0df92223018b32b4d1fa46e071723d6817e2486d003becc55f0055620000d68562000325565b96610120978852620000e889620004f4565b95610140968752519020978860e052519020610100978189524660a05284519160208301917f8b73c3c69bb8fe3d512ecc4cf759cc79239f7b179b0ffacaa9a75d522b39400f83528684015260608301524660808301523060a083015260a0825260c0820192828410908411176200025a57828552815190206080523060c0526001600160a01b039586169586151590816200024d575b50156200021a5750506200019990610160948552620002a3565b5051926121c494856200069f863960805185611c6d015260a05185611d28015260c05185611c37015260e05185611cbc01525184611ce201525183610dd801525182610e0201525181818161058a015281816107f90152818161090801528181610a1f01528181610d120152818161121d0152818161155d01526117a90152f35b62461bcd60e51b8252602060c4820152600c60e48201526b5a65726f206164647265737360a01b61010490910152606490fd5b9050831615155f6200017f565b634e487b7160e01b5f52604160045260245ffd5b5f80fd5b604081019081106001600160401b038211176200025a57604052565b51906001600160a01b03821682036200026e57565b6001600160a01b03165f8181525f8051602062002863833981519152602052604090205460ff1662000320575f8181525f805160206200286383398151915260205260408120805460ff191660011790553391907f2f8788117e7eff1d82e926ec794901d17c78024a50270940304540a733656f0d8180a4600190565b505f90565b805160209081811015620003bf5750601f8251116200036057808251920151908083106200035257501790565b825f19910360031b1b161790565b90604051809263305a27a960e01b82528060048301528251908160248401525f935b828510620003a5575050604492505f838284010152601f80199101168101030190fd5b848101820151868601604401529381019385935062000382565b906001600160401b0382116200025a57600254926001938481811c91168015620004e9575b83821014620004d557601f81116200049e575b5081601f84116001146200043657509282939183925f946200042a575b50501b915f199060031b1c19161760025560ff90565b015192505f8062000414565b919083601f19811660025f52845f20945f905b888383106200048357505050106200046a575b505050811b0160025560ff90565b01515f1960f88460031b161c191690555f80806200045c565b85870151885590960195948501948793509081019062000449565b60025f5284601f845f20920160051c820191601f860160051c015b828110620004c9575050620003f7565b5f8155018590620004b9565b634e487b7160e01b5f52602260045260245ffd5b90607f1690620003e4565b8051602091908281101562000582575090601f8251116200052357808251920151908083106200035257501790565b90604051809263305a27a960e01b82528060048301528251908160248401525f935b82851062000568575050604492505f838284010152601f80199101168101030190fd5b848101820151868601604401529381019385935062000545565b6001600160401b0381116200025a576003928354926001938481811c9116801562000693575b83821014620004d557601f81116200065d575b5081601f8411600114620005f857509282939183925f94620005ec575b50501b915f1990841b1c191617905560ff90565b015192505f80620005d8565b919083601f198116875f52845f20945f905b888383106200064257505050106200062a575b505050811b01905560ff90565b01515f1983861b60f8161c191690555f80806200061d565b8587015188559096019594850194879350908101906200060a565b855f5284601f845f20920160051c820191601f860160051c015b82811062000687575050620005bb565b5f815501859062000677565b90607f1690620005a856fe6080604081815260049182361015610015575f80fd5b5f3560e01c90816301ffc9a71461180f5750806309a5d5bf1461170657806316df931a146116825780632346129b14611648578063248a9ca31461161f57806327e235e3146115ea5780632a8821cc146114955780632d98ac5e146114775780632f2ff15d1461144f57806331a74382146112ca5780633644e515146112ae57806336568abe1461126a5780633737bcb41461124c5780633e413bee146112095780633f4ba83a146111a25780634842855c146111685780635c975abb14611145578063683131c9146110d35780636c24a76f146110945780636e07302b1461106a57806373513034146110115780637843bc7814610ff357806381c311b514610f52578063823e32dc14610f375780638456cb5914610edf57806384b0196e14610dc1578063896260ff14610b1957806391d1485414610ad65780639ae697bf14610a9f5780639b745aec146109f2578063a217fddf146109d8578063a47b81d8146109bb578063b41b582c146108b2578063b65ab9521461087b578063b6b55f25146107a3578063ba9cf01d14610769578063c109a6dc14610732578063c28f7c3b14610653578063c718fa28146104da578063d547741f1461049f578063d789760e146104815763e193baf1146101ed575f80fd5b346104605760603660031901126104605767ffffffffffffffff82358181116104605761021d90369085016118cb565b93906024906024358481116104605761023990369085016118cb565b90946044359081116104605761025290369086016118cb565b919061025c611b00565b6102646119fd565b818914801590610477575b6104645795939291905f965f955b8a871061034e578a8a8a8a5f82131561030657600954908282106102eb5750906102c9817f869a5a1e0f42c8b8c4b47ba63013d41f62e7df95db4fed575851496d88a189969593611941565b6009555b82519182526020820152a160015f8051602061216f83398151915255005b925163344a6cf960e11b815292830152602482015260449150fd5b5091825f7f869a5a1e0f42c8b8c4b47ba63013d41f62e7df95db4fed575851496d88a189969412156102cd5761034661033e826119ed565b60095461194e565b6009556102cd565b90919293949597610360898c886119c9565b356001600160a01b03811691908290036104605761037f8a86856119c9565b359161038c8b88876119c9565b3561041c575b5f8313156103e8575f52886020528a5f206103ae83825461194e565b90555b5f82820192831291129080158216911516176103d6579760010195949392919061027d565b86601189634e487b7160e01b5f52525ffd5b5f83126103f6575b506103b1565b6103ff836119ed565b905f52896020526104148c5f20918254611941565b90555f6103f0565b6104278b88876119c9565b35815f52600560205261043e8d5f20918254611941565b905561044b8b88876119c9565b35610459600d918254611941565b9055610392565b5f80fd5b87516001621398b960e31b031981528690fd5b508289141561026f565b5034610460575f36600319011261046057602090600b549051908152f35b50346104605780600319360112610460576104d891356104d360016104c2611877565b93835f525f6020525f200154611b79565b611d4e565b005b509034610460575f366003190112610460576104f46119fd565b335f526007602052815f209081549081158015610645575b61063757600183015460788101809111610624578042106106085750335f5280602052610545845f20546005602052855f205490611941565b8281106105ed575060028301600160ff19825416179055335f52602052610570835f20918254611941565b905561057f8154600c54611941565b600c556105ae8154337f0000000000000000000000000000000000000000000000000000000000000000611a2c565b5490519081527fa7eb721bb005207aa47121ca07e02302abe41ffb50a0b8333e9a820c543e792160203392a260015f8051602061216f83398151915255005b91604492855192631fffa68760e31b84528301526024820152fd5b845163e58369d160e01b81529182015242602482015260449150fd5b601182634e487b7160e01b5f525260245ffd5b8351633c22193360e01b8152fd5b5060ff60028401541661050c565b5034610460575f36600319011261046057335f5281602052805f20541561072557805181810181811067ffffffffffffffff82111761071257906106c4918352428152600160208201818152335f526008602052845f209251835551151591019060ff801983541691151516179055565b62093a804201918242116106ff5750519081527f60c41b507240bd5335e85fb7ffc69dcef02f56ccfb1861d2334c43198039042960203392a2005b601190634e487b7160e01b5f525260245ffd5b604184634e487b7160e01b5f525260245ffd5b51636165515360e11b8152fd5b5034610460576020366003190112610460576020906001600160a01b03610757611861565b165f52600a8252805f20549051908152f35b5034610460575f36600319011261046057602090517f300f9ae985dc711960f7a4d1dd013f9c19ecf40bff149522ab7523b2187a38468152f35b5034610460576020366003190112610460578135916107c06119fd565b6107c8611c16565b821561086d57907f73a19dd210f1a7f902193214c0ee91dd35ee5b4d920cba8d519eca65a7b488ca9161081d8430337f0000000000000000000000000000000000000000000000000000000000000000611dc0565b335f5280602052815f2061083285825461194e565b905561084084600c5461194e565b600c55335f52602052805f2054815193845260208401523392a260015f8051602061216f83398151915255005b9051631f2a200560e01b8152fd5b5034610460576020366003190112610460576020906001600160a01b036108a0611861565b165f5260068252805f20549051908152f35b5034610460576020366003190112610460578135916108cf6119fd565b6108d7611c16565b821561086d57507f68110eff112678c2b41e26b6f6fb09e80adcf42e4c096268137d5633787b07159061092c8330337f0000000000000000000000000000000000000000000000000000000000000000611dc0565b600b54801580156109b1575b156109965750825b335f52600a602052815f2061095682825461194e565b905561096481600b5461194e565b600b556109738460095461194e565b600955815193845260208401523392a260015f8051602061216f83398151915255005b6109a36109ac91856118fc565b60095490611923565b610940565b5060095415610938565b5034610460575f366003190112610460576020905162093a808152f35b5034610460575f36600319011261046057602090515f8152f35b5034610460575f3660031901126104605780516370a0823160e01b815230928101929092526020826024817f00000000000000000000000000000000000000000000000000000000000000006001600160a01b03165afa908115610a96575f91610a61575b6020925051908152f35b90506020823d602011610a8e575b81610a7c602093836119a7565b81010312610460576020915190610a57565b3d9150610a6f565b513d5f823e3d90fd5b5034610460576020366003190112610460576020906001600160a01b03610ac4611861565b165f5260058252805f20549051908152f35b5034610460578060031936011261046057602091610af2611877565b90355f525f8352815f209060018060a01b03165f52825260ff815f20541690519015158152f35b5034610460576060366003190112610460578135906024928335906044359067ffffffffffffffff9182811161046057366023820112156104605780820135928311610460573687848301011161046057610b726119fd565b610b7a611c16565b8515610db257834211610d9657335f52602092828452610ba5865f205460058652875f205490611941565b878110610d7b5750335f5260068452855f20948554955f198714610d6957915f8660428a8c610c7a9896610c719860018e019055825191858301937fda40a6482159d61a0641c1dc92488212a1a0fc874947c528e5cf14b6f487fd328552339084015260608301528c608083015260a082015260a08152610c258161195b565b519020610c30611c34565b908c519161190160f01b8352600283015260228201522092808d8c5196610c6085601f19601f86011601896119a7565b828852018387013784010152612024565b9092919261205e565b7fac4f1890dc96c9a02330d1fa696648a38f3b282d2449c2d8e6f10507488c84c85f9081528084528581206001600160a01b039092168082529184528590205460ff1615610d5457507f04d9bd125a1c65c0e9f8e496aa112356bf7a4283981776421745deda9194c7c1949550335f528152825f20610cfa868254611941565b9055610d0885600c54611941565b600c55610d3685337f0000000000000000000000000000000000000000000000000000000000000000611a2c565b82519485528401523392a260015f8051602061216f83398151915255005b8451636fdaa90b60e11b815291820152859150fd5b89601186634e487b7160e01b5f52525ffd5b83888a6044938a5193631fffa68760e31b8552840152820152fd5b8451630f88f04960e41b81528083018590524281890152604490fd5b508351631f2a200560e01b8152fd5b509034610460575f36600319011261046057610dfc7f0000000000000000000000000000000000000000000000000000000000000000611e2a565b91610e267f0000000000000000000000000000000000000000000000000000000000000000611f51565b815191602091602084019484861067ffffffffffffffff871117610ecc5750610e818260209287610e7499989795525f85528151988998600f60f81b8a5260e0868b015260e08a019061188d565b918883039089015261188d565b914660608701523060808701525f60a087015285830360c087015251918281520192915f5b828110610eb557505050500390f35b835185528695509381019392810192600101610ea6565b604190634e487b7160e01b5f525260245ffd5b5034610460575f3660031901126104605760207f62e78cea01bee320cd4e420270b5ea74000d11b0c9f74754ebdbfc544b05a25891610f1c611aaa565b610f24611c16565b600160ff198154161760015551338152a1005b5034610460575f366003190112610460576020905160788152f35b503461046057602036600319011261046057610f6c611861565b6001600160a01b03165f9081526008602052818120600181015460ff169290829084610fa9575b5060609450815193151584526020840152820152f35b5462093a808101935083109050610fe0576060935081428111610fd057505f5b915f610f93565b610fdb904290611941565b610fc9565b601184634e487b7160e01b5f525260245ffd5b5034610460575f36600319011261046057602090600c549051908152f35b50346104605780600319360112610460576110659061102e611861565b906024359161103b611b00565b6001600160a01b03165f908152600560205220805461105b90839061194e565b9055600d5461194e565b600d55005b5034610460575f3660031901126104605760209061108d600c546009549061194e565b9051908152f35b5034610460576020366003190112610460576020916001600160a01b036110b9611861565b165f52825261108d815f205460058452825f205490611941565b5034610460575f36600319011261046057335f52600860205260ff6001825f200154161561113857600190335f5260086020525f200160ff198154169055337f44cb2a36024a22011b0211a2cb0cc34529170bacdcdb6c2f673f4a482af74ad25f80a2005b51633c22193360e01b8152fd5b5034610460575f3660031901126104605760209060ff6001541690519015158152f35b5034610460575f36600319011261046057602090517fac4f1890dc96c9a02330d1fa696648a38f3b282d2449c2d8e6f10507488c84c88152f35b5034610460575f366003190112610460576111bb611aaa565b6001549160ff8316156111fb577f5db9ee0a495bf2e6ff9c91a7834c1ba4fdd244a5e8aa4e537bd38aeae4b073aa6020838560ff191660015551338152a1005b9051638dfc202b60e01b8152fd5b5034610460575f36600319011261046057517f00000000000000000000000000000000000000000000000000000000000000006001600160a01b03168152602090f35b5034610460575f366003190112610460576020906009549051908152f35b5034610460578060031936011261046057611283611877565b90336001600160a01b0383160361129f57506104d89135611d4e565b5163334bd91960e11b81529050fd5b5034610460575f3660031901126104605760209061108d611c34565b50346104605760209081600319360112610460578235916112e96119fd565b6112f1611c16565b821561143f57335f52838152611312825f205460058352835f205490611941565b8381106114235750335f5260078152815f20805415159081611413575b506114035781516060810181811067ffffffffffffffff8211176113f057906113909184528481526002838201428152858301905f8252335f5260078652865f209351845551600184015551151591019060ff801983541691151516179055565b60784201908142116113dd5782519384528301523392507f0b4c02ab9faddfa538d3f083bf6ce824d8c921a45bfd28b8ffafcb0f1a8e1c2391a260015f8051602061216f83398151915255005b601185634e487b7160e01b5f525260245ffd5b604186634e487b7160e01b5f525260245ffd5b8151633b83c1e760e01b81528490fd5b60ff91506002015416155f61132f565b8484604492855192631fffa68760e31b84528301526024820152fd5b8151631f2a200560e01b81528490fd5b50346104605780600319360112610460576104d8913561147260016104c2611877565b611b9a565b5034610460575f36600319011261046057602090600d549051908152f35b5034610460575f366003190112610460576114ae6119fd565b335f52602060088152815f2091600183019260ff845416156115da575462093a8081018091116113dd578042106115be5750335f52838252805f20549283156115ae577f2e39961a70a10f4d46383948095ac2752b3ee642a7c76aa827410aaff08c2e519394335f5260058452825f20549084525f83812055600584525f8381205561153c86600c54611941565b600c55600d54908082101561159b575b5050805460ff1916905561158184337f0000000000000000000000000000000000000000000000000000000000000000611a2c565b519283523392a260015f8051602061216f83398151915255005b6115a491611941565b600d555f8061154c565b8151636165515360e11b81528590fd5b8490604492519163e58369d160e01b8352820152426024820152fd5b8151633c22193360e01b81528590fd5b5034610460576020366003190112610460576020916001600160a01b0361160f611861565b165f528252805f20549051908152f35b503461046057602036600319011261046057602091355f525f82526001815f2001549051908152f35b5034610460575f36600319011261046057602090517fda40a6482159d61a0641c1dc92488212a1a0fc874947c528e5cf14b6f487fd328152f35b5034610460576020366003190112610460576001600160a01b036116a4611861565b165f526007602052805f20908154916001810154607881018091116113dd576060945083151591826116f6575b50816116ea575b82519384526020840152151590820152f35b809150421015906116d8565b6002015460ff161591505f6116d1565b5034610460576020366003190112610460578135916117236119fd565b821580156117fb575b6117ed57507f86ef7829731d23705c76edb615e2feb99fd3832d911fd10bfca814e3729255239061176b611762600954856118fc565b600b5490611923565b92335f52600a602052815f20611782828254611941565b905561179081600b54611941565b600b5561179f84600954611941565b6009556117cd84337f0000000000000000000000000000000000000000000000000000000000000000611a2c565b815193845260208401523392a260015f8051602061216f83398151915255005b9051636edcc52360e01b8152fd5b50335f52600a60205282825f20541061172c565b833461046057602036600319011261046057359063ffffffff60e01b821680920361046057602091637965db0b60e01b8114908115611850575b5015158152f35b6301ffc9a760e01b14905083611849565b600435906001600160a01b038216820361046057565b602435906001600160a01b038216820361046057565b91908251928382525f5b8481106118b7575050825f602080949584010152601f8019910116010190565b602081830181015184830182015201611897565b9181601f840112156104605782359167ffffffffffffffff8311610460576020808501948460051b01011161046057565b8181029291811591840414171561190f57565b634e487b7160e01b5f52601160045260245ffd5b811561192d570490565b634e487b7160e01b5f52601260045260245ffd5b9190820391821161190f57565b9190820180921161190f57565b60c0810190811067ffffffffffffffff82111761197757604052565b634e487b7160e01b5f52604160045260245ffd5b6040810190811067ffffffffffffffff82111761197757604052565b90601f8019910116810190811067ffffffffffffffff82111761197757604052565b91908110156119d95760051b0190565b634e487b7160e01b5f52603260045260245ffd5b600160ff1b811461190f575f0390565b5f8051602061216f8339815191526002815414611a1a5760029055565b604051633ee5aeb560e01b8152600490fd5b60405163a9059cbb60e01b5f9081526001600160a01b039384166004526024949094529260209060448180855af160015f5114811615611a8b575b8360405215611a7557505050565b635274afe760e01b835216600482015260249150fd5b6001811516611aa157813b15153d151616611a67565b833d5f823e3d90fd5b335f9081527fad3228b676f7d3cd4284a5443f17f1962b36e491b30a40b2405849e597ba5fb5602052604090205460ff1615611ae257565b60405163e2517d3f60e01b81523360048201525f6024820152604490fd5b335f9081527fdd53df7e4642f4e3d9dededdac02355f2e876e2a9b7ef4e260af8d6fd7b3325760205260409020547f300f9ae985dc711960f7a4d1dd013f9c19ecf40bff149522ab7523b2187a38469060ff1615611b5b5750565b6044906040519063e2517d3f60e01b82523360048301526024820152fd5b805f525f60205260405f20335f5260205260ff60405f20541615611b5b5750565b90815f525f60205260405f209060018060a01b031690815f5260205260ff60405f205416155f14611c1057815f525f60205260405f20815f5260205260405f20600160ff1982541617905533917f2f8788117e7eff1d82e926ec794901d17c78024a50270940304540a733656f0d5f80a4600190565b50505f90565b60ff60015416611c2257565b60405163d93c066560e01b8152600490fd5b307f00000000000000000000000000000000000000000000000000000000000000006001600160a01b03161480611d25575b15611c8f577f000000000000000000000000000000000000000000000000000000000000000090565b60405160208101907f8b73c3c69bb8fe3d512ecc4cf759cc79239f7b179b0ffacaa9a75d522b39400f82527f000000000000000000000000000000000000000000000000000000000000000060408201527f000000000000000000000000000000000000000000000000000000000000000060608201524660808201523060a082015260a08152611d1f8161195b565b51902090565b507f00000000000000000000000000000000000000000000000000000000000000004614611c66565b90815f525f60205260405f209060018060a01b031690815f5260205260ff60405f2054165f14611c1057815f525f60205260405f20815f5260205260405f2060ff19815416905533917ff6391f5c32d9c69d2a47ea670b442974b53935d1edc7fd64eb21e047a839171b5f80a4600190565b6040516323b872dd60e01b5f9081526001600160a01b03938416600452938316602452604494909452909160209060648180855af160015f5114811615611e14575b836040525f60605215611a7557505050565b6001811516611aa157813b15153d151616611e02565b60ff8114611e685760ff811690601f8211611e565760405191611e4c8361198b565b8252602082015290565b604051632cd44ac360e21b8152600490fd5b506040515f600254906001908260011c60018416928315611f47575b6020948583108514611f33578287528694908115611f135750600114611eb6575b5050611eb3925003826119a7565b90565b9093915060025f527f405787fa12a823e0f2b7631cc41b3ba8828b3321ca811111fa75cd3aa3bb5ace935f915b818310611efb575050611eb393508201015f80611ea5565b85548784018501529485019486945091830191611ee3565b915050611eb394925060ff191682840152151560051b8201015f80611ea5565b634e487b7160e01b5f52602260045260245ffd5b90607f1690611e84565b60ff8114611f735760ff811690601f8211611e565760405191611e4c8361198b565b506040515f600354906001908260011c6001841692831561201a575b6020948583108514611f33578287528694908115611f135750600114611fbd575050611eb3925003826119a7565b9093915060035f527fc2575a0e9e593c00f959f8c92f12db2869c3395a3b0502d05e2516446f71f85b935f915b818310612002575050611eb393508201015f80611ea5565b85548784018501529485019486945091830191611fea565b90607f1690611f8f565b81519190604183036120545761204d9250602082015190606060408401519301515f1a906120e1565b9192909190565b50505f9160029190565b60048110156120cd5780612070575050565b6001810361208a5760405163f645eedf60e01b8152600490fd5b600281036120ab5760405163fce698f760e01b815260048101839052602490fd5b6003146120b55750565b602490604051906335e2f38360e21b82526004820152fd5b634e487b7160e01b5f52602160045260245ffd5b91907f7fffffffffffffffffffffffffffffff5d576e7357a4501ddfe92f46681b20a08411612163579160209360809260ff5f9560405194855216868401526040830152606082015282805260015afa15612158575f516001600160a01b0381161561214e57905f905f90565b505f906001905f90565b6040513d5f823e3d90fd5b5050505f916003919056fe9b779b17422d0df92223018b32b4d1fa46e071723d6817e2486d003becc55f00a2646970667358221220b1aa30826badc9fb725f36c1098cee4f609c010c1980a7ebb8a6b4c07208288364736f6c63430008180033ad3228b676f7d3cd4284a5443f17f1962b36e491b30a40b2405849e597ba5fb5","linkReferences":{}},"methodIdentifiers":{"DEFAULT_ADMIN_ROLE()":"a217fddf","DOMAIN_SEPARATOR()":"3644e515","EMERGENCY_WITHDRAW_DELAY()":"a47b81d8","FAST_WITHDRAW_TYPEHASH()":"2346129b","SEQUENCER_ROLE()":"4842855c","SETTLEMENT_ROLE()":"ba9cf01d","SLOW_WITHDRAW_DELAY()":"823e32dc","balances(address)":"27e235e3","cancelEmergencyWithdraw()":"683131c9","deposit(uint256)":"b6b55f25","eip712Domain()":"84b0196e","executeEmergencyWithdraw()":"2a8821cc","executeSlowWithdraw()":"c718fa28","fastWithdraw(uint256,uint256,bytes)":"896260ff","fastWithdrawNonce(address)":"b65ab952","getAvailableBalance(address)":"6c24a76f","getAvailableLiquidity()":"9b745aec","getEmergencyStatus(address)":"81c311b5","getRoleAdmin(bytes32)":"248a9ca3","getSlowWithdrawStatus(address)":"16df931a","getTotalAssets()":"6e07302b","grantRole(bytes32,address)":"2f2ff15d","hasRole(bytes32,address)":"91d14854","lockedBalance(address)":"9ae697bf","lpDeposit(uint256)":"b41b582c","lpPool()":"3737bcb4","lpShares(address)":"c109a6dc","lpWithdraw(uint256)":"09a5d5bf","pause()":"8456cb59","paused()":"5c975abb","renounceRole(bytes32,address)":"36568abe","requestEmergencyWithdraw()":"c28f7c3b","requestSlowWithdraw(uint256)":"31a74382","revokeRole(bytes32,address)":"d547741f","settleBalances(address[],int256[],uint256[])":"e193baf1","supportsInterface(bytes4)":"01ffc9a7","totalLPShares()":"d789760e","totalLockedBalance()":"2d98ac5e","totalUserDeposits()":"7843bc78","unpause()":"3f4ba83a","updateLockedBalance(address,uint256)":"73513034","usdc()":"3e413bee"},"id":34}