{"abi":[{"type":"constructor","inputs":[{"name":"_usdc","type":"address","internalType":"address"},{"name":"_admin","type":"address","internalType":"address"}],"stateMutability":"nonpayable"},{"type":"function","name":"BRIDGE_ROLE","inputs":[],"outputs":[{"name":"","type":"bytes32","internalType":"bytes32"}],"stateMutability":"view"},{"type":"function","name":"DEFAULT_ADMIN_ROLE","inputs":[],"outputs":[{"name":"","type":"bytes32","internalType":"bytes32"}],"stateMutability":"view"},{"type":"function","name":"DOMAIN_SEPARATOR","inputs":[],"outputs":[{"name":"","type":"bytes32","internalType":"bytes32"}],"stateMutability":"view"},{"type":"function","name":"EMERGENCY_WITHDRAW_DELAY","inputs":[],"outputs":[{"name":"","type":"uint256","internalType":"uint256"}],"stateMutability":"view"},{"type":"function","name":"FAST_WITHDRAW_TYPEHASH","inputs":[],"outputs":[{"name":"","type":"bytes32","internalType":"bytes32"}],"stateMutability":"view"},{"type":"function","name":"REBALANCER_ROLE","inputs":[],"outputs":[{"name":"","type":"bytes32","internalType":"bytes32"}],"stateMutability":"view"},{"type":"function","name":"SEQUENCER_ROLE","inputs":[],"outputs":[{"name":"","type":"bytes32","internalType":"bytes32"}],"stateMutability":"view"},{"type":"function","name":"SETTLEMENT_ROLE","inputs":[],"outputs":[{"name":"","type":"bytes32","internalType":"bytes32"}],"stateMutability":"view"},{"type":"function","name":"SLOW_WITHDRAW_DELAY","inputs":[],"outputs":[{"name":"","type":"uint256","internalType":"uint256"}],"stateMutability":"view"},{"type":"function","name":"balances","inputs":[{"name":"","type":"address","internalType":"address"}],"outputs":[{"name":"","type":"uint256","internalType":"uint256"}],"stateMutability":"view"},{"type":"function","name":"cancelEmergencyWithdraw","inputs":[],"outputs":[],"stateMutability":"nonpayable"},{"type":"function","name":"creditCrossChainDeposit","inputs":[{"name":"depositId","type":"bytes32","internalType":"bytes32"},{"name":"user","type":"address","internalType":"address"},{"name":"amount","type":"uint256","internalType":"uint256"}],"outputs":[],"stateMutability":"nonpayable"},{"type":"function","name":"deposit","inputs":[{"name":"amount","type":"uint256","internalType":"uint256"}],"outputs":[],"stateMutability":"nonpayable"},{"type":"function","name":"eip712Domain","inputs":[],"outputs":[{"name":"fields","type":"bytes1","internalType":"bytes1"},{"name":"name","type":"string","internalType":"string"},{"name":"version","type":"string","internalType":"string"},{"name":"chainId","type":"uint256","internalType":"uint256"},{"name":"verifyingContract","type":"address","internalType":"address"},{"name":"salt","type":"bytes32","internalType":"bytes32"},{"name":"extensions","type":"uint256[]","internalType":"uint256[]"}],"stateMutability":"view"},{"type":"function","name":"executeEmergencyWithdraw","inputs":[],"outputs":[],"stateMutability":"nonpayable"},{"type":"function","name":"executeSlowWithdraw","inputs":[],"outputs":[],"stateMutability":"nonpayable"},{"type":"function","name":"fastWithdraw","inputs":[{"name":"amount","type":"uint256","internalType":"uint256"},{"name":"deadline","type":"uint256","internalType":"uint256"},{"name":"sequencerSig","type":"bytes","internalType":"bytes"}],"outputs":[],"stateMutability":"nonpayable"},{"type":"function","name":"fastWithdrawNonce","inputs":[{"name":"","type":"address","internalType":"address"}],"outputs":[{"name":"","type":"uint256","internalType":"uint256"}],"stateMutability":"view"},{"type":"function","name":"getAvailableBalance","inputs":[{"name":"user","type":"address","internalType":"address"}],"outputs":[{"name":"","type":"uint256","internalType":"uint256"}],"stateMutability":"view"},{"type":"function","name":"getAvailableLiquidity","inputs":[],"outputs":[{"name":"","type":"uint256","internalType":"uint256"}],"stateMutability":"view"},{"type":"function","name":"getEmergencyStatus","inputs":[{"name":"user","type":"address","internalType":"address"}],"outputs":[{"name":"active","type":"bool","internalType":"bool"},{"name":"readyTime","type":"uint256","internalType":"uint256"},{"name":"timeRemaining","type":"uint256","internalType":"uint256"}],"stateMutability":"view"},{"type":"function","name":"getRoleAdmin","inputs":[{"name":"role","type":"bytes32","internalType":"bytes32"}],"outputs":[{"name":"","type":"bytes32","internalType":"bytes32"}],"stateMutability":"view"},{"type":"function","name":"getSlowWithdrawStatus","inputs":[{"name":"user","type":"address","internalType":"address"}],"outputs":[{"name":"amount","type":"uint256","internalType":"uint256"},{"name":"readyTime","type":"uint256","internalType":"uint256"},{"name":"canExecute","type":"bool","internalType":"bool"}],"stateMutability":"view"},{"type":"function","name":"getTotalAssets","inputs":[],"outputs":[{"name":"","type":"uint256","internalType":"uint256"}],"stateMutability":"view"},{"type":"function","name":"grantRole","inputs":[{"name":"role","type":"bytes32","internalType":"bytes32"},{"name":"account","type":"address","internalType":"address"}],"outputs":[],"stateMutability":"nonpayable"},{"type":"function","name":"hasRole","inputs":[{"name":"role","type":"bytes32","internalType":"bytes32"},{"name":"account","type":"address","internalType":"address"}],"outputs":[{"name":"","type":"bool","internalType":"bool"}],"stateMutability":"view"},{"type":"function","name":"lockedBalance","inputs":[{"name":"","type":"address","internalType":"address"}],"outputs":[{"name":"","type":"uint256","internalType":"uint256"}],"stateMutability":"view"},{"type":"function","name":"lpDeposit","inputs":[{"name":"amount","type":"uint256","internalType":"uint256"}],"outputs":[],"stateMutability":"nonpayable"},{"type":"function","name":"lpPool","inputs":[],"outputs":[{"name":"","type":"uint256","internalType":"uint256"}],"stateMutability":"view"},{"type":"function","name":"lpShares","inputs":[{"name":"","type":"address","internalType":"address"}],"outputs":[{"name":"","type":"uint256","internalType":"uint256"}],"stateMutability":"view"},{"type":"function","name":"lpWithdraw","inputs":[{"name":"shares","type":"uint256","internalType":"uint256"}],"outputs":[],"stateMutability":"nonpayable"},{"type":"function","name":"pause","inputs":[],"outputs":[],"stateMutability":"nonpayable"},{"type":"function","name":"paused","inputs":[],"outputs":[{"name":"","type":"bool","internalType":"bool"}],"stateMutability":"view"},{"type":"function","name":"processedDeposits","inputs":[{"name":"","type":"bytes32","internalType":"bytes32"}],"outputs":[{"name":"","type":"bool","internalType":"bool"}],"stateMutability":"view"},{"type":"function","name":"rebalanceIn","inputs":[{"name":"adapter","type":"address","internalType":"address"},{"name":"amount","type":"uint256","internalType":"uint256"}],"outputs":[],"stateMutability":"nonpayable"},{"type":"function","name":"rebalanceOut","inputs":[{"name":"adapter","type":"address","internalType":"address"},{"name":"amount","type":"uint256","internalType":"uint256"}],"outputs":[],"stateMutability":"nonpayable"},{"type":"function","name":"renounceRole","inputs":[{"name":"role","type":"bytes32","internalType":"bytes32"},{"name":"callerConfirmation","type":"address","internalType":"address"}],"outputs":[],"stateMutability":"nonpayable"},{"type":"function","name":"requestEmergencyWithdraw","inputs":[],"outputs":[],"stateMutability":"nonpayable"},{"type":"function","name":"requestSlowWithdraw","inputs":[{"name":"amount","type":"uint256","internalType":"uint256"}],"outputs":[],"stateMutability":"nonpayable"},{"type":"function","name":"revokeRole","inputs":[{"name":"role","type":"bytes32","internalType":"bytes32"},{"name":"account","type":"address","internalType":"address"}],"outputs":[],"stateMutability":"nonpayable"},{"type":"function","name":"settleBalances","inputs":[{"name":"users","type":"address[]","internalType":"address[]"},{"name":"deltas","type":"int256[]","internalType":"int256[]"},{"name":"lockedDeltas","type":"uint256[]","internalType":"uint256[]"}],"outputs":[],"stateMutability":"nonpayable"},{"type":"function","name":"supportsInterface","inputs":[{"name":"interfaceId","type":"bytes4","internalType":"bytes4"}],"outputs":[{"name":"","type":"bool","internalType":"bool"}],"stateMutability":"view"},{"type":"function","name":"totalLPShares","inputs":[],"outputs":[{"name":"","type":"uint256","internalType":"uint256"}],"stateMutability":"view"},{"type":"function","name":"totalLockedBalance","inputs":[],"outputs":[{"name":"","type":"uint256","internalType":"uint256"}],"stateMutability":"view"},{"type":"function","name":"totalUserDeposits","inputs":[],"outputs":[{"name":"","type":"uint256","internalType":"uint256"}],"stateMutability":"view"},{"type":"function","name":"unpause","inputs":[],"outputs":[],"stateMutability":"nonpayable"},{"type":"function","name":"updateLockedBalance","inputs":[{"name":"user","type":"address","internalType":"address"},{"name":"amount","type":"uint256","internalType":"uint256"}],"outputs":[],"stateMutability":"nonpayable"},{"type":"function","name":"usdc","inputs":[],"outputs":[{"name":"","type":"address","internalType":"contract IERC20"}],"stateMutability":"view"},{"type":"event","name":"BalancesSettled","inputs":[{"name":"userCount","type":"uint256","indexed":false,"internalType":"uint256"},{"name":"netDelta","type":"int256","indexed":false,"internalType":"int256"}],"anonymous":false},{"type":"event","name":"CrossChainDeposited","inputs":[{"name":"depositId","type":"bytes32","indexed":true,"internalType":"bytes32"},{"name":"user","type":"address","indexed":true,"internalType":"address"},{"name":"amount","type":"uint256","indexed":false,"internalType":"uint256"}],"anonymous":false},{"type":"event","name":"Deposited","inputs":[{"name":"user","type":"address","indexed":true,"internalType":"address"},{"name":"amount","type":"uint256","indexed":false,"internalType":"uint256"},{"name":"newBalance","type":"uint256","indexed":false,"internalType":"uint256"}],"anonymous":false},{"type":"event","name":"EIP712DomainChanged","inputs":[],"anonymous":false},{"type":"event","name":"EmergencyWithdrawCancelled","inputs":[{"name":"user","type":"address","indexed":true,"internalType":"address"}],"anonymous":false},{"type":"event","name":"EmergencyWithdrawRequested","inputs":[{"name":"user","type":"address","indexed":true,"internalType":"address"},{"name":"readyTime","type":"uint256","indexed":false,"internalType":"uint256"}],"anonymous":false},{"type":"event","name":"EmergencyWithdrawn","inputs":[{"name":"user","type":"address","indexed":true,"internalType":"address"},{"name":"amount","type":"uint256","indexed":false,"internalType":"uint256"}],"anonymous":false},{"type":"event","name":"FastWithdrawn","inputs":[{"name":"user","type":"address","indexed":true,"internalType":"address"},{"name":"amount","type":"uint256","indexed":false,"internalType":"uint256"},{"name":"nonce","type":"uint256","indexed":false,"internalType":"uint256"}],"anonymous":false},{"type":"event","name":"LPDeposited","inputs":[{"name":"provider","type":"address","indexed":true,"internalType":"address"},{"name":"amount","type":"uint256","indexed":false,"internalType":"uint256"},{"name":"shares","type":"uint256","indexed":false,"internalType":"uint256"}],"anonymous":false},{"type":"event","name":"LPWithdrawn","inputs":[{"name":"provider","type":"address","indexed":true,"internalType":"address"},{"name":"amount","type":"uint256","indexed":false,"internalType":"uint256"},{"name":"shares","type":"uint256","indexed":false,"internalType":"uint256"}],"anonymous":false},{"type":"event","name":"LiquidityStateUpdated","inputs":[{"name":"lpPool","type":"uint256","indexed":false,"internalType":"uint256"},{"name":"totalUserDeposits","type":"uint256","indexed":false,"internalType":"uint256"},{"name":"totalLockedBalance","type":"uint256","indexed":false,"internalType":"uint256"},{"name":"timestamp","type":"uint256","indexed":false,"internalType":"uint256"}],"anonymous":false},{"type":"event","name":"Paused","inputs":[{"name":"account","type":"address","indexed":false,"internalType":"address"}],"anonymous":false},{"type":"event","name":"RebalancedIn","inputs":[{"name":"adapter","type":"address","indexed":true,"internalType":"address"},{"name":"amount","type":"uint256","indexed":false,"internalType":"uint256"}],"anonymous":false},{"type":"event","name":"RebalancedOut","inputs":[{"name":"adapter","type":"address","indexed":true,"internalType":"address"},{"name":"amount","type":"uint256","indexed":false,"internalType":"uint256"}],"anonymous":false},{"type":"event","name":"RoleAdminChanged","inputs":[{"name":"role","type":"bytes32","indexed":true,"internalType":"bytes32"},{"name":"previousAdminRole","type":"bytes32","indexed":true,"internalType":"bytes32"},{"name":"newAdminRole","type":"bytes32","indexed":true,"internalType":"bytes32"}],"anonymous":false},{"type":"event","name":"RoleGranted","inputs":[{"name":"role","type":"bytes32","indexed":true,"internalType":"bytes32"},{"name":"account","type":"address","indexed":true,"internalType":"address"},{"name":"sender","type":"address","indexed":true,"internalType":"address"}],"anonymous":false},{"type":"event","name":"RoleRevoked","inputs":[{"name":"role","type":"bytes32","indexed":true,"internalType":"bytes32"},{"name":"account","type":"address","indexed":true,"internalType":"address"},{"name":"sender","type":"address","indexed":true,"internalType":"address"}],"anonymous":false},{"type":"event","name":"SlowWithdrawRequested","inputs":[{"name":"user","type":"address","indexed":true,"internalType":"address"},{"name":"amount","type":"uint256","indexed":false,"internalType":"uint256"},{"name":"readyTime","type":"uint256","indexed":false,"internalType":"uint256"}],"anonymous":false},{"type":"event","name":"SlowWithdrawn","inputs":[{"name":"user","type":"address","indexed":true,"internalType":"address"},{"name":"amount","type":"uint256","indexed":false,"internalType":"uint256"}],"anonymous":false},{"type":"event","name":"Unpaused","inputs":[{"name":"account","type":"address","indexed":false,"internalType":"address"}],"anonymous":false},{"type":"error","name":"AccessControlBadConfirmation","inputs":[]},{"type":"error","name":"AccessControlUnauthorizedAccount","inputs":[{"name":"account","type":"address","internalType":"address"},{"name":"neededRole","type":"bytes32","internalType":"bytes32"}]},{"type":"error","name":"DepositAlreadyProcessed","inputs":[{"name":"depositId","type":"bytes32","internalType":"bytes32"}]},{"type":"error","name":"ECDSAInvalidSignature","inputs":[]},{"type":"error","name":"ECDSAInvalidSignatureLength","inputs":[{"name":"length","type":"uint256","internalType":"uint256"}]},{"type":"error","name":"ECDSAInvalidSignatureS","inputs":[{"name":"s","type":"bytes32","internalType":"bytes32"}]},{"type":"error","name":"EnforcedPause","inputs":[]},{"type":"error","name":"ExpectedPause","inputs":[]},{"type":"error","name":"InsufficientAvailable","inputs":[{"name":"available","type":"uint256","internalType":"uint256"},{"name":"requested","type":"uint256","internalType":"uint256"}]},{"type":"error","name":"InsufficientLP","inputs":[{"name":"lpPool","type":"uint256","internalType":"uint256"},{"name":"required","type":"uint256","internalType":"uint256"}]},{"type":"error","name":"InvalidAdapter","inputs":[]},{"type":"error","name":"InvalidSequencerSig","inputs":[{"name":"recovered","type":"address","internalType":"address"}]},{"type":"error","name":"InvalidShares","inputs":[]},{"type":"error","name":"InvalidShortString","inputs":[]},{"type":"error","name":"LengthMismatch","inputs":[]},{"type":"error","name":"NoActiveRequest","inputs":[]},{"type":"error","name":"NoBalance","inputs":[]},{"type":"error","name":"PendingSlowWithdraw","inputs":[]},{"type":"error","name":"ReentrancyGuardReentrantCall","inputs":[]},{"type":"error","name":"SafeERC20FailedOperation","inputs":[{"name":"token","type":"address","internalType":"address"}]},{"type":"error","name":"SignatureExpired","inputs":[{"name":"deadline","type":"uint256","internalType":"uint256"},{"name":"currentTime","type":"uint256","internalType":"uint256"}]},{"type":"error","name":"StringTooLong","inputs":[{"name":"str","type":"string","internalType":"string"}]},{"type":"error","name":"TooEarly","inputs":[{"name":"readyTime","type":"uint256","internalType":"uint256"},{"name":"currentTime","type":"uint256","internalType":"uint256"}]},{"type":"error","name":"ZeroAmount","inputs":[]}],"bytecode":{"object":"0x610180346200027c576001600160401b039062002c9f90601f38839003908101601f1916820190848211838310176200026857808391604095869485528339810103126200027c5762000060602062000058836200029c565b92016200029c565b918051906200006f8262000280565b600c825260208201936b12d3585c9ad95d15985d5b1d60a21b8552815195620000988762000280565b6001875260208701603160f81b815260017f9b779b17422d0df92223018b32b4d1fa46e071723d6817e2486d003becc55f0055620000d68562000333565b96610120978852620000e88962000502565b95610140968752519020978860e052519020610100978189524660a05284519160208301917f8b73c3c69bb8fe3d512ecc4cf759cc79239f7b179b0ffacaa9a75d522b39400f83528684015260608301524660808301523060a083015260a0825260c0820192828410908411176200026857828552815190206080523060c0526001600160a01b039586169586151590816200025b575b5015620002285750506200019990610160948552620002b1565b5051926125d29485620006ad86396080518561207b015260a05185612136015260c05185612045015260e051856120ca015251846120f001525183610f1201525182610f3c0152518181816105d4015281816108430152818161098c01528181610a9801528181610bc301528181610e4c0152818161134e015281816114530152818161179301526119df0152f35b62461bcd60e51b8252602060c4820152600c60e48201526b5a65726f206164647265737360a01b61010490910152606490fd5b9050831615155f6200017f565b634e487b7160e01b5f52604160045260245ffd5b5f80fd5b604081019081106001600160401b038211176200026857604052565b51906001600160a01b03821682036200027c57565b6001600160a01b03165f8181525f8051602062002c7f833981519152602052604090205460ff166200032e575f8181525f8051602062002c7f83398151915260205260408120805460ff191660011790553391907f2f8788117e7eff1d82e926ec794901d17c78024a50270940304540a733656f0d8180a4600190565b505f90565b805160209081811015620003cd5750601f8251116200036e57808251920151908083106200036057501790565b825f19910360031b1b161790565b90604051809263305a27a960e01b82528060048301528251908160248401525f935b828510620003b3575050604492505f838284010152601f80199101168101030190fd5b848101820151868601604401529381019385935062000390565b906001600160401b0382116200026857600254926001938481811c91168015620004f7575b83821014620004e357601f8111620004ac575b5081601f84116001146200044457509282939183925f9462000438575b50501b915f199060031b1c19161760025560ff90565b015192505f8062000422565b919083601f19811660025f52845f20945f905b8883831062000491575050501062000478575b505050811b0160025560ff90565b01515f1960f88460031b161c191690555f80806200046a565b85870151885590960195948501948793509081019062000457565b60025f5284601f845f20920160051c820191601f860160051c015b828110620004d757505062000405565b5f8155018590620004c7565b634e487b7160e01b5f52602260045260245ffd5b90607f1690620003f2565b8051602091908281101562000590575090601f8251116200053157808251920151908083106200036057501790565b90604051809263305a27a960e01b82528060048301528251908160248401525f935b82851062000576575050604492505f838284010152601f80199101168101030190fd5b848101820151868601604401529381019385935062000553565b6001600160401b03811162000268576003928354926001938481811c91168015620006a1575b83821014620004e357601f81116200066b575b5081601f84116001146200060657509282939183925f94620005fa575b50501b915f1990841b1c191617905560ff90565b015192505f80620005e6565b919083601f198116875f52845f20945f905b8883831062000650575050501062000638575b505050811b01905560ff90565b01515f1983861b60f8161c191690555f80806200062b565b85870151885590960195948501948793509081019062000618565b855f5284601f845f20920160051c820191601f860160051c015b82811062000695575050620005c9565b5f815501859062000685565b90607f1690620005b656fe6080604081815260049182361015610015575f80fd5b5f3560e01c90816301ffc9a714611b7c5750806307747dda14611a3a57806309a5d5bf1461193c57806316df931a146118b85780632346129b1461187e578063248a9ca31461185557806327e235e3146118205780632a8821cc146116cb5780632d98ac5e146116ad5780632f2ff15d1461168557806331a74382146115005780633644e515146114e457806336568abe146114a05780633737bcb4146114825780633e413bee1461143f5780633f4ba83a146113d857806340c5faf0146113ac5780634842855c1461137257806348906548146112dc578063490b48f8146112a25780635c975abb1461127f578063683131c91461120d5780636c24a76f146111ce5780636e07302b146111a4578063735130341461114b5780637843bc781461112d57806381c311b51461108c578063823e32dc146110715780638456cb591461101957806384b0196e14610efb578063896260ff14610c5357806391d1485414610c105780639872efaf14610b4f5780639ae697bf14610b185780639b745aec14610a6b578063a217fddf14610a51578063a47b81d814610a34578063b41b582c14610936578063b5bfddea146108fc578063b65ab952146108c5578063b6b55f25146107ed578063ba9cf01d146107b3578063c109a6dc1461077c578063c28f7c3b1461069d578063c718fa2814610524578063d547741f146104e9578063d789760e146104cb5763e193baf11461022f575f80fd5b346104aa5760603660031901126104aa5767ffffffffffffffff82358181116104aa5761025f9036908501611c38565b93906024906024358481116104aa5761027b9036908501611c38565b90946044359081116104aa576102949036908601611c38565b919061029e611e39565b6102a6611eb5565b8189148015906104c1575b6104ae5795939291905f965f955b8a8710610398578a8a8a8a5f821315610350576009549082821061033557509061030b817f869a5a1e0f42c8b8c4b47ba63013d41f62e7df95db4fed575851496d88a189969593611cbb565b6009555b82519182526020820152a1610322611f02565b60015f8051602061257d83398151915255005b925163344a6cf960e11b815292830152602482015260449150fd5b5091825f7f869a5a1e0f42c8b8c4b47ba63013d41f62e7df95db4fed575851496d88a1899694121561030f5761039061038882611d5a565b600954611c69565b60095561030f565b909192939495976103aa898c88611d36565b356001600160a01b03811691908290036104aa576103c98a8685611d36565b35916103d68b8887611d36565b35610466575b5f831315610432575f52886020528a5f206103f8838254611c69565b90555b5f828201928312911290801582169115161761042057976001019594939291906102bf565b86601189634e487b7160e01b5f52525ffd5b5f8312610440575b506103fb565b61044983611d5a565b905f528960205261045e8c5f20918254611cbb565b90555f61043a565b6104718b8887611d36565b35815f5260056020526104888d5f20918254611cbb565b90556104958b8887611d36565b356104a3600d918254611cbb565b90556103dc565b5f80fd5b87516001621398b960e31b031981528690fd5b50828914156102b1565b50346104aa575f3660031901126104aa57602090600b549051908152f35b50346104aa57806003193601126104aa57610522913561051d600161050c611bce565b93835f525f6020525f200154611e94565b61215c565b005b5090346104aa575f3660031901126104aa5761053e611eb5565b335f526007602052815f20908154908115801561068f575b6106815760018301546078810180911161066e578042106106525750335f528060205261058f845f20546005602052855f205490611cbb565b828110610637575060028301600160ff19825416179055335f526020526105ba835f20918254611cbb565b90556105c98154600c54611cbb565b600c556105f88154337f0000000000000000000000000000000000000000000000000000000000000000611f48565b5490519081527fa7eb721bb005207aa47121ca07e02302abe41ffb50a0b8333e9a820c543e792160203392a260015f8051602061257d83398151915255005b91604492855192631fffa68760e31b84528301526024820152fd5b845163e58369d160e01b81529182015242602482015260449150fd5b601182634e487b7160e01b5f525260245ffd5b8351633c22193360e01b8152fd5b5060ff600284015416610556565b50346104aa575f3660031901126104aa57335f5281602052805f20541561076f57805181810181811067ffffffffffffffff82111761075c579061070e918352428152600160208201818152335f526008602052845f209251835551151591019060ff801983541691151516179055565b62093a804201918242116107495750519081527f60c41b507240bd5335e85fb7ffc69dcef02f56ccfb1861d2334c43198039042960203392a2005b601190634e487b7160e01b5f525260245ffd5b604184634e487b7160e01b5f525260245ffd5b51636165515360e11b8152fd5b50346104aa5760203660031901126104aa576020906001600160a01b036107a1611be4565b165f52600a8252805f20549051908152f35b50346104aa575f3660031901126104aa57602090517f300f9ae985dc711960f7a4d1dd013f9c19ecf40bff149522ab7523b2187a38468152f35b50346104aa5760203660031901126104aa5781359161080a611eb5565b610812611ee4565b82156108b757907f73a19dd210f1a7f902193214c0ee91dd35ee5b4d920cba8d519eca65a7b488ca916108678430337f00000000000000000000000000000000000000000000000000000000000000006121ce565b335f5280602052815f2061087c858254611c69565b905561088a84600c54611c69565b600c55335f52602052805f2054815193845260208401523392a260015f8051602061257d83398151915255005b9051631f2a200560e01b8152fd5b50346104aa5760203660031901126104aa576020906001600160a01b036108ea611be4565b165f5260068252805f20549051908152f35b50346104aa575f3660031901126104aa57602090517f52ba824bfabc2bcfcdf7f0edbb486ebb05e1836c90e78047efeb949990f72e5f8152f35b50346104aa5760203660031901126104aa57813591610953611eb5565b61095b611ee4565b82156108b757507f68110eff112678c2b41e26b6f6fb09e80adcf42e4c096268137d5633787b0715906109b08330337f00000000000000000000000000000000000000000000000000000000000000006121ce565b600b5480158015610a2a575b15610a0f5750825b335f52600a602052815f206109da828254611c69565b90556109e881600b54611c69565b600b556109f784600954611c69565b600955815193845260208401523392a2610322611f02565b610a1c610a259185611c8a565b60095490611c9d565b6109c4565b50600954156109bc565b50346104aa575f3660031901126104aa576020905162093a808152f35b50346104aa575f3660031901126104aa57602090515f8152f35b50346104aa575f3660031901126104aa5780516370a0823160e01b815230928101929092526020826024817f00000000000000000000000000000000000000000000000000000000000000006001600160a01b03165afa908115610b0f575f91610ada575b6020925051908152f35b90506020823d602011610b07575b81610af560209383611d14565b810103126104aa576020915190610ad0565b3d9150610ae8565b513d5f823e3d90fd5b50346104aa5760203660031901126104aa576020906001600160a01b03610b3d611be4565b165f5260058252805f20549051908152f35b50346104aa57806003193601126104aa57610b68611be4565b9060243591610b75611dc0565b610b7d611eb5565b6001600160a01b038116938415610c02578315610bf4575091602091610be7827f672e43e50bcc378fc33f44cca152b4892710feb7e41997d8cc0059024c5346bf9530907f00000000000000000000000000000000000000000000000000000000000000006121ce565b51908152a2610322611f02565b8251631f2a200560e01b8152fd5b825163fbf66df160e01b8152fd5b50346104aa57806003193601126104aa57602091610c2c611bce565b90355f525f8352815f209060018060a01b03165f52825260ff815f20541690519015158152f35b50346104aa5760603660031901126104aa578135906024928335906044359067ffffffffffffffff918281116104aa57366023820112156104aa57808201359283116104aa57368784830101116104aa57610cac611eb5565b610cb4611ee4565b8515610eec57834211610ed057335f52602092828452610cdf865f205460058652875f205490611cbb565b878110610eb55750335f5260068452855f20948554955f198714610ea357915f8660428a8c610db49896610dab9860018e019055825191858301937fda40a6482159d61a0641c1dc92488212a1a0fc874947c528e5cf14b6f487fd328552339084015260608301528c608083015260a082015260a08152610d5f81611cc8565b519020610d6a612042565b908c519161190160f01b8352600283015260228201522092808d8c5196610d9a85601f19601f8601160189611d14565b828852018387013784010152612432565b9092919261246c565b7fac4f1890dc96c9a02330d1fa696648a38f3b282d2449c2d8e6f10507488c84c85f9081528084528581206001600160a01b039092168082529184528590205460ff1615610e8e57507f04d9bd125a1c65c0e9f8e496aa112356bf7a4283981776421745deda9194c7c1949550335f528152825f20610e34868254611cbb565b9055610e4285600c54611cbb565b600c55610e7085337f0000000000000000000000000000000000000000000000000000000000000000611f48565b82519485528401523392a260015f8051602061257d83398151915255005b8451636fdaa90b60e11b815291820152859150fd5b89601186634e487b7160e01b5f52525ffd5b83888a6044938a5193631fffa68760e31b8552840152820152fd5b8451630f88f04960e41b81528083018590524281890152604490fd5b508351631f2a200560e01b8152fd5b5090346104aa575f3660031901126104aa57610f367f0000000000000000000000000000000000000000000000000000000000000000612238565b91610f607f000000000000000000000000000000000000000000000000000000000000000061235f565b815191602091602084019484861067ffffffffffffffff8711176110065750610fbb8260209287610fae99989795525f85528151988998600f60f81b8a5260e0868b015260e08a0190611bfa565b9188830390890152611bfa565b914660608701523060808701525f60a087015285830360c087015251918281520192915f5b828110610fef57505050500390f35b835185528695509381019392810192600101610fe0565b604190634e487b7160e01b5f525260245ffd5b50346104aa575f3660031901126104aa5760207f62e78cea01bee320cd4e420270b5ea74000d11b0c9f74754ebdbfc544b05a25891611056611d6a565b61105e611ee4565b600160ff198154161760015551338152a1005b50346104aa575f3660031901126104aa576020905160788152f35b50346104aa5760203660031901126104aa576110a6611be4565b6001600160a01b03165f9081526008602052818120600181015460ff1692908290846110e3575b5060609450815193151584526020840152820152f35b5462093a80810193508310905061111a57606093508142811161110a57505f5b915f6110cd565b611115904290611cbb565b611103565b601184634e487b7160e01b5f525260245ffd5b50346104aa575f3660031901126104aa57602090600c549051908152f35b50346104aa57806003193601126104aa5761119f90611168611be4565b9060243591611175611e39565b6001600160a01b03165f9081526005602052208054611195908390611c69565b9055600d54611c69565b600d55005b50346104aa575f3660031901126104aa576020906111c7600c5460095490611c69565b9051908152f35b50346104aa5760203660031901126104aa576020916001600160a01b036111f3611be4565b165f5282526111c7815f205460058452825f205490611cbb565b50346104aa575f3660031901126104aa57335f52600860205260ff6001825f200154161561127257600190335f5260086020525f200160ff198154169055337f44cb2a36024a22011b0211a2cb0cc34529170bacdcdb6c2f673f4a482af74ad25f80a2005b51633c22193360e01b8152fd5b50346104aa575f3660031901126104aa5760209060ff6001541690519015158152f35b50346104aa575f3660031901126104aa57602090517fccc64574297998b6c3edf6078cc5e01268465ff116954e3af02ff3a70a730f468152f35b50346104aa57806003193601126104aa576112f5611be4565b9060243591611302611dc0565b61130a611eb5565b6001600160a01b038116938415610c02578315610bf4575091602091610be7827fcf3aa51631932a22c921fa767fd73e32f20ce5db9699c97c48b0ff3f9b1f1e89957f0000000000000000000000000000000000000000000000000000000000000000611f48565b50346104aa575f3660031901126104aa57602090517fac4f1890dc96c9a02330d1fa696648a38f3b282d2449c2d8e6f10507488c84c88152f35b50346104aa5760203660031901126104aa57602091355f52600e825260ff815f20541690519015158152f35b50346104aa575f3660031901126104aa576113f1611d6a565b6001549160ff831615611431577f5db9ee0a495bf2e6ff9c91a7834c1ba4fdd244a5e8aa4e537bd38aeae4b073aa6020838560ff191660015551338152a1005b9051638dfc202b60e01b8152fd5b50346104aa575f3660031901126104aa57517f00000000000000000000000000000000000000000000000000000000000000006001600160a01b03168152602090f35b50346104aa575f3660031901126104aa576020906009549051908152f35b50346104aa57806003193601126104aa576114b9611bce565b90336001600160a01b038316036114d55750610522913561215c565b5163334bd91960e11b81529050fd5b50346104aa575f3660031901126104aa576020906111c7612042565b50346104aa57602090816003193601126104aa5782359161151f611eb5565b611527611ee4565b821561167557335f52838152611548825f205460058352835f205490611cbb565b8381106116595750335f5260078152815f20805415159081611649575b506116395781516060810181811067ffffffffffffffff82111761162657906115c69184528481526002838201428152858301905f8252335f5260078652865f209351845551600184015551151591019060ff801983541691151516179055565b60784201908142116116135782519384528301523392507f0b4c02ab9faddfa538d3f083bf6ce824d8c921a45bfd28b8ffafcb0f1a8e1c2391a260015f8051602061257d83398151915255005b601185634e487b7160e01b5f525260245ffd5b604186634e487b7160e01b5f525260245ffd5b8151633b83c1e760e01b81528490fd5b60ff91506002015416155f611565565b8484604492855192631fffa68760e31b84528301526024820152fd5b8151631f2a200560e01b81528490fd5b50346104aa57806003193601126104aa5761052291356116a8600161050c611bce565b611fc6565b50346104aa575f3660031901126104aa57602090600d549051908152f35b50346104aa575f3660031901126104aa576116e4611eb5565b335f52602060088152815f2091600183019260ff84541615611810575462093a808101809111611613578042106117f45750335f52838252805f20549283156117e4577f2e39961a70a10f4d46383948095ac2752b3ee642a7c76aa827410aaff08c2e519394335f5260058452825f20549084525f83812055600584525f8381205561177286600c54611cbb565b600c55600d5490808210156117d1575b5050805460ff191690556117b784337f0000000000000000000000000000000000000000000000000000000000000000611f48565b519283523392a260015f8051602061257d83398151915255005b6117da91611cbb565b600d555f80611782565b8151636165515360e11b81528590fd5b8490604492519163e58369d160e01b8352820152426024820152fd5b8151633c22193360e01b81528590fd5b50346104aa5760203660031901126104aa576020916001600160a01b03611845611be4565b165f528252805f20549051908152f35b50346104aa5760203660031901126104aa57602091355f525f82526001815f2001549051908152f35b50346104aa575f3660031901126104aa57602090517fda40a6482159d61a0641c1dc92488212a1a0fc874947c528e5cf14b6f487fd328152f35b50346104aa5760203660031901126104aa576001600160a01b036118da611be4565b165f526007602052805f20908154916001810154607881018091116116135760609450831515918261192c575b5081611920575b82519384526020840152151590820152f35b8091504210159061190e565b6002015460ff161591505f611907565b50346104aa5760203660031901126104aa57813591611959611eb5565b82158015611a26575b611a1857507f86ef7829731d23705c76edb615e2feb99fd3832d911fd10bfca814e372925523906119a161199860095485611c8a565b600b5490611c9d565b92335f52600a602052815f206119b8828254611cbb565b90556119c681600b54611cbb565b600b556119d584600954611cbb565b600955611a0384337f0000000000000000000000000000000000000000000000000000000000000000611f48565b815193845260208401523392a2610322611f02565b9051636edcc52360e01b8152fd5b50335f52600a60205282825f205410611962565b5090346104aa5760603660031901126104aa578035611a57611bce565b6044357f52ba824bfabc2bcfcdf7f0edbb486ebb05e1836c90e78047efeb949990f72e5f91825f526020925f8452865f20335f52845260ff875f20541615611b5e5750611aa2611eb5565b611aaa611ee4565b8115611b4e57835f52600e835260ff865f205416611b3657948394957fd67122688ffe3f48ba16304f0f45aae2ace9cd89e85ee4b69dd3b1342625d2e7945f52600e8452815f20600160ff1982541617905560018060a01b031695865f528352805f20611b18838254611c69565b9055611b2682600c54611c69565b600c5551908152a3610322611f02565b505092516307e3f65960e31b81529182015260249150fd5b8551631f2a200560e01b81528590fd5b865163e2517d3f60e01b815233818801526024810191909152604490fd5b83346104aa5760203660031901126104aa57359063ffffffff60e01b82168092036104aa57602091637965db0b60e01b8114908115611bbd575b5015158152f35b6301ffc9a760e01b14905083611bb6565b602435906001600160a01b03821682036104aa57565b600435906001600160a01b03821682036104aa57565b91908251928382525f5b848110611c24575050825f602080949584010152601f8019910116010190565b602081830181015184830182015201611c04565b9181601f840112156104aa5782359167ffffffffffffffff83116104aa576020808501948460051b0101116104aa57565b91908201809211611c7657565b634e487b7160e01b5f52601160045260245ffd5b81810292918115918404141715611c7657565b8115611ca7570490565b634e487b7160e01b5f52601260045260245ffd5b91908203918211611c7657565b60c0810190811067ffffffffffffffff821117611ce457604052565b634e487b7160e01b5f52604160045260245ffd5b6040810190811067ffffffffffffffff821117611ce457604052565b90601f8019910116810190811067ffffffffffffffff821117611ce457604052565b9190811015611d465760051b0190565b634e487b7160e01b5f52603260045260245ffd5b600160ff1b8114611c76575f0390565b335f9081527fad3228b676f7d3cd4284a5443f17f1962b36e491b30a40b2405849e597ba5fb5602052604090205460ff1615611da257565b60405163e2517d3f60e01b81523360048201525f6024820152604490fd5b335f9081527f87c50a590bb2fbe0ba310d7823f70b25d5b91fc0545b8047c18272267ca1c72260205260409020547fccc64574297998b6c3edf6078cc5e01268465ff116954e3af02ff3a70a730f469060ff1615611e1b5750565b6044906040519063e2517d3f60e01b82523360048301526024820152fd5b335f9081527fdd53df7e4642f4e3d9dededdac02355f2e876e2a9b7ef4e260af8d6fd7b3325760205260409020547f300f9ae985dc711960f7a4d1dd013f9c19ecf40bff149522ab7523b2187a38469060ff1615611e1b5750565b805f525f60205260405f20335f5260205260ff60405f20541615611e1b5750565b5f8051602061257d8339815191526002815414611ed25760029055565b604051633ee5aeb560e01b8152600490fd5b60ff60015416611ef057565b60405163d93c066560e01b8152600490fd5b7f08b678bd788cc4e1cc8fe3fe18b923da10961eaaf221a45822749587c9828cf26080600954600c54600d549060405192835260208301526040820152426060820152a1565b60405163a9059cbb60e01b5f9081526001600160a01b039384166004526024949094529260209060448180855af160015f5114811615611fa7575b8360405215611f9157505050565b635274afe760e01b835216600482015260249150fd5b6001811516611fbd57813b15153d151616611f83565b833d5f823e3d90fd5b90815f525f60205260405f209060018060a01b031690815f5260205260ff60405f205416155f1461203c57815f525f60205260405f20815f5260205260405f20600160ff1982541617905533917f2f8788117e7eff1d82e926ec794901d17c78024a50270940304540a733656f0d5f80a4600190565b50505f90565b307f00000000000000000000000000000000000000000000000000000000000000006001600160a01b03161480612133575b1561209d577f000000000000000000000000000000000000000000000000000000000000000090565b60405160208101907f8b73c3c69bb8fe3d512ecc4cf759cc79239f7b179b0ffacaa9a75d522b39400f82527f000000000000000000000000000000000000000000000000000000000000000060408201527f000000000000000000000000000000000000000000000000000000000000000060608201524660808201523060a082015260a0815261212d81611cc8565b51902090565b507f00000000000000000000000000000000000000000000000000000000000000004614612074565b90815f525f60205260405f209060018060a01b031690815f5260205260ff60405f2054165f1461203c57815f525f60205260405f20815f5260205260405f2060ff19815416905533917ff6391f5c32d9c69d2a47ea670b442974b53935d1edc7fd64eb21e047a839171b5f80a4600190565b6040516323b872dd60e01b5f9081526001600160a01b03938416600452938316602452604494909452909160209060648180855af160015f5114811615612222575b836040525f60605215611f9157505050565b6001811516611fbd57813b15153d151616612210565b60ff81146122765760ff811690601f8211612264576040519161225a83611cf8565b8252602082015290565b604051632cd44ac360e21b8152600490fd5b506040515f600254906001908260011c60018416928315612355575b602094858310851461234157828752869490811561232157506001146122c4575b50506122c192500382611d14565b90565b9093915060025f527f405787fa12a823e0f2b7631cc41b3ba8828b3321ca811111fa75cd3aa3bb5ace935f915b8183106123095750506122c193508201015f806122b3565b855487840185015294850194869450918301916122f1565b9150506122c194925060ff191682840152151560051b8201015f806122b3565b634e487b7160e01b5f52602260045260245ffd5b90607f1690612292565b60ff81146123815760ff811690601f8211612264576040519161225a83611cf8565b506040515f600354906001908260011c60018416928315612428575b602094858310851461234157828752869490811561232157506001146123cb5750506122c192500382611d14565b9093915060035f527fc2575a0e9e593c00f959f8c92f12db2869c3395a3b0502d05e2516446f71f85b935f915b8183106124105750506122c193508201015f806122b3565b855487840185015294850194869450918301916123f8565b90607f169061239d565b81519190604183036124625761245b9250602082015190606060408401519301515f1a906124ef565b9192909190565b50505f9160029190565b60048110156124db578061247e575050565b600181036124985760405163f645eedf60e01b8152600490fd5b600281036124b95760405163fce698f760e01b815260048101839052602490fd5b6003146124c35750565b602490604051906335e2f38360e21b82526004820152fd5b634e487b7160e01b5f52602160045260245ffd5b91907f7fffffffffffffffffffffffffffffff5d576e7357a4501ddfe92f46681b20a08411612571579160209360809260ff5f9560405194855216868401526040830152606082015282805260015afa15612566575f516001600160a01b0381161561255c57905f905f90565b505f906001905f90565b6040513d5f823e3d90fd5b5050505f916003919056fe9b779b17422d0df92223018b32b4d1fa46e071723d6817e2486d003becc55f00a264697066735822122028cbce8783c0bb73923ad7bf7eb800388c553e64a358557725572372ace00c5d64736f6c63430008180033ad3228b676f7d3cd4284a5443f17f1962b36e491b30a40b2405849e597ba5fb5","linkReferences":{}},"methodIdentifiers":{"BRIDGE_ROLE()":"b5bfddea","DEFAULT_ADMIN_ROLE()":"a217fddf","DOMAIN_SEPARATOR()":"3644e515","EMERGENCY_WITHDRAW_DELAY()":"a47b81d8","FAST_WITHDRAW_TYPEHASH()":"2346129b","REBALANCER_ROLE()":"490b48f8","SEQUENCER_ROLE()":"4842855c","SETTLEMENT_ROLE()":"ba9cf01d","SLOW_WITHDRAW_DELAY()":"823e32dc","balances(address)":"27e235e3","cancelEmergencyWithdraw()":"683131c9","creditCrossChainDeposit(bytes32,address,uint256)":"07747dda","deposit(uint256)":"b6b55f25","eip712Domain()":"84b0196e","executeEmergencyWithdraw()":"2a8821cc","executeSlowWithdraw()":"c718fa28","fastWithdraw(uint256,uint256,bytes)":"896260ff","fastWithdrawNonce(address)":"b65ab952","getAvailableBalance(address)":"6c24a76f","getAvailableLiquidity()":"9b745aec","getEmergencyStatus(address)":"81c311b5","getRoleAdmin(bytes32)":"248a9ca3","getSlowWithdrawStatus(address)":"16df931a","getTotalAssets()":"6e07302b","grantRole(bytes32,address)":"2f2ff15d","hasRole(bytes32,address)":"91d14854","lockedBalance(address)":"9ae697bf","lpDeposit(uint256)":"b41b582c","lpPool()":"3737bcb4","lpShares(address)":"c109a6dc","lpWithdraw(uint256)":"09a5d5bf","pause()":"8456cb59","paused()":"5c975abb","processedDeposits(bytes32)":"40c5faf0","rebalanceIn(address,uint256)":"9872efaf","rebalanceOut(address,uint256)":"48906548","renounceRole(bytes32,address)":"36568abe","requestEmergencyWithdraw()":"c28f7c3b","requestSlowWithdraw(uint256)":"31a74382","revokeRole(bytes32,address)":"d547741f","settleBalances(address[],int256[],uint256[])":"e193baf1","supportsInterface(bytes4)":"01ffc9a7","totalLPShares()":"d789760e","totalLockedBalance()":"2d98ac5e","totalUserDeposits()":"7843bc78","unpause()":"3f4ba83a","updateLockedBalance(address,uint256)":"73513034","usdc()":"3e413bee"},"id":66}