{"abi":[{"type":"constructor","inputs":[{"name":"_usdc","type":"address","internalType":"address"},{"name":"_admin","type":"address","internalType":"address"}],"stateMutability":"nonpayable"},{"type":"function","name":"DEFAULT_ADMIN_ROLE","inputs":[],"outputs":[{"name":"","type":"bytes32","internalType":"bytes32"}],"stateMutability":"view"},{"type":"function","name":"DOMAIN_SEPARATOR","inputs":[],"outputs":[{"name":"","type":"bytes32","internalType":"bytes32"}],"stateMutability":"view"},{"type":"function","name":"EMERGENCY_WITHDRAW_DELAY","inputs":[],"outputs":[{"name":"","type":"uint256","internalType":"uint256"}],"stateMutability":"view"},{"type":"function","name":"FAST_WITHDRAW_TYPEHASH","inputs":[],"outputs":[{"name":"","type":"bytes32","internalType":"bytes32"}],"stateMutability":"view"},{"type":"function","name":"SEQUENCER_ROLE","inputs":[],"outputs":[{"name":"","type":"bytes32","internalType":"bytes32"}],"stateMutability":"view"},{"type":"function","name":"SETTLEMENT_ROLE","inputs":[],"outputs":[{"name":"","type":"bytes32","internalType":"bytes32"}],"stateMutability":"view"},{"type":"function","name":"SLOW_WITHDRAW_DELAY","inputs":[],"outputs":[{"name":"","type":"uint256","internalType":"uint256"}],"stateMutability":"view"},{"type":"function","name":"balances","inputs":[{"name":"","type":"address","internalType":"address"}],"outputs":[{"name":"","type":"uint256","internalType":"uint256"}],"stateMutability":"view"},{"type":"function","name":"cancelEmergencyWithdraw","inputs":[],"outputs":[],"stateMutability":"nonpayable"},{"type":"function","name":"deposit","inputs":[{"name":"amount","type":"uint256","internalType":"uint256"}],"outputs":[],"stateMutability":"nonpayable"},{"type":"function","name":"eip712Domain","inputs":[],"outputs":[{"name":"fields","type":"bytes1","internalType":"bytes1"},{"name":"name","type":"string","internalType":"string"},{"name":"version","type":"string","internalType":"string"},{"name":"chainId","type":"uint256","internalType":"uint256"},{"name":"verifyingContract","type":"address","internalType":"address"},{"name":"salt","type":"bytes32","internalType":"bytes32"},{"name":"extensions","type":"uint256[]","internalType":"uint256[]"}],"stateMutability":"view"},{"type":"function","name":"executeEmergencyWithdraw","inputs":[],"outputs":[],"stateMutability":"nonpayable"},{"type":"function","name":"executeSlowWithdraw","inputs":[],"outputs":[],"stateMutability":"nonpayable"},{"type":"function","name":"fastWithdraw","inputs":[{"name":"amount","type":"uint256","internalType":"uint256"},{"name":"deadline","type":"uint256","internalType":"uint256"},{"name":"sequencerSig","type":"bytes","internalType":"bytes"}],"outputs":[],"stateMutability":"nonpayable"},{"type":"function","name":"fastWithdrawNonce","inputs":[{"name":"","type":"address","internalType":"address"}],"outputs":[{"name":"","type":"uint256","internalType":"uint256"}],"stateMutability":"view"},{"type":"function","name":"getAvailableBalance","inputs":[{"name":"user","type":"address","internalType":"address"}],"outputs":[{"name":"","type":"uint256","internalType":"uint256"}],"stateMutability":"view"},{"type":"function","name":"getAvailableLiquidity","inputs":[],"outputs":[{"name":"","type":"uint256","internalType":"uint256"}],"stateMutability":"view"},{"type":"function","name":"getEmergencyStatus","inputs":[{"name":"user","type":"address","internalType":"address"}],"outputs":[{"name":"active","type":"bool","internalType":"bool"},{"name":"readyTime","type":"uint256","internalType":"uint256"},{"name":"timeRemaining","type":"uint256","internalType":"uint256"}],"stateMutability":"view"},{"type":"function","name":"getRoleAdmin","inputs":[{"name":"role","type":"bytes32","internalType":"bytes32"}],"outputs":[{"name":"","type":"bytes32","internalType":"bytes32"}],"stateMutability":"view"},{"type":"function","name":"getSlowWithdrawStatus","inputs":[{"name":"user","type":"address","internalType":"address"}],"outputs":[{"name":"amount","type":"uint256","internalType":"uint256"},{"name":"readyTime","type":"uint256","internalType":"uint256"},{"name":"canExecute","type":"bool","internalType":"bool"}],"stateMutability":"view"},{"type":"function","name":"getTotalAssets","inputs":[],"outputs":[{"name":"","type":"uint256","internalType":"uint256"}],"stateMutability":"view"},{"type":"function","name":"grantRole","inputs":[{"name":"role","type":"bytes32","internalType":"bytes32"},{"name":"account","type":"address","internalType":"address"}],"outputs":[],"stateMutability":"nonpayable"},{"type":"function","name":"hasRole","inputs":[{"name":"role","type":"bytes32","internalType":"bytes32"},{"name":"account","type":"address","internalType":"address"}],"outputs":[{"name":"","type":"bool","internalType":"bool"}],"stateMutability":"view"},{"type":"function","name":"lockedBalance","inputs":[{"name":"","type":"address","internalType":"address"}],"outputs":[{"name":"","type":"uint256","internalType":"uint256"}],"stateMutability":"view"},{"type":"function","name":"lpDeposit","inputs":[{"name":"amount","type":"uint256","internalType":"uint256"},{"name":"minShares","type":"uint256","internalType":"uint256"}],"outputs":[],"stateMutability":"nonpayable"},{"type":"function","name":"lpPool","inputs":[],"outputs":[{"name":"","type":"uint256","internalType":"uint256"}],"stateMutability":"view"},{"type":"function","name":"lpShares","inputs":[{"name":"","type":"address","internalType":"address"}],"outputs":[{"name":"","type":"uint256","internalType":"uint256"}],"stateMutability":"view"},{"type":"function","name":"lpWithdraw","inputs":[{"name":"shares","type":"uint256","internalType":"uint256"},{"name":"minAmount","type":"uint256","internalType":"uint256"}],"outputs":[],"stateMutability":"nonpayable"},{"type":"function","name":"pause","inputs":[],"outputs":[],"stateMutability":"nonpayable"},{"type":"function","name":"paused","inputs":[],"outputs":[{"name":"","type":"bool","internalType":"bool"}],"stateMutability":"view"},{"type":"function","name":"renounceRole","inputs":[{"name":"role","type":"bytes32","internalType":"bytes32"},{"name":"callerConfirmation","type":"address","internalType":"address"}],"outputs":[],"stateMutability":"nonpayable"},{"type":"function","name":"requestEmergencyWithdraw","inputs":[],"outputs":[],"stateMutability":"nonpayable"},{"type":"function","name":"requestSlowWithdraw","inputs":[{"name":"amount","type":"uint256","internalType":"uint256"}],"outputs":[],"stateMutability":"nonpayable"},{"type":"function","name":"revokeRole","inputs":[{"name":"role","type":"bytes32","internalType":"bytes32"},{"name":"account","type":"address","internalType":"address"}],"outputs":[],"stateMutability":"nonpayable"},{"type":"function","name":"settleBalances","inputs":[{"name":"users","type":"address[]","internalType":"address[]"},{"name":"deltas","type":"int256[]","internalType":"int256[]"},{"name":"lockedDeltas","type":"uint256[]","internalType":"uint256[]"}],"outputs":[],"stateMutability":"nonpayable"},{"type":"function","name":"supportsInterface","inputs":[{"name":"interfaceId","type":"bytes4","internalType":"bytes4"}],"outputs":[{"name":"","type":"bool","internalType":"bool"}],"stateMutability":"view"},{"type":"function","name":"totalLPShares","inputs":[],"outputs":[{"name":"","type":"uint256","internalType":"uint256"}],"stateMutability":"view"},{"type":"function","name":"totalLockedBalance","inputs":[],"outputs":[{"name":"","type":"uint256","internalType":"uint256"}],"stateMutability":"view"},{"type":"function","name":"totalUserDeposits","inputs":[],"outputs":[{"name":"","type":"uint256","internalType":"uint256"}],"stateMutability":"view"},{"type":"function","name":"unpause","inputs":[],"outputs":[],"stateMutability":"nonpayable"},{"type":"function","name":"updateLockedBalance","inputs":[{"name":"user","type":"address","internalType":"address"},{"name":"amount","type":"uint256","internalType":"uint256"}],"outputs":[],"stateMutability":"nonpayable"},{"type":"function","name":"usdc","inputs":[],"outputs":[{"name":"","type":"address","internalType":"contract IERC20"}],"stateMutability":"view"},{"type":"event","name":"BalancesSettled","inputs":[{"name":"userCount","type":"uint256","indexed":false,"internalType":"uint256"},{"name":"netDelta","type":"int256","indexed":false,"internalType":"int256"}],"anonymous":false},{"type":"event","name":"Deposited","inputs":[{"name":"user","type":"address","indexed":true,"internalType":"address"},{"name":"amount","type":"uint256","indexed":false,"internalType":"uint256"},{"name":"newBalance","type":"uint256","indexed":false,"internalType":"uint256"}],"anonymous":false},{"type":"event","name":"EIP712DomainChanged","inputs":[],"anonymous":false},{"type":"event","name":"EmergencyWithdrawCancelled","inputs":[{"name":"user","type":"address","indexed":true,"internalType":"address"}],"anonymous":false},{"type":"event","name":"EmergencyWithdrawRequested","inputs":[{"name":"user","type":"address","indexed":true,"internalType":"address"},{"name":"readyTime","type":"uint256","indexed":false,"internalType":"uint256"}],"anonymous":false},{"type":"event","name":"EmergencyWithdrawn","inputs":[{"name":"user","type":"address","indexed":true,"internalType":"address"},{"name":"amount","type":"uint256","indexed":false,"internalType":"uint256"}],"anonymous":false},{"type":"event","name":"FastWithdrawn","inputs":[{"name":"user","type":"address","indexed":true,"internalType":"address"},{"name":"amount","type":"uint256","indexed":false,"internalType":"uint256"},{"name":"nonce","type":"uint256","indexed":false,"internalType":"uint256"}],"anonymous":false},{"type":"event","name":"LPDeposited","inputs":[{"name":"provider","type":"address","indexed":true,"internalType":"address"},{"name":"amount","type":"uint256","indexed":false,"internalType":"uint256"},{"name":"shares","type":"uint256","indexed":false,"internalType":"uint256"}],"anonymous":false},{"type":"event","name":"LPWithdrawn","inputs":[{"name":"provider","type":"address","indexed":true,"internalType":"address"},{"name":"amount","type":"uint256","indexed":false,"internalType":"uint256"},{"name":"shares","type":"uint256","indexed":false,"internalType":"uint256"}],"anonymous":false},{"type":"event","name":"LiquidityStateUpdated","inputs":[{"name":"lpPool","type":"uint256","indexed":false,"internalType":"uint256"},{"name":"totalUserDeposits","type":"uint256","indexed":false,"internalType":"uint256"},{"name":"totalLockedBalance","type":"uint256","indexed":false,"internalType":"uint256"},{"name":"timestamp","type":"uint256","indexed":false,"internalType":"uint256"}],"anonymous":false},{"type":"event","name":"Paused","inputs":[{"name":"account","type":"address","indexed":false,"internalType":"address"}],"anonymous":false},{"type":"event","name":"RoleAdminChanged","inputs":[{"name":"role","type":"bytes32","indexed":true,"internalType":"bytes32"},{"name":"previousAdminRole","type":"bytes32","indexed":true,"internalType":"bytes32"},{"name":"newAdminRole","type":"bytes32","indexed":true,"internalType":"bytes32"}],"anonymous":false},{"type":"event","name":"RoleGranted","inputs":[{"name":"role","type":"bytes32","indexed":true,"internalType":"bytes32"},{"name":"account","type":"address","indexed":true,"internalType":"address"},{"name":"sender","type":"address","indexed":true,"internalType":"address"}],"anonymous":false},{"type":"event","name":"RoleRevoked","inputs":[{"name":"role","type":"bytes32","indexed":true,"internalType":"bytes32"},{"name":"account","type":"address","indexed":true,"internalType":"address"},{"name":"sender","type":"address","indexed":true,"internalType":"address"}],"anonymous":false},{"type":"event","name":"SlowWithdrawRequested","inputs":[{"name":"user","type":"address","indexed":true,"internalType":"address"},{"name":"amount","type":"uint256","indexed":false,"internalType":"uint256"},{"name":"readyTime","type":"uint256","indexed":false,"internalType":"uint256"}],"anonymous":false},{"type":"event","name":"SlowWithdrawn","inputs":[{"name":"user","type":"address","indexed":true,"internalType":"address"},{"name":"amount","type":"uint256","indexed":false,"internalType":"uint256"}],"anonymous":false},{"type":"event","name":"Unpaused","inputs":[{"name":"account","type":"address","indexed":false,"internalType":"address"}],"anonymous":false},{"type":"error","name":"AccessControlBadConfirmation","inputs":[]},{"type":"error","name":"AccessControlUnauthorizedAccount","inputs":[{"name":"account","type":"address","internalType":"address"},{"name":"neededRole","type":"bytes32","internalType":"bytes32"}]},{"type":"error","name":"ECDSAInvalidSignature","inputs":[]},{"type":"error","name":"ECDSAInvalidSignatureLength","inputs":[{"name":"length","type":"uint256","internalType":"uint256"}]},{"type":"error","name":"ECDSAInvalidSignatureS","inputs":[{"name":"s","type":"bytes32","internalType":"bytes32"}]},{"type":"error","name":"EnforcedPause","inputs":[]},{"type":"error","name":"ExpectedPause","inputs":[]},{"type":"error","name":"InsufficientAvailable","inputs":[{"name":"available","type":"uint256","internalType":"uint256"},{"name":"requested","type":"uint256","internalType":"uint256"}]},{"type":"error","name":"InsufficientLP","inputs":[{"name":"lpPool","type":"uint256","internalType":"uint256"},{"name":"required","type":"uint256","internalType":"uint256"}]},{"type":"error","name":"InvalidSequencerSig","inputs":[{"name":"recovered","type":"address","internalType":"address"}]},{"type":"error","name":"InvalidShares","inputs":[]},{"type":"error","name":"InvalidShortString","inputs":[]},{"type":"error","name":"LengthMismatch","inputs":[]},{"type":"error","name":"NoActiveRequest","inputs":[]},{"type":"error","name":"NoBalance","inputs":[]},{"type":"error","name":"PendingSlowWithdraw","inputs":[]},{"type":"error","name":"ReentrancyGuardReentrantCall","inputs":[]},{"type":"error","name":"SafeERC20FailedOperation","inputs":[{"name":"token","type":"address","internalType":"address"}]},{"type":"error","name":"SignatureExpired","inputs":[{"name":"deadline","type":"uint256","internalType":"uint256"},{"name":"currentTime","type":"uint256","internalType":"uint256"}]},{"type":"error","name":"SlippageExceeded","inputs":[{"name":"actual","type":"uint256","internalType":"uint256"},{"name":"minimum","type":"uint256","internalType":"uint256"}]},{"type":"error","name":"StringTooLong","inputs":[{"name":"str","type":"string","internalType":"string"}]},{"type":"error","name":"TooEarly","inputs":[{"name":"readyTime","type":"uint256","internalType":"uint256"},{"name":"currentTime","type":"uint256","internalType":"uint256"}]},{"type":"error","name":"ZeroAmount","inputs":[]}],"bytecode":{"object":"0x610180346200026e576001600160401b03906200291b90601f38839003908101601f1916820190848211838310176200025a57808391604095869485528339810103126200026e5762000060602062000058836200028e565b92016200028e565b918051906200006f8262000272565b600c825260208201936b12d3585c9ad95d15985d5b1d60a21b8552815195620000988762000272565b6001875260208701603160f81b815260017f9b779b17422d0df92223018b32b4d1fa46e071723d6817e2486d003becc55f0055620000d68562000325565b96610120978852620000e889620004f4565b95610140968752519020978860e052519020610100978189524660a05284519160208301917f8b73c3c69bb8fe3d512ecc4cf759cc79239f7b179b0ffacaa9a75d522b39400f83528684015260608301524660808301523060a083015260a0825260c0820192828410908411176200025a57828552815190206080523060c0526001600160a01b039586169586151590816200024d575b50156200021a5750506200019990610160948552620002a3565b50519261225c94856200069f863960805185611d05015260a05185611dc0015260c05185611ccf015260e05185611d5401525184611d7a01525183610cd701525182610d01015251818181610592015281816108010152818161091e01528181610c1101528181610f990152818161124c0152818161157c01526116ec0152f35b62461bcd60e51b8252602060c4820152600c60e48201526b5a65726f206164647265737360a01b61010490910152606490fd5b9050831615155f6200017f565b634e487b7160e01b5f52604160045260245ffd5b5f80fd5b604081019081106001600160401b038211176200025a57604052565b51906001600160a01b03821682036200026e57565b6001600160a01b03165f8181525f80516020620028fb833981519152602052604090205460ff1662000320575f8181525f80516020620028fb83398151915260205260408120805460ff191660011790553391907f2f8788117e7eff1d82e926ec794901d17c78024a50270940304540a733656f0d8180a4600190565b505f90565b805160209081811015620003bf5750601f8251116200036057808251920151908083106200035257501790565b825f19910360031b1b161790565b90604051809263305a27a960e01b82528060048301528251908160248401525f935b828510620003a5575050604492505f838284010152601f80199101168101030190fd5b848101820151868601604401529381019385935062000382565b906001600160401b0382116200025a57600254926001938481811c91168015620004e9575b83821014620004d557601f81116200049e575b5081601f84116001146200043657509282939183925f946200042a575b50501b915f199060031b1c19161760025560ff90565b015192505f8062000414565b919083601f19811660025f52845f20945f905b888383106200048357505050106200046a575b505050811b0160025560ff90565b01515f1960f88460031b161c191690555f80806200045c565b85870151885590960195948501948793509081019062000449565b60025f5284601f845f20920160051c820191601f860160051c015b828110620004c9575050620003f7565b5f8155018590620004b9565b634e487b7160e01b5f52602260045260245ffd5b90607f1690620003e4565b8051602091908281101562000582575090601f8251116200052357808251920151908083106200035257501790565b90604051809263305a27a960e01b82528060048301528251908160248401525f935b82851062000568575050604492505f838284010152601f80199101168101030190fd5b848101820151868601604401529381019385935062000545565b6001600160401b0381116200025a576003928354926001938481811c9116801562000693575b83821014620004d557601f81116200065d575b5081601f8411600114620005f857509282939183925f94620005ec575b50501b915f1990841b1c191617905560ff90565b015192505f80620005d8565b919083601f198116875f52845f20945f905b888383106200064257505050106200062a575b505050811b01905560ff90565b01515f1983861b60f8161c191690555f80806200061d565b8587015188559096019594850194879350908101906200060a565b855f5284601f845f20920160051c820191601f860160051c015b82811062000687575050620005bb565b5f815501859062000677565b90607f1690620005a856fe6080604081815260049182361015610015575f80fd5b5f3560e01c90816301ffc9a71461184b5750806316df931a146117c75780632346129b1461178d578063248a9ca31461176457806326bef9e71461163e57806327e235e3146116095780632a8821cc146114b45780632d98ac5e146114965780632f2ff15d1461146e57806331a74382146112f95780633644e515146112dd57806336568abe146112995780633737bcb41461127b5780633e413bee146112385780633f4ba83a146111d15780634842855c146111975780635c975abb14611174578063683131c9146111025780636c24a76f146110c35780636e07302b1461109957806371ccd3fc14610f695780637351303414610f105780637843bc7814610ef257806381c311b514610e51578063823e32dc14610e365780638456cb5914610dde57806384b0196e14610cc0578063896260ff14610a1857806391d14854146109d55780639ae697bf1461099e5780639b745aec146108f1578063a217fddf146108d7578063a47b81d8146108ba578063b65ab95214610883578063b6b55f25146107ab578063ba9cf01d14610771578063c109a6dc1461073a578063c28f7c3b1461065b578063c718fa28146104e2578063d547741f146104a7578063d789760e146104895763e193baf1146101ed575f80fd5b346104685760603660031901126104685767ffffffffffffffff82358181116104685761021d903690850161191d565b939060249060243584811161046857610239903690850161191d565b909460443590811161046857610252903690860161191d565b919061025c611bb6565b610264611a4f565b81891480159061047f575b61046c5795939291905f965f955b8a8710610356578a8a8a8a5f82131561030e57600954908282106102f35750906102c9817f869a5a1e0f42c8b8c4b47ba63013d41f62e7df95db4fed575851496d88a1899695936119a0565b6009555b82519182526020820152a16102e0611b1a565b60015f8051602061220783398151915255005b925163344a6cf960e11b815292830152602482015260449150fd5b5091825f7f869a5a1e0f42c8b8c4b47ba63013d41f62e7df95db4fed575851496d88a189969412156102cd5761034e61034682611a3f565b60095461194e565b6009556102cd565b90919293949597610368898c88611a1b565b356001600160a01b0381169190829003610468576103878a8685611a1b565b35916103948b8887611a1b565b35610424575b5f8313156103f0575f52886020528a5f206103b683825461194e565b90555b5f82820192831291129080158216911516176103de579760010195949392919061027d565b86601189634e487b7160e01b5f52525ffd5b5f83126103fe575b506103b9565b61040783611a3f565b905f528960205261041c8c5f209182546119a0565b90555f6103f8565b61042f8b8887611a1b565b35815f5260056020526104468d5f209182546119a0565b90556104538b8887611a1b565b35610461600d9182546119a0565b905561039a565b5f80fd5b87516001621398b960e31b031981528690fd5b508289141561026f565b5034610468575f36600319011261046857602090600b549051908152f35b50346104685780600319360112610468576104e091356104db60016104ca6118b3565b93835f525f6020525f200154611c2f565b611de6565b005b509034610468575f366003190112610468576104fc611a4f565b335f526007602052815f20908154908115801561064d575b61063f5760018301546078810180911161062c578042106106105750335f528060205261054d845f20546005602052855f2054906119a0565b8281106105f5575060028301600160ff19825416179055335f52602052610578835f209182546119a0565b90556105878154600c546119a0565b600c556105b68154337f0000000000000000000000000000000000000000000000000000000000000000611a9c565b5490519081527fa7eb721bb005207aa47121ca07e02302abe41ffb50a0b8333e9a820c543e792160203392a260015f8051602061220783398151915255005b91604492855192631fffa68760e31b84528301526024820152fd5b845163e58369d160e01b81529182015242602482015260449150fd5b601182634e487b7160e01b5f525260245ffd5b8351633c22193360e01b8152fd5b5060ff600284015416610514565b5034610468575f36600319011261046857335f5281602052805f20541561072d57805181810181811067ffffffffffffffff82111761071a57906106cc918352428152600160208201818152335f526008602052845f209251835551151591019060ff801983541691151516179055565b62093a804201918242116107075750519081527f60c41b507240bd5335e85fb7ffc69dcef02f56ccfb1861d2334c43198039042960203392a2005b601190634e487b7160e01b5f525260245ffd5b604184634e487b7160e01b5f525260245ffd5b51636165515360e11b8152fd5b5034610468576020366003190112610468576020906001600160a01b0361075f61189d565b165f52600a8252805f20549051908152f35b5034610468575f36600319011261046857602090517f300f9ae985dc711960f7a4d1dd013f9c19ecf40bff149522ab7523b2187a38468152f35b5034610468576020366003190112610468578135916107c8611a4f565b6107d0611a7e565b821561087557907f73a19dd210f1a7f902193214c0ee91dd35ee5b4d920cba8d519eca65a7b488ca916108258430337f0000000000000000000000000000000000000000000000000000000000000000611e58565b335f5280602052815f2061083a85825461194e565b905561084884600c5461194e565b600c55335f52602052805f2054815193845260208401523392a260015f8051602061220783398151915255005b9051631f2a200560e01b8152fd5b5034610468576020366003190112610468576020906001600160a01b036108a861189d565b165f5260068252805f20549051908152f35b5034610468575f366003190112610468576020905162093a808152f35b5034610468575f36600319011261046857602090515f8152f35b5034610468575f3660031901126104685780516370a0823160e01b815230928101929092526020826024817f00000000000000000000000000000000000000000000000000000000000000006001600160a01b03165afa908115610995575f91610960575b6020925051908152f35b90506020823d60201161098d575b8161097b602093836119f9565b81010312610468576020915190610956565b3d915061096e565b513d5f823e3d90fd5b5034610468576020366003190112610468576020906001600160a01b036109c361189d565b165f5260058252805f20549051908152f35b50346104685780600319360112610468576020916109f16118b3565b90355f525f8352815f209060018060a01b03165f52825260ff815f20541690519015158152f35b5034610468576060366003190112610468578135906024928335906044359067ffffffffffffffff9182811161046857366023820112156104685780820135928311610468573687848301011161046857610a71611a4f565b610a79611a7e565b8515610cb157834211610c9557335f52602092828452610aa4865f205460058652875f2054906119a0565b878110610c7a5750335f5260068452855f20948554955f198714610c6857915f8660428a8c610b799896610b709860018e019055825191858301937fda40a6482159d61a0641c1dc92488212a1a0fc874947c528e5cf14b6f487fd328552339084015260608301528c608083015260a082015260a08152610b24816119ad565b519020610b2f611ccc565b908c519161190160f01b8352600283015260228201522092808d8c5196610b5f85601f19601f86011601896119f9565b8288520183870137840101526120bc565b909291926120f6565b7fac4f1890dc96c9a02330d1fa696648a38f3b282d2449c2d8e6f10507488c84c85f9081528084528581206001600160a01b039092168082529184528590205460ff1615610c5357507f04d9bd125a1c65c0e9f8e496aa112356bf7a4283981776421745deda9194c7c1949550335f528152825f20610bf98682546119a0565b9055610c0785600c546119a0565b600c55610c3585337f0000000000000000000000000000000000000000000000000000000000000000611a9c565b82519485528401523392a260015f8051602061220783398151915255005b8451636fdaa90b60e11b815291820152859150fd5b89601186634e487b7160e01b5f52525ffd5b83888a6044938a5193631fffa68760e31b8552840152820152fd5b8451630f88f04960e41b81528083018590524281890152604490fd5b508351631f2a200560e01b8152fd5b509034610468575f36600319011261046857610cfb7f0000000000000000000000000000000000000000000000000000000000000000611ec2565b91610d257f0000000000000000000000000000000000000000000000000000000000000000611fe9565b815191602091602084019484861067ffffffffffffffff871117610dcb5750610d808260209287610d7399989795525f85528151988998600f60f81b8a5260e0868b015260e08a01906118df565b91888303908901526118df565b914660608701523060808701525f60a087015285830360c087015251918281520192915f5b828110610db457505050500390f35b835185528695509381019392810192600101610da5565b604190634e487b7160e01b5f525260245ffd5b5034610468575f3660031901126104685760207f62e78cea01bee320cd4e420270b5ea74000d11b0c9f74754ebdbfc544b05a25891610e1b611b60565b610e23611a7e565b600160ff198154161760015551338152a1005b5034610468575f366003190112610468576020905160788152f35b503461046857602036600319011261046857610e6b61189d565b6001600160a01b03165f9081526008602052818120600181015460ff169290829084610ea8575b5060609450815193151584526020840152820152f35b5462093a808101935083109050610edf576060935081428111610ecf57505f5b915f610e92565b610eda9042906119a0565b610ec8565b601184634e487b7160e01b5f525260245ffd5b5034610468575f36600319011261046857602090600c549051908152f35b5034610468578060031936011261046857610f6490610f2d61189d565b9060243591610f3a611bb6565b6001600160a01b03165f9081526005602052208054610f5a90839061194e565b9055600d5461194e565b600d55005b503461046857610f78366118c9565b610f83929192611a4f565b610f8b611a7e565b821561108957610fbd8330337f0000000000000000000000000000000000000000000000000000000000000000611e58565b600b548015801561107f575b15611063575082905b8082106110485750907f68110eff112678c2b41e26b6f6fb09e80adcf42e4c096268137d5633787b071591335f52600a602052815f2061101382825461194e565b905561102181600b5461194e565b600b556110308460095461194e565b600955815193845260208401523392a26102e0611b1a565b849160449351926371c4efed60e01b84528301526024820152fd5b611070611079918561196f565b60095490611982565b90610fd2565b5060095415610fc9565b8151631f2a200560e01b81528490fd5b5034610468575f366003190112610468576020906110bc600c546009549061194e565b9051908152f35b5034610468576020366003190112610468576020916001600160a01b036110e861189d565b165f5282526110bc815f205460058452825f2054906119a0565b5034610468575f36600319011261046857335f52600860205260ff6001825f200154161561116757600190335f5260086020525f200160ff198154169055337f44cb2a36024a22011b0211a2cb0cc34529170bacdcdb6c2f673f4a482af74ad25f80a2005b51633c22193360e01b8152fd5b5034610468575f3660031901126104685760209060ff6001541690519015158152f35b5034610468575f36600319011261046857602090517fac4f1890dc96c9a02330d1fa696648a38f3b282d2449c2d8e6f10507488c84c88152f35b5034610468575f366003190112610468576111ea611b60565b6001549160ff83161561122a577f5db9ee0a495bf2e6ff9c91a7834c1ba4fdd244a5e8aa4e537bd38aeae4b073aa6020838560ff191660015551338152a1005b9051638dfc202b60e01b8152fd5b5034610468575f36600319011261046857517f00000000000000000000000000000000000000000000000000000000000000006001600160a01b03168152602090f35b5034610468575f366003190112610468576020906009549051908152f35b50346104685780600319360112610468576112b26118b3565b90336001600160a01b038316036112ce57506104e09135611de6565b5163334bd91960e11b81529050fd5b5034610468575f366003190112610468576020906110bc611ccc565b5034610468576020908160031936011261046857823591611318611a4f565b611320611a7e565b821561108957335f52838152611341825f205460058352835f2054906119a0565b8381106114525750335f5260078152815f20805415159081611442575b506114325781516060810181811067ffffffffffffffff82111761141f57906113bf9184528481526002838201428152858301905f8252335f5260078652865f209351845551600184015551151591019060ff801983541691151516179055565b607842019081421161140c5782519384528301523392507f0b4c02ab9faddfa538d3f083bf6ce824d8c921a45bfd28b8ffafcb0f1a8e1c2391a260015f8051602061220783398151915255005b601185634e487b7160e01b5f525260245ffd5b604186634e487b7160e01b5f525260245ffd5b8151633b83c1e760e01b81528490fd5b60ff91506002015416155f61135e565b8484604492855192631fffa68760e31b84528301526024820152fd5b50346104685780600319360112610468576104e0913561149160016104ca6118b3565b611c50565b5034610468575f36600319011261046857602090600d549051908152f35b5034610468575f366003190112610468576114cd611a4f565b335f52602060088152815f2091600183019260ff845416156115f9575462093a80810180911161140c578042106115dd5750335f52838252805f20549283156115cd577f2e39961a70a10f4d46383948095ac2752b3ee642a7c76aa827410aaff08c2e519394335f5260058452825f20549084525f83812055600584525f8381205561155b86600c546119a0565b600c55600d5490808210156115ba575b5050805460ff191690556115a084337f0000000000000000000000000000000000000000000000000000000000000000611a9c565b519283523392a260015f8051602061220783398151915255005b6115c3916119a0565b600d555f8061156b565b8151636165515360e11b81528590fd5b8490604492519163e58369d160e01b8352820152426024820152fd5b8151633c22193360e01b81528590fd5b5034610468576020366003190112610468576020916001600160a01b0361162e61189d565b165f528252805f20549051908152f35b50346104685761164d366118c9565b92611656611a4f565b61165e611a7e565b81158015611750575b6117425761168361167a6009548461196f565b600b5490611982565b9380851061172557847f86ef7829731d23705c76edb615e2feb99fd3832d911fd10bfca814e3729255238585335f52600a602052815f206116c58282546119a0565b90556116d381600b546119a0565b600b556116e2846009546119a0565b60095561171084337f0000000000000000000000000000000000000000000000000000000000000000611a9c565b815193845260208401523392a26102e0611b1a565b83516371c4efed60e01b8152918201859052602482015260449150fd5b8251636edcc52360e01b8152fd5b50335f52600a60205281835f205410611667565b503461046857602036600319011261046857602091355f525f82526001815f2001549051908152f35b5034610468575f36600319011261046857602090517fda40a6482159d61a0641c1dc92488212a1a0fc874947c528e5cf14b6f487fd328152f35b5034610468576020366003190112610468576001600160a01b036117e961189d565b165f526007602052805f209081549160018101546078810180911161140c5760609450831515918261183b575b508161182f575b82519384526020840152151590820152f35b8091504210159061181d565b6002015460ff161591505f611816565b833461046857602036600319011261046857359063ffffffff60e01b821680920361046857602091637965db0b60e01b811490811561188c575b5015158152f35b6301ffc9a760e01b14905083611885565b600435906001600160a01b038216820361046857565b602435906001600160a01b038216820361046857565b6040906003190112610468576004359060243590565b91908251928382525f5b848110611909575050825f602080949584010152601f8019910116010190565b6020818301810151848301820152016118e9565b9181601f840112156104685782359167ffffffffffffffff8311610468576020808501948460051b01011161046857565b9190820180921161195b57565b634e487b7160e01b5f52601160045260245ffd5b8181029291811591840414171561195b57565b811561198c570490565b634e487b7160e01b5f52601260045260245ffd5b9190820391821161195b57565b60c0810190811067ffffffffffffffff8211176119c957604052565b634e487b7160e01b5f52604160045260245ffd5b6040810190811067ffffffffffffffff8211176119c957604052565b90601f8019910116810190811067ffffffffffffffff8211176119c957604052565b9190811015611a2b5760051b0190565b634e487b7160e01b5f52603260045260245ffd5b600160ff1b811461195b575f0390565b5f805160206122078339815191526002815414611a6c5760029055565b604051633ee5aeb560e01b8152600490fd5b60ff60015416611a8a57565b60405163d93c066560e01b8152600490fd5b60405163a9059cbb60e01b5f9081526001600160a01b039384166004526024949094529260209060448180855af160015f5114811615611afb575b8360405215611ae557505050565b635274afe760e01b835216600482015260249150fd5b6001811516611b1157813b15153d151616611ad7565b833d5f823e3d90fd5b7f08b678bd788cc4e1cc8fe3fe18b923da10961eaaf221a45822749587c9828cf26080600954600c54600d549060405192835260208301526040820152426060820152a1565b335f9081527fad3228b676f7d3cd4284a5443f17f1962b36e491b30a40b2405849e597ba5fb5602052604090205460ff1615611b9857565b60405163e2517d3f60e01b81523360048201525f6024820152604490fd5b335f9081527fdd53df7e4642f4e3d9dededdac02355f2e876e2a9b7ef4e260af8d6fd7b3325760205260409020547f300f9ae985dc711960f7a4d1dd013f9c19ecf40bff149522ab7523b2187a38469060ff1615611c115750565b6044906040519063e2517d3f60e01b82523360048301526024820152fd5b805f525f60205260405f20335f5260205260ff60405f20541615611c115750565b90815f525f60205260405f209060018060a01b031690815f5260205260ff60405f205416155f14611cc657815f525f60205260405f20815f5260205260405f20600160ff1982541617905533917f2f8788117e7eff1d82e926ec794901d17c78024a50270940304540a733656f0d5f80a4600190565b50505f90565b307f00000000000000000000000000000000000000000000000000000000000000006001600160a01b03161480611dbd575b15611d27577f000000000000000000000000000000000000000000000000000000000000000090565b60405160208101907f8b73c3c69bb8fe3d512ecc4cf759cc79239f7b179b0ffacaa9a75d522b39400f82527f000000000000000000000000000000000000000000000000000000000000000060408201527f000000000000000000000000000000000000000000000000000000000000000060608201524660808201523060a082015260a08152611db7816119ad565b51902090565b507f00000000000000000000000000000000000000000000000000000000000000004614611cfe565b90815f525f60205260405f209060018060a01b031690815f5260205260ff60405f2054165f14611cc657815f525f60205260405f20815f5260205260405f2060ff19815416905533917ff6391f5c32d9c69d2a47ea670b442974b53935d1edc7fd64eb21e047a839171b5f80a4600190565b6040516323b872dd60e01b5f9081526001600160a01b03938416600452938316602452604494909452909160209060648180855af160015f5114811615611eac575b836040525f60605215611ae557505050565b6001811516611b1157813b15153d151616611e9a565b60ff8114611f005760ff811690601f8211611eee5760405191611ee4836119dd565b8252602082015290565b604051632cd44ac360e21b8152600490fd5b506040515f600254906001908260011c60018416928315611fdf575b6020948583108514611fcb578287528694908115611fab5750600114611f4e575b5050611f4b925003826119f9565b90565b9093915060025f527f405787fa12a823e0f2b7631cc41b3ba8828b3321ca811111fa75cd3aa3bb5ace935f915b818310611f93575050611f4b93508201015f80611f3d565b85548784018501529485019486945091830191611f7b565b915050611f4b94925060ff191682840152151560051b8201015f80611f3d565b634e487b7160e01b5f52602260045260245ffd5b90607f1690611f1c565b60ff811461200b5760ff811690601f8211611eee5760405191611ee4836119dd565b506040515f600354906001908260011c600184169283156120b2575b6020948583108514611fcb578287528694908115611fab5750600114612055575050611f4b925003826119f9565b9093915060035f527fc2575a0e9e593c00f959f8c92f12db2869c3395a3b0502d05e2516446f71f85b935f915b81831061209a575050611f4b93508201015f80611f3d565b85548784018501529485019486945091830191612082565b90607f1690612027565b81519190604183036120ec576120e59250602082015190606060408401519301515f1a90612179565b9192909190565b50505f9160029190565b60048110156121655780612108575050565b600181036121225760405163f645eedf60e01b8152600490fd5b600281036121435760405163fce698f760e01b815260048101839052602490fd5b60031461214d5750565b602490604051906335e2f38360e21b82526004820152fd5b634e487b7160e01b5f52602160045260245ffd5b91907f7fffffffffffffffffffffffffffffff5d576e7357a4501ddfe92f46681b20a084116121fb579160209360809260ff5f9560405194855216868401526040830152606082015282805260015afa156121f0575f516001600160a01b038116156121e657905f905f90565b505f906001905f90565b6040513d5f823e3d90fd5b5050505f916003919056fe9b779b17422d0df92223018b32b4d1fa46e071723d6817e2486d003becc55f00a2646970667358221220b2b75f2665098552cde4102e382bc6e77a50209ba2d713bb17bac27f57c72d4f64736f6c63430008180033ad3228b676f7d3cd4284a5443f17f1962b36e491b30a40b2405849e597ba5fb5","linkReferences":{}},"methodIdentifiers":{"DEFAULT_ADMIN_ROLE()":"a217fddf","DOMAIN_SEPARATOR()":"3644e515","EMERGENCY_WITHDRAW_DELAY()":"a47b81d8","FAST_WITHDRAW_TYPEHASH()":"2346129b","SEQUENCER_ROLE()":"4842855c","SETTLEMENT_ROLE()":"ba9cf01d","SLOW_WITHDRAW_DELAY()":"823e32dc","balances(address)":"27e235e3","cancelEmergencyWithdraw()":"683131c9","deposit(uint256)":"b6b55f25","eip712Domain()":"84b0196e","executeEmergencyWithdraw()":"2a8821cc","executeSlowWithdraw()":"c718fa28","fastWithdraw(uint256,uint256,bytes)":"896260ff","fastWithdrawNonce(address)":"b65ab952","getAvailableBalance(address)":"6c24a76f","getAvailableLiquidity()":"9b745aec","getEmergencyStatus(address)":"81c311b5","getRoleAdmin(bytes32)":"248a9ca3","getSlowWithdrawStatus(address)":"16df931a","getTotalAssets()":"6e07302b","grantRole(bytes32,address)":"2f2ff15d","hasRole(bytes32,address)":"91d14854","lockedBalance(address)":"9ae697bf","lpDeposit(uint256,uint256)":"71ccd3fc","lpPool()":"3737bcb4","lpShares(address)":"c109a6dc","lpWithdraw(uint256,uint256)":"26bef9e7","pause()":"8456cb59","paused()":"5c975abb","renounceRole(bytes32,address)":"36568abe","requestEmergencyWithdraw()":"c28f7c3b","requestSlowWithdraw(uint256)":"31a74382","revokeRole(bytes32,address)":"d547741f","settleBalances(address[],int256[],uint256[])":"e193baf1","supportsInterface(bytes4)":"01ffc9a7","totalLPShares()":"d789760e","totalLockedBalance()":"2d98ac5e","totalUserDeposits()":"7843bc78","unpause()":"3f4ba83a","updateLockedBalance(address,uint256)":"73513034","usdc()":"3e413bee"},"id":55}