{"abi":[{"type":"constructor","inputs":[{"name":"_originChainId","type":"uint256","internalType":"uint256"},{"name":"_lockBox","type":"address","internalType":"address"},{"name":"_destinationChainId","type":"uint256","internalType":"uint256"},{"name":"_vault","type":"address","internalType":"address"}],"stateMutability":"nonpayable"},{"type":"function","name":"destinationChainId","inputs":[],"outputs":[{"name":"","type":"uint256","internalType":"uint256"}],"stateMutability":"view"},{"type":"function","name":"lockBox","inputs":[],"outputs":[{"name":"","type":"address","internalType":"address"}],"stateMutability":"view"},{"type":"function","name":"originChainId","inputs":[],"outputs":[{"name":"","type":"uint256","internalType":"uint256"}],"stateMutability":"view"},{"type":"function","name":"processedDeposits","inputs":[{"name":"","type":"bytes32","internalType":"bytes32"}],"outputs":[{"name":"","type":"bool","internalType":"bool"}],"stateMutability":"view"},{"type":"function","name":"react","inputs":[{"name":"chain_id","type":"uint256","internalType":"uint256"},{"name":"_contract","type":"address","internalType":"address"},{"name":"topic_0","type":"uint256","internalType":"uint256"},{"name":"topic_1","type":"uint256","internalType":"uint256"},{"name":"topic_2","type":"uint256","internalType":"uint256"},{"name":"topic_3","type":"uint256","internalType":"uint256"},{"name":"data","type":"bytes","internalType":"bytes"},{"name":"","type":"uint256","internalType":"uint256"},{"name":"","type":"uint256","internalType":"uint256"}],"outputs":[],"stateMutability":"nonpayable"},{"type":"function","name":"vault","inputs":[],"outputs":[{"name":"","type":"address","internalType":"address"}],"stateMutability":"view"},{"type":"event","name":"Callback","inputs":[{"name":"chain_id","type":"uint256","indexed":true,"internalType":"uint256"},{"name":"_contract","type":"address","indexed":true,"internalType":"address"},{"name":"gas_limit","type":"uint64","indexed":false,"internalType":"uint64"},{"name":"payload","type":"bytes","indexed":false,"internalType":"bytes"}],"anonymous":false},{"type":"event","name":"DepositRouted","inputs":[{"name":"depositId","type":"bytes32","indexed":true,"internalType":"bytes32"},{"name":"receiver","type":"address","indexed":true,"internalType":"address"},{"name":"amount","type":"uint256","indexed":false,"internalType":"uint256"}],"anonymous":false},{"type":"error","name":"DepositAlreadyProcessed","inputs":[{"name":"depositId","type":"bytes32","internalType":"bytes32"}]},{"type":"error","name":"UnexpectedOrigin","inputs":[{"name":"chainId","type":"uint256","internalType":"uint256"},{"name":"origin","type":"address","internalType":"address"}]}],"bytecode":{"object":"0x6101203461019357601f61063738819003918201601f19168301916001600160401b0391828411858510176101755781608092869260409687528339810103126101935782519061005260208501610197565b916100636060858701519601610197565b948160a0528360c05260e0526101009485527fe3ad398758b9cbdf4196c5d060a1aebae967b4f9115c7394e937cbb46f449587928360805262ffffff803b15610193575f928360c492885197889586946305a6aced60e41b8652600486015260018060a01b0316602485015260448401527fa65f96fc951c35ead38571571f4a9a0b86a2b6ad1deb82e83495b96bf3c15b4080606485015280608485015260a48401525af1801561018957610166575b50505161048b91826101ac83396080518261023d015260a0518281816101e0015261020c015260c05182818160f4015261042c015260e05182818160bd015261037a015251818181607301526103570152f35b81116101755781525f80610113565b634e487b7160e01b5f52604160045260245ffd5b83513d5f823e3d90fd5b5f80fd5b51906001600160a01b03821682036101935756fe60806040908082526004361015610014575f80fd5b5f3560e01c9081630ac7f561146101cb5750806340c5faf01461019e5780634190e48f146101235780635d19b0d1146100e0578063b0750611146100a65763fbfa77cf14610060575f80fd5b346100a2575f3660031901126100a257517f00000000000000000000000000000000000000000000000000000000000000006001600160a01b03168152602090f35b5f80fd5b50346100a2575f3660031901126100a257602090517f00000000000000000000000000000000000000000000000000000000000000008152f35b50346100a2575f3660031901126100a257517f00000000000000000000000000000000000000000000000000000000000000006001600160a01b03168152602090f35b346100a2576101203660031901126100a2576024356001600160a01b03811681036100a25760c4359067ffffffffffffffff908183116100a257366023840112156100a25782600401359182116100a25736602483850101116100a257602461019c93019060a435906064359060443590600435610203565b005b50346100a25760203660031901126100a2576020906004355f525f825260ff815f20541690519015158152f35b346100a2575f3660031901126100a2576020907f00000000000000000000000000000000000000000000000000000000000000008152f35b909695949293967f0000000000000000000000000000000000000000000000000000000000000000821480159061041e575b6103f55750507f0000000000000000000000000000000000000000000000000000000000000000036103ee576001600160a01b039485169260409190810181900382136100a25735825f526020915f835260ff815f2054166103d757835f525f8352805f20600160ff1982541617905580516303ba3eed60e11b848201528460248201528560448201528260648201526064815260a081019781891067ffffffffffffffff8a11176103c357888352620f424089528260c08301528151908160e08401525f5b8281106103ae57507f07d0577c4c7ec4d18670aa425a55fd8ced7c645f4fc6bcc0b10aa4b13977041c9697989960607f8dd725fa9d6cd150017ab9e60318d40616439424e2fade9c1c58854950917dfc925f61010086880101527f000000000000000000000000000000000000000000000000000000000000000016947f000000000000000000000000000000000000000000000000000000000000000094601f80199101168101030190a351908152a3565b808791850161010083820151910152016102fb565b634e487b7160e01b5f52604160045260245ffd5b516307e3f65960e31b815260048101849052602490fd5b5050509050565b6040516332744e4360e01b815260048101929092526001600160a01b0316602482015260449150fd5b506001600160a01b038181167f0000000000000000000000000000000000000000000000000000000000000000909116141561023556fea26469706673582212209446022644bdf6a99f6c91aa2317710f24bedc35391168f018dfe745efc5859064736f6c63430008180033","linkReferences":{}},"methodIdentifiers":{"destinationChainId()":"b0750611","lockBox()":"5d19b0d1","originChainId()":"0ac7f561","processedDeposits(bytes32)":"40c5faf0","react(uint256,address,uint256,uint256,uint256,uint256,bytes,uint256,uint256)":"4190e48f","vault()":"fbfa77cf"},"id":60}