{"abi":[{"type":"function","name":"DOMAIN_TYPEHASH","inputs":[],"outputs":[{"name":"","type":"bytes32","internalType":"bytes32"}],"stateMutability":"view"},{"type":"function","name":"EMERGENCY_DELAY","inputs":[],"outputs":[{"name":"","type":"uint64","internalType":"uint64"}],"stateMutability":"view"},{"type":"function","name":"EXECUTE_TYPEHASH","inputs":[],"outputs":[{"name":"","type":"bytes32","internalType":"bytes32"}],"stateMutability":"view"},{"type":"function","name":"MAX_SESSION_KEY_DURATION","inputs":[],"outputs":[{"name":"","type":"uint64","internalType":"uint64"}],"stateMutability":"view"},{"type":"function","name":"authorizeSessionKey","inputs":[{"name":"key","type":"address","internalType":"address"},{"name":"expiry","type":"uint64","internalType":"uint64"},{"name":"permissions","type":"uint64","internalType":"uint64"},{"name":"spendingLimit","type":"uint128","internalType":"uint128"}],"outputs":[],"stateMutability":"nonpayable"},{"type":"function","name":"cancelEmergencyWithdraw","inputs":[],"outputs":[],"stateMutability":"nonpayable"},{"type":"function","name":"deposit","inputs":[{"name":"amount","type":"uint256","internalType":"uint256"}],"outputs":[],"stateMutability":"nonpayable"},{"type":"function","name":"depositBalance","inputs":[],"outputs":[{"name":"","type":"uint256","internalType":"uint256"}],"stateMutability":"view"},{"type":"function","name":"emergencyTimeRemaining","inputs":[],"outputs":[{"name":"","type":"uint256","internalType":"uint256"}],"stateMutability":"view"},{"type":"function","name":"executeEmergencyWithdraw","inputs":[],"outputs":[],"stateMutability":"nonpayable"},{"type":"function","name":"executeWithSessionKey","inputs":[{"name":"target","type":"address","internalType":"address"},{"name":"data","type":"bytes","internalType":"bytes"},{"name":"value","type":"uint256","internalType":"uint256"},{"name":"sessionKey","type":"address","internalType":"address"},{"name":"signature","type":"bytes","internalType":"bytes"}],"outputs":[{"name":"","type":"bytes","internalType":"bytes"}],"stateMutability":"nonpayable"},{"type":"function","name":"getNonce","inputs":[{"name":"key","type":"address","internalType":"address"}],"outputs":[{"name":"","type":"uint256","internalType":"uint256"}],"stateMutability":"view"},{"type":"function","name":"getSessionKey","inputs":[{"name":"key","type":"address","internalType":"address"}],"outputs":[{"name":"","type":"tuple","internalType":"struct IUserProxyWallet.SessionKeyData","components":[{"name":"expiry","type":"uint64","internalType":"uint64"},{"name":"permissions","type":"uint64","internalType":"uint64"},{"name":"spendingLimit","type":"uint128","internalType":"uint128"},{"name":"totalSpent","type":"uint128","internalType":"uint128"}]}],"stateMutability":"view"},{"type":"function","name":"getUSDCBalance","inputs":[],"outputs":[{"name":"","type":"uint256","internalType":"uint256"}],"stateMutability":"view"},{"type":"function","name":"initialize","inputs":[{"name":"owner_","type":"address","internalType":"address"},{"name":"vault_","type":"address","internalType":"address"},{"name":"tradingEngine_","type":"address","internalType":"address"},{"name":"usdc_","type":"address","internalType":"address"}],"outputs":[],"stateMutability":"nonpayable"},{"type":"function","name":"isEmergencyPending","inputs":[],"outputs":[{"name":"","type":"bool","internalType":"bool"}],"stateMutability":"view"},{"type":"function","name":"isSessionKeyValid","inputs":[{"name":"key","type":"address","internalType":"address"}],"outputs":[{"name":"","type":"bool","internalType":"bool"}],"stateMutability":"view"},{"type":"function","name":"owner","inputs":[],"outputs":[{"name":"","type":"address","internalType":"address"}],"stateMutability":"view"},{"type":"function","name":"requestEmergencyWithdraw","inputs":[],"outputs":[],"stateMutability":"nonpayable"},{"type":"function","name":"revokeSessionKey","inputs":[{"name":"key","type":"address","internalType":"address"}],"outputs":[],"stateMutability":"nonpayable"},{"type":"function","name":"withdraw","inputs":[{"name":"amount","type":"uint256","internalType":"uint256"}],"outputs":[],"stateMutability":"nonpayable"},{"type":"event","name":"Deposited","inputs":[{"name":"user","type":"address","indexed":true,"internalType":"address"},{"name":"amount","type":"uint256","indexed":false,"internalType":"uint256"},{"name":"newBalance","type":"uint256","indexed":false,"internalType":"uint256"}],"anonymous":false},{"type":"event","name":"EmergencyWithdrawCancelled","inputs":[],"anonymous":false},{"type":"event","name":"EmergencyWithdrawExecuted","inputs":[{"name":"amount","type":"uint256","indexed":false,"internalType":"uint256"}],"anonymous":false},{"type":"event","name":"EmergencyWithdrawRequested","inputs":[{"name":"amount","type":"uint256","indexed":false,"internalType":"uint256"},{"name":"executeAfter","type":"uint64","indexed":false,"internalType":"uint64"}],"anonymous":false},{"type":"event","name":"Initialized","inputs":[{"name":"owner","type":"address","indexed":true,"internalType":"address"},{"name":"vault","type":"address","indexed":false,"internalType":"address"},{"name":"tradingEngine","type":"address","indexed":false,"internalType":"address"}],"anonymous":false},{"type":"event","name":"SessionKeyAuthorized","inputs":[{"name":"key","type":"address","indexed":true,"internalType":"address"},{"name":"expiry","type":"uint64","indexed":false,"internalType":"uint64"},{"name":"permissions","type":"uint64","indexed":false,"internalType":"uint64"}],"anonymous":false},{"type":"event","name":"SessionKeyRevoked","inputs":[{"name":"key","type":"address","indexed":true,"internalType":"address"}],"anonymous":false},{"type":"event","name":"SessionKeyUsed","inputs":[{"name":"key","type":"address","indexed":true,"internalType":"address"},{"name":"selector","type":"bytes4","indexed":false,"internalType":"bytes4"},{"name":"value","type":"uint256","indexed":false,"internalType":"uint256"}],"anonymous":false},{"type":"event","name":"Withdrawn","inputs":[{"name":"user","type":"address","indexed":true,"internalType":"address"},{"name":"amount","type":"uint256","indexed":false,"internalType":"uint256"},{"name":"newBalance","type":"uint256","indexed":false,"internalType":"uint256"}],"anonymous":false},{"type":"error","name":"AlreadyInitialized","inputs":[]},{"type":"error","name":"ECDSAInvalidSignature","inputs":[]},{"type":"error","name":"ECDSAInvalidSignatureLength","inputs":[{"name":"length","type":"uint256","internalType":"uint256"}]},{"type":"error","name":"ECDSAInvalidSignatureS","inputs":[{"name":"s","type":"bytes32","internalType":"bytes32"}]},{"type":"error","name":"EmergencyDelayNotPassed","inputs":[{"name":"executeAfter","type":"uint64","internalType":"uint64"},{"name":"currentTime","type":"uint64","internalType":"uint64"}]},{"type":"error","name":"InsufficientBalance","inputs":[{"name":"available","type":"uint256","internalType":"uint256"},{"name":"requested","type":"uint256","internalType":"uint256"}]},{"type":"error","name":"InsufficientPermission","inputs":[{"name":"required","type":"uint64","internalType":"uint64"},{"name":"actual","type":"uint64","internalType":"uint64"}]},{"type":"error","name":"InvalidSessionKey","inputs":[{"name":"key","type":"address","internalType":"address"}]},{"type":"error","name":"InvalidSignature","inputs":[]},{"type":"error","name":"NoEmergencyRequest","inputs":[]},{"type":"error","name":"NotInitialized","inputs":[]},{"type":"error","name":"NotOwner","inputs":[{"name":"caller","type":"address","internalType":"address"}]},{"type":"error","name":"ReentrancyGuardReentrantCall","inputs":[]},{"type":"error","name":"SafeERC20FailedOperation","inputs":[{"name":"token","type":"address","internalType":"address"}]},{"type":"error","name":"SessionKeyExpired","inputs":[{"name":"key","type":"address","internalType":"address"}]},{"type":"error","name":"SpendingLimitExceeded","inputs":[{"name":"limit","type":"uint128","internalType":"uint128"},{"name":"requested","type":"uint128","internalType":"uint128"}]},{"type":"error","name":"ZeroAddress","inputs":[]},{"type":"error","name":"ZeroAmount","inputs":[]}],"bytecode":{"object":"0x608060405234801561001057600080fd5b5060017f9b779b17422d0df92223018b32b4d1fa46e071723d6817e2486d003becc55f0055611e2d806100446000396000f3fe608060405234801561001057600080fd5b50600436106101375760003560e01c8063683131c9116100b8578063b6b55f251161007c578063b6b55f2514610372578063c28f7c3b14610385578063e91d62351461038d578063ea53b193146103a0578063eed63dfb146103aa578063f8c8765e146103bd57600080fd5b8063683131c9146102325780637a3644611461023a57806382944e2d1461032257806384f4fc6a146103445780638da5cb5b1461035757600080fd5b80633cfd1ccc116100ff5780633cfd1ccc146101c45780634f253653146101cc578063507c4f6a146101ec57806360d2f33d1461020b57806361bc1a49146101c457600080fd5b8063082d3f841461013c57806320606b70146101575780632a8821cc1461017e5780632d0335ab146101885780632e1a7d4d146101b1575b600080fd5b6101446103d0565b6040519081526020015b60405180910390f35b6101447f8b73c3c69bb8fe3d512ecc4cf759cc79239f7b179b0ffacaa9a75d522b39400f81565b610186610444565b005b610144610196366004611a79565b6001600160a01b031660009081526006602052604090205490565b6101866101bf366004611a94565b610672565b610144610872565b6101df6101da366004611af5565b6108e4565b60405161014e9190611b92565b6005546001600160401b031615155b604051901515815260200161014e565b6101447fac12aa2245bd3c71086d6f9c8103d086762f97a6eff99c1ff4a723423ae4a3bd81565b610186610e35565b6102d4610248366004611a79565b604080516080810182526000808252602082018190529181018290526060810191909152506001600160a01b0316600090815260046020908152604091829020825160808101845281546001600160401b038082168352600160401b820416938201939093526001600160801b03600160801b9093048316938101939093526001015416606082015290565b6040805182516001600160401b03908116825260208085015190911690820152828201516001600160801b03908116928201929092526060928301519091169181019190915260800161014e565b61032c62093a8081565b6040516001600160401b03909116815260200161014e565b610186610352366004611a79565b610ef3565b6000546040516001600160a01b03909116815260200161014e565b610186610380366004611a94565b610ff8565b610186611122565b61018661039b366004611bf8565b6112bb565b61032c62278d0081565b6101fb6103b8366004611a79565b61149c565b6101866103cb366004611c5a565b611529565b6005546000906001600160401b031681036103eb5750600090565b6005546000906104089062093a80906001600160401b0316611cc4565b9050806001600160401b0316426001600160401b03161061042b57600091505090565b6104354282611ceb565b6001600160401b031691505090565b6000546001600160a01b031633146104765760405163245aecd360e01b81523360048201526024015b60405180910390fd5b600054600160a01b900460ff166104a0576040516321c4e35760e21b815260040160405180910390fd5b6104a8611686565b604080518082019091526005546001600160401b038116808352600160401b9091046001600160801b031660208301526000036104f857604051639bb6580560e01b815260040160405180910390fd5b805160009061050b9062093a8090611cc4565b9050806001600160401b0316426001600160401b031610156105535760405163547df18360e11b81526001600160401b0380831660048301524216602482015260440161046d565b6003546040516370a0823160e01b81523060048201526000916001600160a01b0316906370a0823190602401602060405180830381865afa15801561059c573d6000803e3d6000fd5b505050506040513d601f19601f820116820180604052508101906105c09190611d0b565b9050600083602001516001600160801b031682106105eb5783602001516001600160801b03166105ed565b815b600580546001600160c01b03191690559050801561062257600054600354610622916001600160a01b039182169116836116a2565b6040518181527fa7d096069a26edbff974ac62b79d901783aa4bd4243483de31bf3ac923e88e599060200160405180910390a1505050506106706001600080516020611dd883398151915255565b565b6000546001600160a01b0316331461069f5760405163245aecd360e01b815233600482015260240161046d565b600054600160a01b900460ff166106c9576040516321c4e35760e21b815260040160405180910390fd5b6106d1611686565b806000036106f257604051631f2a200560e01b815260040160405180910390fd5b6003546040516370a0823160e01b81523060048201526000916001600160a01b0316906370a0823190602401602060405180830381865afa15801561073b573d6000803e3d6000fd5b505050506040513d601f19601f8201168201806040525081019061075f9190611d0b565b90508181101561078c5760405163cf47918160e01b8152600481018290526024810183905260440161046d565b6000546003546107a9916001600160a01b039182169116846116a2565b6000546003546040516370a0823160e01b81523060048201526001600160a01b03928316927f92ccf450a286a957af52509bc1c9939d1a6a481783e142e41e2499f0bb66ebc69286929116906370a0823190602401602060405180830381865afa15801561081b573d6000803e3d6000fd5b505050506040513d601f19601f8201168201806040525081019061083f9190611d0b565b6040805192835260208301919091520160405180910390a25061086f6001600080516020611dd883398151915255565b50565b6003546040516370a0823160e01b81523060048201526000916001600160a01b0316906370a0823190602401602060405180830381865afa1580156108bb573d6000803e3d6000fd5b505050506040513d601f19601f820116820180604052508101906108df9190611d0b565b905090565b600054606090600160a01b900460ff16610911576040516321c4e35760e21b815260040160405180910390fd5b610919611686565b6001600160a01b038416600090815260046020526040902080546001600160401b03161580610954575080546001600160401b034281169116105b1561097d5760405163d3d0f65960e01b81526001600160a01b038616600482015260240161046d565b8515610a0e578054600182015487916001600160801b03600160801b9091048116916109ab91849116611d24565b6001600160801b03161115610a0c57815460018301546001600160801b03600160801b9092048216916109e091849116611d24565b604051634d5b52f760e11b81526001600160801b0392831660048201529116602482015260440161046d565b505b60048710610aad576000610a256004828a8c611d44565b610a2e91611d6e565b90506000610a3b826116dc565b90506001600160401b03811615801590610a6e57508254610a6c90600160401b90046001600160401b0316826116fd565b155b15610aaa578254604051635b0e970d60e01b81526001600160401b038084166004830152600160401b909204909116602482015260440161046d565b50505b6001600160a01b0385166000908152600660205260408082205490519091907fac12aa2245bd3c71086d6f9c8103d086762f97a6eff99c1ff4a723423ae4a3bd908c90610afd908d908d90611d9e565b6040805191829003822060208301949094526001600160a01b03928316908201526060810192909252608082018a9052881660a082015260c0810183905260001960e0820152610100016040516020818303038152906040528051906020012090506000610c09604080517f8b73c3c69bb8fe3d512ecc4cf759cc79239f7b179b0ffacaa9a75d522b39400f60208201527fb331c54e95c839a781b1069c66429229a0c7c79abb83c05ebde1515c2db40cf3918101919091527fc89efdaa54c0f20c7adf612882df0950f5a951637e0307cdcb4c672f298b8bc660608201524660808201523060a082015260009060c00160405160208183030381529060405280519060200120905090565b60405161190160f01b60208201526022810191909152604281018390526062016040516020818303038152906040528051906020012090506000610c838289898080601f01602080910402602001604051908101604052809392919081815260200183838082843760009201919091525061171692505050565b9050886001600160a01b0316816001600160a01b031614610cb757604051638baa579f60e01b815260040160405180910390fd5b610cc2846001611dae565b6001600160a01b038a166000908152600660205260409020558915610d26576001850180548b9190600090610d019084906001600160801b0316611d24565b92506101000a8154816001600160801b0302191690836001600160801b031602179055505b6000808e6001600160a01b03168e8e604051610d43929190611d9e565b6000604051808303816000865af19150503d8060008114610d80576040519150601f19603f3d011682016040523d82523d6000602084013e610d85565b606091505b509150915081610d9757805160208201fd5b8a6001600160a01b03167f36adbc6e29e36eee0bb84ecd8654b705962426ead5e9d794bc9229526dd232708f8f600090600492610dd693929190611d44565b610ddf91611d6e565b8e604051610e039291906001600160e01b0319929092168252602082015260400190565b60405180910390a29650505050505050610e2a6001600080516020611dd883398151915255565b979650505050505050565b6000546001600160a01b03163314610e625760405163245aecd360e01b815233600482015260240161046d565b600054600160a01b900460ff16610e8c576040516321c4e35760e21b815260040160405180910390fd5b6005546001600160401b0316600003610eb857604051639bb6580560e01b815260040160405180910390fd5b600580546001600160c01b03191690556040517f685cb00d0fbd43f182608964bd25c5f94375834a1d827327c90935edf4a14e5d90600090a1565b6000546001600160a01b03163314610f205760405163245aecd360e01b815233600482015260240161046d565b600054600160a01b900460ff16610f4a576040516321c4e35760e21b815260040160405180910390fd5b6001600160a01b0381166000908152600460205260408120546001600160401b03169003610f965760405163d3d0f65960e01b81526001600160a01b038216600482015260240161046d565b6001600160a01b038116600081815260046020908152604080832083815560010180546001600160801b03191690556006909152808220829055517f17c796fb82086b3c9effaec517342e5ca9ed8fd78c339137ec082f748ab60cbe9190a250565b600054600160a01b900460ff16611022576040516321c4e35760e21b815260040160405180910390fd5b61102a611686565b8060000361104b57604051631f2a200560e01b815260040160405180910390fd5b600354611063906001600160a01b0316333084611740565b6003546040516370a0823160e01b815230600482015233917f73a19dd210f1a7f902193214c0ee91dd35ee5b4d920cba8d519eca65a7b488ca9184916001600160a01b0316906370a0823190602401602060405180830381865afa1580156110cf573d6000803e3d6000fd5b505050506040513d601f19601f820116820180604052508101906110f39190611d0b565b6040805192835260208301919091520160405180910390a261086f6001600080516020611dd883398151915255565b6000546001600160a01b0316331461114f5760405163245aecd360e01b815233600482015260240161046d565b600054600160a01b900460ff16611179576040516321c4e35760e21b815260040160405180910390fd5b6003546040516370a0823160e01b81523060048201526000916001600160a01b0316906370a0823190602401602060405180830381865afa1580156111c2573d6000803e3d6000fd5b505050506040513d601f19601f820116820180604052508101906111e69190611d0b565b9050806001600160801b031660000361121257604051631f2a200560e01b815260040160405180910390fd5b60408051808201909152426001600160401b0381168083526001600160801b0384166020909301839052600580546001600160c01b031916909117600160401b909302929092179091557fc06594ee3391aab9a112d05fb8aad90a0d9612242a7c5323be6a3f054dd3dca390829061128e9062093a8090611cc4565b604080516001600160801b0390931683526001600160401b0390911660208301520160405180910390a150565b6000546001600160a01b031633146112e85760405163245aecd360e01b815233600482015260240161046d565b600054600160a01b900460ff16611312576040516321c4e35760e21b815260040160405180910390fd5b6001600160a01b0384166113395760405163d92e233d60e01b815260040160405180910390fd5b426001600160401b0316836001600160401b03161161137657604051631433711560e11b81526001600160a01b038516600482015260240161046d565b61138362278d0042611cc4565b6001600160401b0316836001600160401b031611156113ac576113a962278d0042611cc4565b92505b604080516080810182526001600160401b03808616825284811660208084019182526001600160801b038087168587019081526000606087018181526001600160a01b038d1680835260049095529088902096518754955192518416600160801b02928716600160401b026001600160801b03199687169190971617959095178216178555925160019094018054949093169390911692909217905590517f9fec391ba0f5766ebb41d0952a8a3dc5d182da5bfba4281e5334126bb5f109bc9061148e90869086906001600160401b0392831681529116602082015260400190565b60405180910390a250505050565b6001600160a01b0381166000908152600460209081526040808320815160808101835281546001600160401b03808216808452600160401b8304909116958301959095526001600160801b03600160801b90910481169382019390935260019091015490911660608201529015801590611522575080516001600160401b034281169116115b9392505050565b600054600160a01b900460ff16156115535760405162dc149f60e41b815260040160405180910390fd5b6001600160a01b03841661157a5760405163d92e233d60e01b815260040160405180910390fd5b6001600160a01b0383166115a15760405163d92e233d60e01b815260040160405180910390fd5b6001600160a01b0382166115c85760405163d92e233d60e01b815260040160405180910390fd5b6001600160a01b0381166115ef5760405163d92e233d60e01b815260040160405180910390fd5b60008054600180546001600160a01b038781166001600160a01b03199283168117909355600280548883169084168117909155600380548884169416939093179092556001600160a81b0319909316928816928317600160a01b1790935560408051918252602082019390935290917fad307780531f6353137c35adc50ad58d71b76e76aa891e729387f2e720f2de20910161148e565b61168e61177c565b6002600080516020611dd883398151915255565b6116af83838360016117ac565b6116d757604051635274afe760e01b81526001600160a01b038416600482015260240161046d565b505050565b60006001600160e01b031982166116f557506000919050565b506004919050565b8181166001600160401b03908116908216145b92915050565b6000806000806117268686611812565b925092509250611736828261185f565b5090949350505050565b61174e84848484600161191c565b61177657604051635274afe760e01b81526001600160a01b038516600482015260240161046d565b50505050565b600080516020611dd88339815191525460020361067057604051633ee5aeb560e01b815260040160405180910390fd5b60405163a9059cbb60e01b60008181526001600160a01b038616600452602485905291602083604481808b5af1925060016000511483166118065783831516156117f9573d6000823e3d81fd5b6000873b113d1516831692505b60405250949350505050565b6000806000835160410361184c5760208401516040850151606086015160001a61183e8882858561198e565b955095509550505050611858565b50508151600091506002905b9250925092565b600082600381111561187357611873611dc1565b0361187c575050565b600182600381111561189057611890611dc1565b036118ae5760405163f645eedf60e01b815260040160405180910390fd5b60028260038111156118c2576118c2611dc1565b036118e35760405163fce698f760e01b81526004810182905260240161046d565b60038260038111156118f7576118f7611dc1565b03611918576040516335e2f38360e21b81526004810182905260240161046d565b5050565b6040516323b872dd60e01b60008181526001600160a01b038781166004528616602452604485905291602083606481808c5af19250600160005114831661197c57838315161561196f573d6000823e3d81fd5b6000883b113d1516831692505b60405250600060605295945050505050565b600080807f7fffffffffffffffffffffffffffffff5d576e7357a4501ddfe92f46681b20a08411156119c95750600091506003905082611a53565b604080516000808252602082018084528a905260ff891692820192909252606081018790526080810186905260019060a0016020604051602081039080840390855afa158015611a1d573d6000803e3d6000fd5b5050604051601f1901519150506001600160a01b038116611a4957506000925060019150829050611a53565b9250600091508190505b9450945094915050565b80356001600160a01b0381168114611a7457600080fd5b919050565b600060208284031215611a8b57600080fd5b61152282611a5d565b600060208284031215611aa657600080fd5b5035919050565b60008083601f840112611abf57600080fd5b5081356001600160401b03811115611ad657600080fd5b602083019150836020828501011115611aee57600080fd5b9250929050565b600080600080600080600060a0888a031215611b1057600080fd5b611b1988611a5d565b965060208801356001600160401b0380821115611b3557600080fd5b611b418b838c01611aad565b909850965060408a01359550869150611b5c60608b01611a5d565b945060808a0135915080821115611b7257600080fd5b50611b7f8a828b01611aad565b989b979a50959850939692959293505050565b60006020808352835180602085015260005b81811015611bc057858101830151858201604001528201611ba4565b506000604082860101526040601f19601f8301168501019250505092915050565b80356001600160401b0381168114611a7457600080fd5b60008060008060808587031215611c0e57600080fd5b611c1785611a5d565b9350611c2560208601611be1565b9250611c3360408601611be1565b915060608501356001600160801b0381168114611c4f57600080fd5b939692955090935050565b60008060008060808587031215611c7057600080fd5b611c7985611a5d565b9350611c8760208601611a5d565b9250611c9560408601611a5d565b9150611ca360608601611a5d565b905092959194509250565b634e487b7160e01b600052601160045260246000fd5b6001600160401b03818116838216019080821115611ce457611ce4611cae565b5092915050565b6001600160401b03828116828216039080821115611ce457611ce4611cae565b600060208284031215611d1d57600080fd5b5051919050565b6001600160801b03818116838216019080821115611ce457611ce4611cae565b60008085851115611d5457600080fd5b83861115611d6157600080fd5b5050820193919092039150565b6001600160e01b03198135818116916004851015611d965780818660040360031b1b83161692505b505092915050565b8183823760009101908152919050565b8082018082111561171057611710611cae565b634e487b7160e01b600052602160045260246000fdfe9b779b17422d0df92223018b32b4d1fa46e071723d6817e2486d003becc55f00a2646970667358221220b1aedc6d084f481c21485f5078319c4b86552265428e78eb0f1c1915e73ca92264736f6c63430008180033","linkReferences":{}},"methodIdentifiers":{"DOMAIN_TYPEHASH()":"20606b70","EMERGENCY_DELAY()":"82944e2d","EXECUTE_TYPEHASH()":"60d2f33d","MAX_SESSION_KEY_DURATION()":"ea53b193","authorizeSessionKey(address,uint64,uint64,uint128)":"e91d6235","cancelEmergencyWithdraw()":"683131c9","deposit(uint256)":"b6b55f25","depositBalance()":"61bc1a49","emergencyTimeRemaining()":"082d3f84","executeEmergencyWithdraw()":"2a8821cc","executeWithSessionKey(address,bytes,uint256,address,bytes)":"4f253653","getNonce(address)":"2d0335ab","getSessionKey(address)":"7a364461","getUSDCBalance()":"3cfd1ccc","initialize(address,address,address,address)":"f8c8765e","isEmergencyPending()":"507c4f6a","isSessionKeyValid(address)":"eed63dfb","owner()":"8da5cb5b","requestEmergencyWithdraw()":"c28f7c3b","revokeSessionKey(address)":"84f4fc6a","withdraw(uint256)":"2e1a7d4d"},"id":20}