{"abi":[{"type":"constructor","inputs":[{"name":"implementation_","type":"address","internalType":"address"},{"name":"vault_","type":"address","internalType":"address"},{"name":"tradingEngine_","type":"address","internalType":"address"},{"name":"usdc_","type":"address","internalType":"address"}],"stateMutability":"nonpayable"},{"type":"function","name":"createProxyWallet","inputs":[{"name":"user","type":"address","internalType":"address"}],"outputs":[{"name":"proxy","type":"address","internalType":"address"}],"stateMutability":"nonpayable"},{"type":"function","name":"getProxyWallet","inputs":[{"name":"user","type":"address","internalType":"address"}],"outputs":[{"name":"","type":"address","internalType":"address"}],"stateMutability":"view"},{"type":"function","name":"hasProxy","inputs":[{"name":"user","type":"address","internalType":"address"}],"outputs":[{"name":"","type":"bool","internalType":"bool"}],"stateMutability":"view"},{"type":"function","name":"implementation","inputs":[],"outputs":[{"name":"","type":"address","internalType":"address"}],"stateMutability":"view"},{"type":"function","name":"predictProxyAddress","inputs":[{"name":"user","type":"address","internalType":"address"}],"outputs":[{"name":"","type":"address","internalType":"address"}],"stateMutability":"view"},{"type":"function","name":"proxyCount","inputs":[],"outputs":[{"name":"","type":"uint256","internalType":"uint256"}],"stateMutability":"view"},{"type":"function","name":"tradingEngine","inputs":[],"outputs":[{"name":"","type":"address","internalType":"address"}],"stateMutability":"view"},{"type":"function","name":"usdc","inputs":[],"outputs":[{"name":"","type":"address","internalType":"address"}],"stateMutability":"view"},{"type":"function","name":"userProxies","inputs":[{"name":"","type":"address","internalType":"address"}],"outputs":[{"name":"","type":"address","internalType":"address"}],"stateMutability":"view"},{"type":"function","name":"vault","inputs":[],"outputs":[{"name":"","type":"address","internalType":"address"}],"stateMutability":"view"},{"type":"event","name":"ProxyCreated","inputs":[{"name":"user","type":"address","indexed":true,"internalType":"address"},{"name":"proxy","type":"address","indexed":true,"internalType":"address"},{"name":"index","type":"uint256","indexed":false,"internalType":"uint256"}],"anonymous":false},{"type":"error","name":"FailedDeployment","inputs":[]},{"type":"error","name":"InsufficientBalance","inputs":[{"name":"balance","type":"uint256","internalType":"uint256"},{"name":"needed","type":"uint256","internalType":"uint256"}]},{"type":"error","name":"ProxyAlreadyExists","inputs":[{"name":"user","type":"address","internalType":"address"},{"name":"proxy","type":"address","internalType":"address"}]},{"type":"error","name":"ZeroAddress","inputs":[]}],"bytecode":{"object":"0x61010060405234801561001157600080fd5b5060405161083d38038061083d8339810160408190526100309161010a565b6001600160a01b0384166100575760405163d92e233d60e01b815260040160405180910390fd5b6001600160a01b03831661007e5760405163d92e233d60e01b815260040160405180910390fd5b6001600160a01b0382166100a55760405163d92e233d60e01b815260040160405180910390fd5b6001600160a01b0381166100cc5760405163d92e233d60e01b815260040160405180910390fd5b6001600160a01b0393841660805291831660a052821660c0521660e05261015e565b80516001600160a01b038116811461010557600080fd5b919050565b6000806000806080858703121561012057600080fd5b610129856100ee565b9350610137602086016100ee565b9250610145604086016100ee565b9150610153606086016100ee565b905092959194509250565b60805160a05160c05160e0516106846101b96000396000818160ef015261038d01526000818161017b015261036501526000818161020a015261033d015260008181610154015281816102f901526104c101526106846000f3fe608060405234801561001057600080fd5b506004361061009e5760003560e01c80635cfb9fa1116100665780635cfb9fa114610176578063b4e76d191461019d578063c465db0a146101c6578063e089632f146101f2578063fbfa77cf1461020557600080fd5b806312cdffe9146100a357806337c954d8146100d35780633e413bee146100ea5780635ab0bc73146101115780635c60da1b1461014f575b600080fd5b6100b66100b1366004610604565b61022c565b6040516001600160a01b0390911681526020015b60405180910390f35b6100dc60015481565b6040519081526020016100ca565b6100b67f000000000000000000000000000000000000000000000000000000000000000081565b61013f61011f366004610604565b6001600160a01b0390811660009081526020819052604090205416151590565b60405190151581526020016100ca565b6100b67f000000000000000000000000000000000000000000000000000000000000000081565b6100b67f000000000000000000000000000000000000000000000000000000000000000081565b6100b66101ab366004610604565b6000602081905290815260409020546001600160a01b031681565b6100b66101d4366004610604565b6001600160a01b039081166000908152602081905260409020541690565b6100b6610200366004610604565b610480565b6100b67f000000000000000000000000000000000000000000000000000000000000000081565b60006001600160a01b0382166102555760405163d92e233d60e01b815260040160405180910390fd5b6001600160a01b0382811660009081526020819052604090205416156102ba576001600160a01b038281166000818152602081905260409081902054905163aae5decb60e01b8152600481019290925290911660248201526044015b60405180910390fd5b6040516bffffffffffffffffffffffff19606084901b16602082015260009060340160405160208183030381529060405280519060200120905061031e7f0000000000000000000000000000000000000000000000000000000000000000826104ed565b604051637c643b2f60e11b81526001600160a01b0385811660048301527f0000000000000000000000000000000000000000000000000000000000000000811660248301527f0000000000000000000000000000000000000000000000000000000000000000811660448301527f0000000000000000000000000000000000000000000000000000000000000000811660648301529193509083169063f8c8765e90608401600060405180830381600087803b1580156103dd57600080fd5b505af11580156103f1573d6000803e3d6000fd5b505050506001600160a01b03838116600090815260208190526040902080546001600160a01b031916918416919091179055600180549061043390829061062d565b6001556040518181526001600160a01b0380851691908616907f6ab9509d856e1bb722f8703a0fe607f28e5f2d6b04b8c310828775b2339823599060200160405180910390a35050919050565b6040516bffffffffffffffffffffffff19606083901b16602082015260009081906034016040516020818303038152906040528051906020012090506104e67f000000000000000000000000000000000000000000000000000000000000000082610504565b9392505050565b60006104fb8383600061056d565b90505b92915050565b6040513060388201526f5af43d82803e903d91602b57fd5bf3ff602482015260148101839052733d602d80600a3d3981f3363d3d373d3d3d363d738152605881018290526037600c820120607882015260556043909101206000906001600160a01b03166104fb565b6000814710156105995760405163cf47918160e01b8152476004820152602481018390526044016102b1565b763d602d80600a3d3981f3363d3d373d3d3d363d730000008460601b60e81c176000526e5af43d82803e903d91602b57fd5bf38460781b17602052826037600984f590506001600160a01b0381166104e65760405163b06ebf3d60e01b815260040160405180910390fd5b60006020828403121561061657600080fd5b81356001600160a01b03811681146104e657600080fd5b808201808211156104fe57634e487b7160e01b600052601160045260246000fdfea264697066735822122049e11d219dbf2b0420c09eb8902b1ac654348286517f76cef827ffc4ea74e37864736f6c63430008180033","linkReferences":{}},"methodIdentifiers":{"createProxyWallet(address)":"12cdffe9","getProxyWallet(address)":"c465db0a","hasProxy(address)":"5ab0bc73","implementation()":"5c60da1b","predictProxyAddress(address)":"e089632f","proxyCount()":"37c954d8","tradingEngine()":"5cfb9fa1","usdc()":"3e413bee","userProxies(address)":"b4e76d19","vault()":"fbfa77cf"},"id":19}