{"abi":[{"type":"constructor","inputs":[{"name":"_vault","type":"address","internalType":"address"},{"name":"_usdc","type":"address","internalType":"address"},{"name":"_owner","type":"address","internalType":"address"}],"stateMutability":"nonpayable"},{"type":"function","name":"adapters","inputs":[{"name":"","type":"address","internalType":"address"}],"outputs":[{"name":"","type":"bool","internalType":"bool"}],"stateMutability":"view"},{"type":"function","name":"keepers","inputs":[{"name":"","type":"address","internalType":"address"}],"outputs":[{"name":"","type":"bool","internalType":"bool"}],"stateMutability":"view"},{"type":"function","name":"owner","inputs":[],"outputs":[{"name":"","type":"address","internalType":"address"}],"stateMutability":"view"},{"type":"function","name":"pause","inputs":[],"outputs":[],"stateMutability":"nonpayable"},{"type":"function","name":"paused","inputs":[],"outputs":[{"name":"","type":"bool","internalType":"bool"}],"stateMutability":"view"},{"type":"function","name":"rebalance","inputs":[{"name":"level","type":"uint8","internalType":"enum TreasuryRebalancer.WaterLevel"},{"name":"adapter","type":"address","internalType":"address"},{"name":"amount","type":"uint256","internalType":"uint256"}],"outputs":[],"stateMutability":"nonpayable"},{"type":"function","name":"renounceOwnership","inputs":[],"outputs":[],"stateMutability":"nonpayable"},{"type":"function","name":"setAdapter","inputs":[{"name":"adapter","type":"address","internalType":"address"},{"name":"active","type":"bool","internalType":"bool"}],"outputs":[],"stateMutability":"nonpayable"},{"type":"function","name":"setKeeper","inputs":[{"name":"keeper","type":"address","internalType":"address"},{"name":"active","type":"bool","internalType":"bool"}],"outputs":[],"stateMutability":"nonpayable"},{"type":"function","name":"transferOwnership","inputs":[{"name":"newOwner","type":"address","internalType":"address"}],"outputs":[],"stateMutability":"nonpayable"},{"type":"function","name":"unpause","inputs":[],"outputs":[],"stateMutability":"nonpayable"},{"type":"function","name":"usdc","inputs":[],"outputs":[{"name":"","type":"address","internalType":"contract IERC20"}],"stateMutability":"view"},{"type":"function","name":"vault","inputs":[],"outputs":[{"name":"","type":"address","internalType":"contract IKMarketVault"}],"stateMutability":"view"},{"type":"event","name":"AdapterUpdated","inputs":[{"name":"adapter","type":"address","indexed":false,"internalType":"address"},{"name":"active","type":"bool","indexed":false,"internalType":"bool"}],"anonymous":false},{"type":"event","name":"KeeperUpdated","inputs":[{"name":"keeper","type":"address","indexed":false,"internalType":"address"},{"name":"active","type":"bool","indexed":false,"internalType":"bool"}],"anonymous":false},{"type":"event","name":"OwnershipTransferred","inputs":[{"name":"previousOwner","type":"address","indexed":true,"internalType":"address"},{"name":"newOwner","type":"address","indexed":true,"internalType":"address"}],"anonymous":false},{"type":"event","name":"Paused","inputs":[{"name":"account","type":"address","indexed":false,"internalType":"address"}],"anonymous":false},{"type":"event","name":"Rebalanced","inputs":[{"name":"level","type":"uint8","indexed":false,"internalType":"enum TreasuryRebalancer.WaterLevel"},{"name":"adapter","type":"address","indexed":false,"internalType":"address"},{"name":"amount","type":"uint256","indexed":false,"internalType":"uint256"}],"anonymous":false},{"type":"event","name":"Unpaused","inputs":[{"name":"account","type":"address","indexed":false,"internalType":"address"}],"anonymous":false},{"type":"error","name":"AdapterNotWhitelisted","inputs":[{"name":"adapter","type":"address","internalType":"address"}]},{"type":"error","name":"EnforcedPause","inputs":[]},{"type":"error","name":"ExpectedPause","inputs":[]},{"type":"error","name":"NotKeeper","inputs":[]},{"type":"error","name":"OwnableInvalidOwner","inputs":[{"name":"owner","type":"address","internalType":"address"}]},{"type":"error","name":"OwnableUnauthorizedAccount","inputs":[{"name":"account","type":"address","internalType":"address"}]},{"type":"error","name":"ReentrancyGuardReentrantCall","inputs":[]}],"bytecode":{"object":"0x60c0604090808252346200018b5760608162000da58038038091620000258285620001b9565b8339810103126200018b57816200003c82620001f1565b6200004a60208401620001f1565b926001600160a01b03928391620000629101620001f1565b16928315620001a2575f80546001600160a01b03198116861782558651956020958795604495879594909383929183167f8be0079c531659141344cd1fd0a4f28419497f9722a3daafe3b4186f6b6457e08780a360017f9b779b17422d0df92223018b32b4d1fa46e071723d6817e2486d003becc55f005516918260805216908160a05263095ea7b360e01b84526004840152811960248401525af18015620001985762000155575b5051610b9e908162000207823960805181818160c2015281816104010152818161061a0152610798015260a0518181816104a001528181610666015281816107e2015261099d0152f35b6020813d6020116200018f575b816200017160209383620001b9565b810103126200018b5751801515036200018b575f6200010b565b5f80fd5b3d915062000162565b82513d5f823e3d90fd5b8451631e4fbdf760e01b81525f6004820152602490fd5b601f909101601f19168101906001600160401b03821190821017620001dd57604052565b634e487b7160e01b5f52604160045260245ffd5b51906001600160a01b03821682036200018b5756fe60406080815260049081361015610014575f80fd5b5f915f3560e01c908163332f646514610a085781633bbd64bc146109cc5781633e413bee146109895781633f4ba83a1461091c57816356711482146103575781635c975abb14610332578163715018a6146102d65781638456cb59146102775781638da5cb5b1461024f578163d1b9e853146101c5578163e5711ffc14610187578163f2fde38b146100f5575063fbfa77cf146100af575f80fd5b346100f157816003193601126100f157517f00000000000000000000000000000000000000000000000000000000000000006001600160a01b03168152602090f35b5080fd5b90503461018357602036600319011261018357610110610a76565b90610119610abb565b6001600160a01b0391821692831561016d5750505f54826bffffffffffffffffffffffff60a01b8216175f55167f8be0079c531659141344cd1fd0a4f28419497f9722a3daafe3b4186f6b6457e05f80a380f35b51631e4fbdf760e01b8152908101849052602490fd5b8280fd5b5050346100f15760203660031901126100f15760209160ff9082906001600160a01b036101b2610a76565b1681526001855220541690519015158152f35b5050346100f1576102497f786c9db967bf0c6b16c7c91adae8a8c554b15a57d373fa2059607300f4616c00916101fa36610a8c565b929091610205610abb565b6001600160a01b03831686526002602052808620805460ff191660ff861515161790555b516001600160a01b03909216825291151560208201529081906040820190565b0390a180f35b5050346100f157816003193601126100f157905490516001600160a01b039091168152602090f35b5050346100f157816003193601126100f15760207f62e78cea01bee320cd4e420270b5ea74000d11b0c9f74754ebdbfc544b05a258916102b5610abb565b6102bd610ae6565b835460ff60a01b1916600160a01b17845551338152a180f35b833461032f578060031936011261032f576102ef610abb565b5f80546001600160a01b0319811682556001600160a01b03167f8be0079c531659141344cd1fd0a4f28419497f9722a3daafe3b4186f6b6457e08280a380f35b80fd5b5050346100f157816003193601126100f15760ff6020925460a01c1690519015158152f35b83833461073e57606036600319011261073e578235600381101561073e576001600160a01b0391602435919083831680840361073e5760443592335f526020906002825260ff845f205416158061090f575b6108ff577f9b779b17422d0df92223018b32b4d1fa46e071723d6817e2486d003becc55f009660028854146108ef57600288556103e4610ae6565b835f526001835260ff855f205416156108d8575f96826105d057817f000000000000000000000000000000000000000000000000000000000000000016803b156105cc5786516309120ca960e31b815230818e01908152602081018a9052909392918c9185919082908490829060400103925af180156105c2579188918c8e88956105a0575b8a5163095ea7b360e01b81526001600160a01b0390931690830190815260208101949094529094508492839190829060400103927f0000000000000000000000000000000000000000000000000000000000000000165af1801561056957610573575b50823b1561056557835163b6b55f2560e01b8152898101869052888160248183885af1801561056957908991610551575b50505b83519561053e578552840152820152600191907f019928b9226c94cbb4b4d2e1c9752c84eff40a98e7a76a67ca37664e5d596c8790606090a15580f35b634e487b7160e01b885260218952602488fd5b61055a90610b06565b61056557878a6104fe565b8780fd5b85513d8b823e3d90fd5b61059290833d8511610599575b61058a8183610b2e565b810190610b50565b50896104cd565b503d610580565b5092509250926105af90610b06565b6105be57868285928c8e61046a565b8980fd5b87513d8d823e3d90fd5b8a80fd5b505f965060018203610753578451632e1a7d4d60e01b81528a81018790529083826024818d895af1918215610749578a918c8692849561070e575b50885163095ea7b360e01b81527f000000000000000000000000000000000000000000000000000000000000000083166001600160a01b038116928201928352602083018790529490939284929091839182906040015b03927f0000000000000000000000000000000000000000000000000000000000000000165af180156105c2576106f1575b50803b156105be578551639872efaf60e01b815230818d019081526020810193909352918a91839182908490829060400103925af18015610569579089916106dd575b5050610501565b6106e690610b06565b61056557878a6106d6565b61070790853d87116105995761058a8183610b2e565b508b610693565b935050925081813d8311610742575b6107278183610b2e565b8101031261073e575190899084908c61066261060b565b5f80fd5b503d61071d565b86513d8c823e3d90fd5b845163429c145b60e11b81529083828c815f895af19182156108ce57908b915f9361089b575b50848361078a575b50505050610501565b875163095ea7b360e01b81527f000000000000000000000000000000000000000000000000000000000000000083166001600160a01b03811694820194855260208501869052939092839182905f90829060400103927f0000000000000000000000000000000000000000000000000000000000000000165af1801561089157610874575b50803b1561073e578551639872efaf60e01b815230818d019081526020810193909352915f91839182908490829060400103925af1801561086a57610857575b898184610781565b610862919850610b06565b5f968961084f565b85513d5f823e3d90fd5b61088a90853d87116105995761058a8183610b2e565b508b61080f565b87513d5f823e3d90fd5b85809294508193503d83116108c7575b6108b58183610b2e565b8101031261073e578a9051918c610779565b503d6108ab565b86513d5f823e3d90fd5b845163616d132960e01b8152808b01859052602490fd5b8451633ee5aeb560e01b81528a90fd5b8351631ea2564f60e31b81528990fd5b50865f54163314156103a9565b823461073e575f36600319011261073e57610935610abb565b5f549160ff8360a01c161561097b5760ff60a01b1983165f5581513381527f5db9ee0a495bf2e6ff9c91a7834c1ba4fdd244a5e8aa4e537bd38aeae4b073aa90602090a1005b9051638dfc202b60e01b8152fd5b823461073e575f36600319011261073e57517f00000000000000000000000000000000000000000000000000000000000000006001600160a01b03168152602090f35b823461073e57602036600319011261073e576020906001600160a01b036109f1610a76565b165f526002825260ff815f20541690519015158152f35b823461073e57610a717f3a7f7534305abc5e1ba799866aacf71fe69ed2d7944e4fd33455e36f95cd9cd591610a3c36610a8c565b929091610a47610abb565b6001600160a01b0383165f9081526001602052819020805460ff191660ff86151516179055610229565b0390a1005b600435906001600160a01b038216820361073e57565b604090600319011261073e576004356001600160a01b038116810361073e5790602435801515810361073e5790565b5f546001600160a01b03163303610ace57565b60405163118cdaa760e01b8152336004820152602490fd5b60ff5f5460a01c16610af457565b60405163d93c066560e01b8152600490fd5b67ffffffffffffffff8111610b1a57604052565b634e487b7160e01b5f52604160045260245ffd5b90601f8019910116810190811067ffffffffffffffff821117610b1a57604052565b9081602091031261073e5751801515810361073e579056fea264697066735822122069d4caf85f0bded7cf6136e8e8116f1de88c709da050cb5a598c62e099433d4e64736f6c63430008180033","linkReferences":{}},"methodIdentifiers":{"adapters(address)":"e5711ffc","keepers(address)":"3bbd64bc","owner()":"8da5cb5b","pause()":"8456cb59","paused()":"5c975abb","rebalance(uint8,address,uint256)":"56711482","renounceOwnership()":"715018a6","setAdapter(address,bool)":"332f6465","setKeeper(address,bool)":"d1b9e853","transferOwnership(address)":"f2fde38b","unpause()":"3f4ba83a","usdc()":"3e413bee","vault()":"fbfa77cf"},"id":65}