{"abi":[{"type":"function","name":"authorizedProxies","inputs":[{"name":"","type":"address","internalType":"address"}],"outputs":[{"name":"","type":"bool","internalType":"bool"}],"stateMutability":"view"},{"type":"function","name":"getAvailableLiquidity","inputs":[],"outputs":[{"name":"","type":"uint256","internalType":"uint256"}],"stateMutability":"pure"},{"type":"function","name":"getTotalAssets","inputs":[],"outputs":[{"name":"","type":"uint256","internalType":"uint256"}],"stateMutability":"pure"},{"type":"function","name":"isAuthorizedProxy","inputs":[{"name":"proxy","type":"address","internalType":"address"}],"outputs":[{"name":"","type":"bool","internalType":"bool"}],"stateMutability":"view"},{"type":"function","name":"setAuthorizedProxy","inputs":[{"name":"proxy","type":"address","internalType":"address"},{"name":"authorized","type":"bool","internalType":"bool"}],"outputs":[],"stateMutability":"nonpayable"},{"type":"function","name":"totalLPBalance","inputs":[],"outputs":[{"name":"","type":"uint256","internalType":"uint256"}],"stateMutability":"pure"},{"type":"function","name":"totalUserBalance","inputs":[],"outputs":[{"name":"","type":"uint256","internalType":"uint256"}],"stateMutability":"pure"},{"type":"function","name":"userBalances","inputs":[{"name":"","type":"address","internalType":"address"}],"outputs":[{"name":"","type":"uint256","internalType":"uint256"}],"stateMutability":"view"},{"type":"function","name":"userToProxy","inputs":[{"name":"","type":"address","internalType":"address"}],"outputs":[{"name":"","type":"address","internalType":"address"}],"stateMutability":"pure"}],"bytecode":{"object":"0x608060405234801561001057600080fd5b50610248806100206000396000f3fe608060405234801561001057600080fd5b50600436106100935760003560e01c8063858ea0aa11610066578063858ea0aa146101395780638808be9a146101405780639b745aec14610139578063c47ab4401461016c578063c4c0567b1461013957600080fd5b806326224c6414610098578063360d95b6146100cb57806355e2dfed146100fe5780636e07302b14610139575b600080fd5b6100b86100a63660046101b4565b60006020819052908152604090205481565b6040519081526020015b60405180910390f35b6100ee6100d93660046101b4565b60016020526000908152604090205460ff1681565b60405190151581526020016100c2565b61013761010c3660046101d6565b6001600160a01b03919091166000908152600160205260409020805460ff1916911515919091179055565b005b60006100b8565b6100ee61014e3660046101b4565b6001600160a01b031660009081526001602052604090205460ff1690565b61018061017a3660046101b4565b50600090565b6040516001600160a01b0390911681526020016100c2565b80356001600160a01b03811681146101af57600080fd5b919050565b6000602082840312156101c657600080fd5b6101cf82610198565b9392505050565b600080604083850312156101e957600080fd5b6101f283610198565b91506020830135801515811461020757600080fd5b80915050925092905056fea26469706673582212204625ba3bb5c02b4c8397d2676cba0c4292d961e53fe40aec1cd99e9c69c5b56464736f6c63430008180033","linkReferences":{}},"methodIdentifiers":{"authorizedProxies(address)":"360d95b6","getAvailableLiquidity()":"9b745aec","getTotalAssets()":"6e07302b","isAuthorizedProxy(address)":"8808be9a","setAuthorizedProxy(address,bool)":"55e2dfed","totalLPBalance()":"858ea0aa","totalUserBalance()":"c4c0567b","userBalances(address)":"26224c64","userToProxy(address)":"c47ab440"},"id":23}