{"abi":[{"type":"constructor","inputs":[{"name":"_admin","type":"address","internalType":"address"}],"stateMutability":"nonpayable"},{"type":"function","name":"PERMISSION_BET","inputs":[],"outputs":[{"name":"","type":"uint64","internalType":"uint64"}],"stateMutability":"view"},{"type":"function","name":"PERMISSION_CANCEL","inputs":[],"outputs":[{"name":"","type":"uint64","internalType":"uint64"}],"stateMutability":"view"},{"type":"function","name":"PERMISSION_SETTLE","inputs":[],"outputs":[{"name":"","type":"uint64","internalType":"uint64"}],"stateMutability":"view"},{"type":"function","name":"activeKey","inputs":[{"name":"user","type":"address","internalType":"address"}],"outputs":[{"name":"","type":"address","internalType":"address"}],"stateMutability":"view"},{"type":"function","name":"admin","inputs":[],"outputs":[{"name":"","type":"address","internalType":"address"}],"stateMutability":"view"},{"type":"function","name":"authorize","inputs":[{"name":"sessionKey","type":"address","internalType":"address"},{"name":"expiry","type":"uint64","internalType":"uint64"},{"name":"spendingLimit","type":"uint128","internalType":"uint128"},{"name":"permissions","type":"uint64","internalType":"uint64"}],"outputs":[],"stateMutability":"nonpayable"},{"type":"function","name":"getKeyData","inputs":[{"name":"user","type":"address","internalType":"address"},{"name":"sessionKey","type":"address","internalType":"address"}],"outputs":[{"name":"","type":"tuple","internalType":"struct ISessionKeyRegistry.SessionKeyData","components":[{"name":"expiry","type":"uint64","internalType":"uint64"},{"name":"permissions","type":"uint64","internalType":"uint64"},{"name":"spendingLimit","type":"uint128","internalType":"uint128"},{"name":"totalSpent","type":"uint128","internalType":"uint128"},{"name":"active","type":"bool","internalType":"bool"}]}],"stateMutability":"view"},{"type":"function","name":"isRecorder","inputs":[{"name":"","type":"address","internalType":"address"}],"outputs":[{"name":"","type":"bool","internalType":"bool"}],"stateMutability":"view"},{"type":"function","name":"isValid","inputs":[{"name":"user","type":"address","internalType":"address"},{"name":"sessionKey","type":"address","internalType":"address"},{"name":"requiredPermission","type":"uint64","internalType":"uint64"}],"outputs":[{"name":"","type":"bool","internalType":"bool"}],"stateMutability":"view"},{"type":"function","name":"recordSpending","inputs":[{"name":"user","type":"address","internalType":"address"},{"name":"sessionKey","type":"address","internalType":"address"},{"name":"amount","type":"uint128","internalType":"uint128"}],"outputs":[],"stateMutability":"nonpayable"},{"type":"function","name":"revoke","inputs":[{"name":"sessionKey","type":"address","internalType":"address"}],"outputs":[],"stateMutability":"nonpayable"},{"type":"function","name":"setRecorder","inputs":[{"name":"recorder","type":"address","internalType":"address"},{"name":"enabled","type":"bool","internalType":"bool"}],"outputs":[],"stateMutability":"nonpayable"},{"type":"function","name":"transferAdmin","inputs":[{"name":"newAdmin","type":"address","internalType":"address"}],"outputs":[],"stateMutability":"nonpayable"},{"type":"event","name":"SessionKeyAuthorized","inputs":[{"name":"user","type":"address","indexed":true,"internalType":"address"},{"name":"sessionKey","type":"address","indexed":true,"internalType":"address"},{"name":"expiry","type":"uint64","indexed":false,"internalType":"uint64"},{"name":"spendingLimit","type":"uint128","indexed":false,"internalType":"uint128"},{"name":"permissions","type":"uint64","indexed":false,"internalType":"uint64"}],"anonymous":false},{"type":"event","name":"SessionKeyRevoked","inputs":[{"name":"user","type":"address","indexed":true,"internalType":"address"},{"name":"sessionKey","type":"address","indexed":true,"internalType":"address"}],"anonymous":false},{"type":"event","name":"SessionKeyUsed","inputs":[{"name":"user","type":"address","indexed":true,"internalType":"address"},{"name":"sessionKey","type":"address","indexed":true,"internalType":"address"},{"name":"amount","type":"uint128","indexed":false,"internalType":"uint128"},{"name":"totalSpent","type":"uint128","indexed":false,"internalType":"uint128"}],"anonymous":false}],"bytecode":{"object":"0x6080346100ae57601f610ab538819003918201601f19168301916001600160401b038311848410176100b2578084926020946040528339810103126100ae57516001600160a01b038116908190036100ae57801561007a57600380546001600160a01b0319169190911790556040516109ee90816100c78239f35b60405162461bcd60e51b815260206004820152600c60248201526b5a65726f206164647265737360a01b6044820152606490fd5b5f80fd5b634e487b7160e01b5f52604160045260245ffdfe604060808152600480361015610013575f80fd5b5f3560e01c9081631b8b2093146108555781631e59831b1461083a578163228a4fed1461080157816333fc21a0146105c6578163646ce0491461058a5781636b39349f1461052d5781636c7dbdef1461044d57816374a8f1031461036457816375829def146102e2578163a667f8d5146102c7578163ce2dfebe146102ac578163e3356bf8146100d7575063f851a440146100ac575f80fd5b346100d3575f3660031901126100d35760035490516001600160a01b039091168152602090f35b5f80fd5b82346100d35760603660031901126100d3576100f16108a2565b6100f96108b8565b916101026108ce565b335f526020946002865260ff835f2054161561027a5760018060a01b0380941693845f525f8752835f20951694855f528652825f20906001820180549260ff8460801c161561024657549067ffffffffffffffff82164211610215576001600160801b03809516948581861601818111610202571680946001600160801b03191617905560801c82116101bf57507f98fbe0a70181f9340d48e494adc2103499da4213c9d4452112f3f3eb006ab0379394958351928352820152a3005b835162461bcd60e51b8152908101879052601760248201527f5370656e64696e67206c696d69742065786365656465640000000000000000006044820152606490fd5b601185634e487b7160e01b5f525260245ffd5b855162461bcd60e51b81528084018a9052600b60248201526a12d95e48195e1c1a5c995960aa1b6044820152606490fd5b855162461bcd60e51b81528084018a9052600e60248201526d4b6579206e6f742061637469766560901b6044820152606490fd5b825162461bcd60e51b8152908101869052600c60248201526b2737ba103932b1b7b93232b960a11b6044820152606490fd5b82346100d3575f3660031901126100d3576020905160018152f35b9050346100d3575f3660031901126100d35760209151908152f35b9050346100d35760203660031901126100d3576102fd6108a2565b60035491906001600160a01b03906103183383861614610980565b169283156103325750506001600160a01b03191617600355005b906020606492519162461bcd60e51b8352820152600c60248201526b5a65726f206164647265737360a01b6044820152fd5b82346100d357602090816003193601126100d3576103806108a2565b91335f525f8152815f209360018060a01b0380941694855f52825260ff6001845f20015460801c161561041f5750335f81815280835283812086825283528381206001908101805460ff60801b19169055918152915220805490918116831461040c575b82337f744157ccffbd293a2e8644928cd7d23d650f869b88f72d7bfea8041b76ca6bec5f80a3005b6001600160a01b031916905581806103e4565b915162461bcd60e51b815291820152600a6024820152694e6f742061637469766560b01b6044820152606490fd5b82346100d357806003193601126100d35760a0906104696108a2565b6104716108b8565b905f608061047d61094c565b82815282602082015282868201528260608201520152600180851b038091165f525f602052825f2091165f52602052805f20906104b861094c565b9082549167ffffffffffffffff9182841694858352600160208401918587851c1683528385019660801c87520154946001600160801b0394859260ff60806060880197868b168952019860801c1615158852845198895251166020880152511690850152511660608301525115156080820152f35b82346100d357806003193601126100d3576105466108a2565b90602435918215158093036100d3576003546001600160a01b03919061056f9083163314610980565b165f5260026020525f209060ff801983541691161790555f80f35b82346100d35760203660031901126100d3576020906001600160a01b036105af6108a2565b165f526002825260ff815f20541690519015158152f35b82346100d35760803660031901126100d3576105e06108a2565b6024359167ffffffffffffffff918284168094036100d3576106006108ce565b90606435938085168095036100d3576001600160a01b039182169687156107cb57428711156107965785156107625750335f5260209160018352845f2054168061073e575b508661064f61094c565b938785526001848601958887528781016001600160801b03809416978882526fffffffffffffffff000000000000000060608401975f89526080850197868952335f525f8b528c5f20905f528a528b5f2094511691518b1b16916001600160801b0319905160801b1691171781550192511682549160ff60801b9051151560801b169170ffffffffffffffffffffffffffffffffff191617179055335f5260018152825f20866bffffffffffffffffffffffff60a01b82541617905582519485528401528201527f7ea6a2ee87e8cdba5838fb9cbd7d3d786091b95b7b59753bd0be2f9a95bfecb560603392a3005b5f808452858120918152908352849020600101805460ff60801b1916905587610645565b606490602086519162461bcd60e51b8352820152600e60248201526d4e6f207065726d697373696f6e7360901b6044820152fd5b606490602086519162461bcd60e51b8352820152600f60248201526e105b1c9958591e48195e1c1a5c9959608a1b6044820152fd5b606490602086519162461bcd60e51b8352820152601060248201526f5a65726f2073657373696f6e206b657960801b6044820152fd5b82346100d35760203660031901126100d3576020906001600160a01b03806108276108a2565b165f5260018352815f2054169051908152f35b82346100d3575f3660031901126100d3576020905160028152f35b82346100d35760603660031901126100d35761086f6108a2565b906108786108b8565b9160443567ffffffffffffffff811681036100d357602093610899926108e4565b90519015158152f35b600435906001600160a01b03821682036100d357565b602435906001600160a01b03821682036100d357565b604435906001600160801b03821682036100d357565b60018060a01b038091165f525f60205260405f2091165f5260205260405f2060ff600182015460801c161561094657549067ffffffffffffffff90818316421161093f578181169260401c16160361093b57600190565b5f90565b5050505f90565b50505f90565b6040519060a0820182811067ffffffffffffffff82111761096c57604052565b634e487b7160e01b5f52604160045260245ffd5b1561098757565b60405162461bcd60e51b81526020600482015260096024820152682737ba1030b236b4b760b91b6044820152606490fdfea264697066735822122077c7198c33edc37363e5cca77fbe842671cce395e4745d51cfac9567178fa47f64736f6c63430008180033","linkReferences":{}},"methodIdentifiers":{"PERMISSION_BET()":"ce2dfebe","PERMISSION_CANCEL()":"1e59831b","PERMISSION_SETTLE()":"a667f8d5","activeKey(address)":"228a4fed","admin()":"f851a440","authorize(address,uint64,uint128,uint64)":"33fc21a0","getKeyData(address,address)":"6c7dbdef","isRecorder(address)":"646ce049","isValid(address,address,uint64)":"1b8b2093","recordSpending(address,address,uint128)":"e3356bf8","revoke(address)":"74a8f103","setRecorder(address,bool)":"6b39349f","transferAdmin(address)":"75829def"},"id":32}