{"abi":[{"type":"constructor","inputs":[{"name":"_usdc","type":"address","internalType":"address"},{"name":"_guardian","type":"address","internalType":"address"},{"name":"_singleCap","type":"uint256","internalType":"uint256"},{"name":"_dailyCap","type":"uint256","internalType":"uint256"}],"stateMutability":"nonpayable"},{"type":"function","name":"dailyCap","inputs":[],"outputs":[{"name":"","type":"uint256","internalType":"uint256"}],"stateMutability":"view"},{"type":"function","name":"dailyVolume","inputs":[],"outputs":[{"name":"","type":"uint256","internalType":"uint256"}],"stateMutability":"view"},{"type":"function","name":"deposit","inputs":[{"name":"amount","type":"uint256","internalType":"uint256"},{"name":"polygonReceiver","type":"address","internalType":"address"}],"outputs":[],"stateMutability":"nonpayable"},{"type":"function","name":"depositCounter","inputs":[],"outputs":[{"name":"","type":"uint256","internalType":"uint256"}],"stateMutability":"view"},{"type":"function","name":"getDeposit","inputs":[{"name":"depositId","type":"bytes32","internalType":"bytes32"}],"outputs":[{"name":"","type":"tuple","internalType":"struct IOriginLockBox.DepositRecord","components":[{"name":"sender","type":"address","internalType":"address"},{"name":"receiver","type":"address","internalType":"address"},{"name":"amount","type":"uint256","internalType":"uint256"},{"name":"timestamp","type":"uint256","internalType":"uint256"},{"name":"refunded","type":"bool","internalType":"bool"}]}],"stateMutability":"view"},{"type":"function","name":"owner","inputs":[],"outputs":[{"name":"","type":"address","internalType":"address"}],"stateMutability":"view"},{"type":"function","name":"pause","inputs":[],"outputs":[],"stateMutability":"nonpayable"},{"type":"function","name":"paused","inputs":[],"outputs":[{"name":"","type":"bool","internalType":"bool"}],"stateMutability":"view"},{"type":"function","name":"refund","inputs":[{"name":"depositId","type":"bytes32","internalType":"bytes32"}],"outputs":[],"stateMutability":"nonpayable"},{"type":"function","name":"renounceOwnership","inputs":[],"outputs":[],"stateMutability":"nonpayable"},{"type":"function","name":"setDailyCap","inputs":[{"name":"newCap","type":"uint256","internalType":"uint256"}],"outputs":[],"stateMutability":"nonpayable"},{"type":"function","name":"setSingleCap","inputs":[{"name":"newCap","type":"uint256","internalType":"uint256"}],"outputs":[],"stateMutability":"nonpayable"},{"type":"function","name":"singleCap","inputs":[],"outputs":[{"name":"","type":"uint256","internalType":"uint256"}],"stateMutability":"view"},{"type":"function","name":"transferOwnership","inputs":[{"name":"newOwner","type":"address","internalType":"address"}],"outputs":[],"stateMutability":"nonpayable"},{"type":"function","name":"unpause","inputs":[],"outputs":[],"stateMutability":"nonpayable"},{"type":"function","name":"usdc","inputs":[],"outputs":[{"name":"","type":"address","internalType":"contract IERC20"}],"stateMutability":"view"},{"type":"event","name":"DailyCapUpdated","inputs":[{"name":"newCap","type":"uint256","indexed":false,"internalType":"uint256"}],"anonymous":false},{"type":"event","name":"Deposited","inputs":[{"name":"depositId","type":"bytes32","indexed":true,"internalType":"bytes32"},{"name":"sender","type":"address","indexed":true,"internalType":"address"},{"name":"receiver","type":"address","indexed":true,"internalType":"address"},{"name":"amount","type":"uint256","indexed":false,"internalType":"uint256"},{"name":"timestamp","type":"uint256","indexed":false,"internalType":"uint256"}],"anonymous":false},{"type":"event","name":"OwnershipTransferred","inputs":[{"name":"previousOwner","type":"address","indexed":true,"internalType":"address"},{"name":"newOwner","type":"address","indexed":true,"internalType":"address"}],"anonymous":false},{"type":"event","name":"Paused","inputs":[{"name":"account","type":"address","indexed":false,"internalType":"address"}],"anonymous":false},{"type":"event","name":"Refunded","inputs":[{"name":"depositId","type":"bytes32","indexed":true,"internalType":"bytes32"},{"name":"sender","type":"address","indexed":true,"internalType":"address"},{"name":"amount","type":"uint256","indexed":false,"internalType":"uint256"}],"anonymous":false},{"type":"event","name":"SingleCapUpdated","inputs":[{"name":"newCap","type":"uint256","indexed":false,"internalType":"uint256"}],"anonymous":false},{"type":"event","name":"Unpaused","inputs":[{"name":"account","type":"address","indexed":false,"internalType":"address"}],"anonymous":false},{"type":"error","name":"AlreadyRefunded","inputs":[{"name":"depositId","type":"bytes32","internalType":"bytes32"}]},{"type":"error","name":"DepositNotFound","inputs":[{"name":"depositId","type":"bytes32","internalType":"bytes32"}]},{"type":"error","name":"EnforcedPause","inputs":[]},{"type":"error","name":"ExceedsDailyCap","inputs":[{"name":"todayTotal","type":"uint256","internalType":"uint256"},{"name":"cap","type":"uint256","internalType":"uint256"}]},{"type":"error","name":"ExceedsSingleCap","inputs":[{"name":"amount","type":"uint256","internalType":"uint256"},{"name":"cap","type":"uint256","internalType":"uint256"}]},{"type":"error","name":"ExpectedPause","inputs":[]},{"type":"error","name":"NotGuardian","inputs":[]},{"type":"error","name":"OwnableInvalidOwner","inputs":[{"name":"owner","type":"address","internalType":"address"}]},{"type":"error","name":"OwnableUnauthorizedAccount","inputs":[{"name":"account","type":"address","internalType":"address"}]},{"type":"error","name":"ReentrancyGuardReentrantCall","inputs":[]},{"type":"error","name":"SafeERC20FailedOperation","inputs":[{"name":"token","type":"address","internalType":"address"}]},{"type":"error","name":"ZeroAddress","inputs":[]},{"type":"error","name":"ZeroAmount","inputs":[]}],"bytecode":{"object":"0x60a03461014c57601f610bb438819003918201601f19168301916001600160401b038311848410176101505780849260809460405283398101031261014c5761004781610164565b9061005460208201610164565b6040820151606090920151926001600160a01b0391821691908215610134575f80546001600160a01b03198116851782556040519491908416907f8be0079c531659141344cd1fd0a4f28419497f9722a3daafe3b4186f6b6457e09080a360017f9b779b17422d0df92223018b32b4d1fa46e071723d6817e2486d003becc55f005516908115801561012d575b61011e5750608052600155600255620151804204600655604051610a3b9081610179823960805181818161036f0152818161055d01526108ab0152f35b63d92e233d60e01b8152600490fd5b505f6100e1565b604051631e4fbdf760e01b81525f6004820152602490fd5b5f80fd5b634e487b7160e01b5f52604160045260245ffd5b51906001600160a01b038216820361014c5756fe60406080815260049081361015610014575f80fd5b5f3560e01c80630840a44a146108da5780633e413bee146108975780633f4ba83a1461082a5780635c975abb14610805578063661d00c1146107b85780636e553f65146104da578063715018a6146104835780637249fbb6146103115780637a86983f1461025b5780638456cb59146101fd5780638da5cb5b146101d65780638dd42844146101b857806398c8877e1461019a578063eb3393911461017c578063ecb3dc881461015e5763f2fde38b146100cc575f80fd5b3461015a57602036600319011261015a576001600160a01b0382358181169391929084900361015a576100fd610978565b83156101445750505f54826bffffffffffffffffffffffff60a01b8216175f55167f8be0079c531659141344cd1fd0a4f28419497f9722a3daafe3b4186f6b6457e05f80a3005b905f6024925191631e4fbdf760e01b8352820152fd5b5f80fd5b503461015a575f36600319011261015a576020906003549051908152f35b503461015a575f36600319011261015a576020906002549051908152f35b503461015a575f36600319011261015a576020906005549051908152f35b503461015a575f36600319011261015a576020906001549051908152f35b503461015a575f36600319011261015a575f5490516001600160a01b039091168152602090f35b503461015a575f36600319011261015a5760207f62e78cea01bee320cd4e420270b5ea74000d11b0c9f74754ebdbfc544b05a2589161023a610978565b6102426109e5565b5f805460ff60a01b1916600160a01b17905551338152a1005b50903461015a57602036600319011261015a57815f608060a0945161027f81610948565b8281528260208201528284820152826060820152015281355f5281602052805f208151916102ac83610948565b600180861b039384835416948585528060018501541660208601908152608060ff60028701549486890195865260038801549760608a019889520154169601951515865283519687525116602086015251908401525160608301525115156080820152f35b503461015a57602036600319011261015a5781359061032e610978565b6103366109a3565b5f828152602084905281902080546001600160a01b0391908216801561046c57858201805460ff81166104555760019060ff19161790557f0000000000000000000000000000000000000000000000000000000000000000956002830196875486519363a9059cbb60e01b5f52835260245260205f60448180855af160015f5114811615610436575b8387521561042057505050916020917ff552ca82e113ac3c539c3d617f29fcd19c172a0c75dad017555c9e109f7fe18393541694549051908152a360017f9b779b17422d0df92223018b32b4d1fa46e071723d6817e2486d003becc55f0055005b635274afe760e01b835284169082015260249150fd5b600181151661044c57813b15153d1516166103bf565b833d5f823e3d90fd5b8551631316266b60e01b8152808901889052602490fd5b835163087c619560e31b8152808701869052602490fd5b3461015a575f36600319011261015a5761049b610978565b5f80546001600160a01b0319811682556001600160a01b03167f8be0079c531659141344cd1fd0a4f28419497f9722a3daafe3b4186f6b6457e08280a3005b503461015a578060031936011261015a576001600160a01b039060248035838116928535929184900361015a5761050f6109a3565b6105176109e5565b82156107a957831561079a57600194855480851161077f57506201518042046006548103610772575b5060055461054e8582610927565b9060025480921161074d5750507f00000000000000000000000000000000000000000000000000000000000000008251906323b872dd60e01b5f523389523085528560445260205f60648180855af1885f511481161561072f575b8285525f6060521561071a575050600354968251602081019046825289858201523360601b60608201528660748201524260948201526094815260c081019181831067ffffffffffffffff8411176107085782865281519020955f198b146106f65750887fe3ad398758b9cbdf4196c5d060a1aebae967b4f9115c7394e937cbb46f449587969798999a0160035561064082610948565b33825260e0810189815261010082019089825261014061012084019342855201955f8752895f528560205280885f20955116906bffffffffffffffffffffffff60a01b91828754161786558d860192511690825416179055516002830155516003820155019051151560ff801983541691161790556106c184600554610927565b60055580519384524260208501523393a47f9b779b17422d0df92223018b32b4d1fa46e071723d6817e2486d003becc55f0055005b634e487b7160e01b5f90815260118552fd5b86604185634e487b7160e01b5f52525ffd5b635274afe760e01b8252909116818801528290fd5b8881151661074457813b15153d1516166105a9565b823d5f823e3d90fd5b604491858561075d898d95610927565b905163025f4e9760e61b815293840152820152fd5b6006555f6005555f610540565b87604491858786519363261f68df60e21b8552840152820152fd5b5163d92e233d60e01b81528590fd5b51631f2a200560e01b81528590fd5b50903461015a57602036600319011261015a577f18e558afaca7e3e570f5d14b969ec8a45d971644ccc0448c231c4fc07236e6bd9160209135906107fa610978565b8160015551908152a1005b503461015a575f36600319011261015a5760209060ff5f5460a01c1690519015158152f35b503461015a575f36600319011261015a57610843610978565b5f549160ff8360a01c16156108895760ff60a01b1983165f5581513381527f5db9ee0a495bf2e6ff9c91a7834c1ba4fdd244a5e8aa4e537bd38aeae4b073aa90602090a1005b9051638dfc202b60e01b8152fd5b503461015a575f36600319011261015a57517f00000000000000000000000000000000000000000000000000000000000000006001600160a01b03168152602090f35b50903461015a57602036600319011261015a577f8925eb7e33342c248e8380fb70e3f497217013b0fd9bfca496b50b77bc90a01f91602091359061091c610978565b8160025551908152a1005b9190820180921161093457565b634e487b7160e01b5f52601160045260245ffd5b60a0810190811067ffffffffffffffff82111761096457604052565b634e487b7160e01b5f52604160045260245ffd5b5f546001600160a01b0316330361098b57565b60405163118cdaa760e01b8152336004820152602490fd5b7f9b779b17422d0df92223018b32b4d1fa46e071723d6817e2486d003becc55f0060028154146109d35760029055565b604051633ee5aeb560e01b8152600490fd5b60ff5f5460a01c166109f357565b60405163d93c066560e01b8152600490fdfea2646970667358221220f7a194cb70934d1d267accf07f5e6e3ad79cd7179ce3ffa8cf16437927f5495e64736f6c63430008180033","linkReferences":{}},"methodIdentifiers":{"dailyCap()":"eb339391","dailyVolume()":"98c8877e","deposit(uint256,address)":"6e553f65","depositCounter()":"ecb3dc88","getDeposit(bytes32)":"7a86983f","owner()":"8da5cb5b","pause()":"8456cb59","paused()":"5c975abb","refund(bytes32)":"7249fbb6","renounceOwnership()":"715018a6","setDailyCap(uint256)":"0840a44a","setSingleCap(uint256)":"661d00c1","singleCap()":"8dd42844","transferOwnership(address)":"f2fde38b","unpause()":"3f4ba83a","usdc()":"3e413bee"},"id":51}