{"abi":[{"type":"constructor","inputs":[{"name":"_vault","type":"address","internalType":"address"},{"name":"_oracle","type":"address","internalType":"address"},{"name":"_sequencer","type":"address","internalType":"address"},{"name":"_admin","type":"address","internalType":"address"}],"stateMutability":"nonpayable"},{"type":"function","name":"BATCH_SETTLE_TYPEHASH","inputs":[],"outputs":[{"name":"","type":"bytes32","internalType":"bytes32"}],"stateMutability":"view"},{"type":"function","name":"DOMAIN_SEPARATOR","inputs":[],"outputs":[{"name":"","type":"bytes32","internalType":"bytes32"}],"stateMutability":"view"},{"type":"function","name":"SELF_SETTLE_TYPEHASH","inputs":[],"outputs":[{"name":"","type":"bytes32","internalType":"bytes32"}],"stateMutability":"view"},{"type":"function","name":"admin","inputs":[],"outputs":[{"name":"","type":"address","internalType":"address"}],"stateMutability":"view"},{"type":"function","name":"batchNonce","inputs":[],"outputs":[{"name":"","type":"uint256","internalType":"uint256"}],"stateMutability":"view"},{"type":"function","name":"batchSettle","inputs":[{"name":"poolId","type":"bytes32","internalType":"bytes32"},{"name":"settlements","type":"tuple[]","internalType":"struct IKMarketSettlement.SettlementItem[]","components":[{"name":"user","type":"address","internalType":"address"},{"name":"netDelta","type":"int128","internalType":"int128"},{"name":"lockedDelta","type":"uint128","internalType":"uint128"}]},{"name":"poolDelta","type":"tuple","internalType":"struct IKMarketSettlement.PoolDelta","components":[{"name":"totalPayoutsDelta","type":"uint128","internalType":"uint128"},{"name":"totalBetsReceivedDelta","type":"uint128","internalType":"uint128"},{"name":"lockedBetsDelta","type":"uint128","internalType":"uint128"}]},{"name":"batchRoot","type":"bytes32","internalType":"bytes32"},{"name":"stateRoot","type":"bytes32","internalType":"bytes32"},{"name":"oracleSignature","type":"bytes","internalType":"bytes"}],"outputs":[],"stateMutability":"nonpayable"},{"type":"function","name":"eip712Domain","inputs":[],"outputs":[{"name":"fields","type":"bytes1","internalType":"bytes1"},{"name":"name","type":"string","internalType":"string"},{"name":"version","type":"string","internalType":"string"},{"name":"chainId","type":"uint256","internalType":"uint256"},{"name":"verifyingContract","type":"address","internalType":"address"},{"name":"salt","type":"bytes32","internalType":"bytes32"},{"name":"extensions","type":"uint256[]","internalType":"uint256[]"}],"stateMutability":"view"},{"type":"function","name":"getBatchRoot","inputs":[{"name":"_batchNonce","type":"uint256","internalType":"uint256"}],"outputs":[{"name":"","type":"bytes32","internalType":"bytes32"}],"stateMutability":"view"},{"type":"function","name":"getPoolLedger","inputs":[{"name":"poolId","type":"bytes32","internalType":"bytes32"}],"outputs":[{"name":"","type":"tuple","internalType":"struct IKMarketSettlement.PoolLedger","components":[{"name":"totalBetsReceived","type":"uint128","internalType":"uint128"},{"name":"totalPayouts","type":"uint128","internalType":"uint128"},{"name":"lockedBets","type":"uint128","internalType":"uint128"},{"name":"lpBalance","type":"uint128","internalType":"uint128"},{"name":"lastBatchNonce","type":"uint64","internalType":"uint64"},{"name":"lastUpdateTime","type":"uint64","internalType":"uint64"}]}],"stateMutability":"view"},{"type":"function","name":"getStateRoot","inputs":[{"name":"_batchNonce","type":"uint256","internalType":"uint256"}],"outputs":[{"name":"","type":"bytes32","internalType":"bytes32"}],"stateMutability":"view"},{"type":"function","name":"initializePool","inputs":[{"name":"poolId","type":"bytes32","internalType":"bytes32"}],"outputs":[],"stateMutability":"nonpayable"},{"type":"function","name":"oracle","inputs":[],"outputs":[{"name":"","type":"address","internalType":"address"}],"stateMutability":"view"},{"type":"function","name":"selfSettleAll","inputs":[{"name":"poolId","type":"bytes32","internalType":"bytes32"},{"name":"orders","type":"tuple[]","internalType":"struct IKMarketSettlement.SettleOrder[]","components":[{"name":"poolId","type":"bytes32","internalType":"bytes32"},{"name":"tickId","type":"bytes32","internalType":"bytes32"},{"name":"betAmount","type":"uint128","internalType":"uint128"},{"name":"payoutAmount","type":"uint128","internalType":"uint128"},{"name":"expiryTime","type":"uint64","internalType":"uint64"},{"name":"timestamp","type":"uint64","internalType":"uint64"},{"name":"user","type":"address","internalType":"address"},{"name":"isWin","type":"bool","internalType":"bool"}]},{"name":"oracleSignature","type":"bytes","internalType":"bytes"},{"name":"userSeal","type":"bytes32","internalType":"bytes32"}],"outputs":[],"stateMutability":"nonpayable"},{"type":"function","name":"sequencer","inputs":[],"outputs":[{"name":"","type":"address","internalType":"address"}],"stateMutability":"view"},{"type":"function","name":"setOracle","inputs":[{"name":"_oracle","type":"address","internalType":"address"}],"outputs":[],"stateMutability":"nonpayable"},{"type":"function","name":"setSequencer","inputs":[{"name":"_sequencer","type":"address","internalType":"address"}],"outputs":[],"stateMutability":"nonpayable"},{"type":"function","name":"transferAdmin","inputs":[{"name":"newAdmin","type":"address","internalType":"address"}],"outputs":[],"stateMutability":"nonpayable"},{"type":"function","name":"usedSeals","inputs":[{"name":"","type":"bytes32","internalType":"bytes32"}],"outputs":[{"name":"","type":"bool","internalType":"bool"}],"stateMutability":"view"},{"type":"function","name":"vault","inputs":[],"outputs":[{"name":"","type":"address","internalType":"contract IKMarketVault"}],"stateMutability":"view"},{"type":"function","name":"verifyOrder","inputs":[{"name":"_batchNonce","type":"uint256","internalType":"uint256"},{"name":"orderHash","type":"bytes32","internalType":"bytes32"},{"name":"merkleProof","type":"bytes32[]","internalType":"bytes32[]"}],"outputs":[{"name":"","type":"bool","internalType":"bool"}],"stateMutability":"view"},{"type":"event","name":"BatchSettled","inputs":[{"name":"poolId","type":"bytes32","indexed":true,"internalType":"bytes32"},{"name":"batchNonce","type":"uint256","indexed":false,"internalType":"uint256"},{"name":"batchRoot","type":"bytes32","indexed":false,"internalType":"bytes32"},{"name":"stateRoot","type":"bytes32","indexed":false,"internalType":"bytes32"},{"name":"settlementCount","type":"uint256","indexed":false,"internalType":"uint256"}],"anonymous":false},{"type":"event","name":"EIP712DomainChanged","inputs":[],"anonymous":false},{"type":"event","name":"OracleUpdated","inputs":[{"name":"oldOracle","type":"address","indexed":true,"internalType":"address"},{"name":"newOracle","type":"address","indexed":true,"internalType":"address"}],"anonymous":false},{"type":"event","name":"PoolInitialized","inputs":[{"name":"poolId","type":"bytes32","indexed":true,"internalType":"bytes32"}],"anonymous":false},{"type":"event","name":"PoolLedgerUpdated","inputs":[{"name":"poolId","type":"bytes32","indexed":true,"internalType":"bytes32"},{"name":"totalBetsReceived","type":"uint128","indexed":false,"internalType":"uint128"},{"name":"totalPayouts","type":"uint128","indexed":false,"internalType":"uint128"},{"name":"lockedBets","type":"uint128","indexed":false,"internalType":"uint128"}],"anonymous":false},{"type":"event","name":"SelfSettled","inputs":[{"name":"user","type":"address","indexed":true,"internalType":"address"},{"name":"poolId","type":"bytes32","indexed":true,"internalType":"bytes32"},{"name":"orderCount","type":"uint256","indexed":false,"internalType":"uint256"},{"name":"netDelta","type":"int128","indexed":false,"internalType":"int128"}],"anonymous":false},{"type":"event","name":"SequencerUpdated","inputs":[{"name":"oldSequencer","type":"address","indexed":true,"internalType":"address"},{"name":"newSequencer","type":"address","indexed":true,"internalType":"address"}],"anonymous":false},{"type":"error","name":"BatchNonceMismatch","inputs":[{"name":"expected","type":"uint256","internalType":"uint256"},{"name":"actual","type":"uint256","internalType":"uint256"}]},{"type":"error","name":"DeltaMismatch","inputs":[{"name":"expected","type":"int256","internalType":"int256"},{"name":"actual","type":"int256","internalType":"int256"}]},{"type":"error","name":"ECDSAInvalidSignature","inputs":[]},{"type":"error","name":"ECDSAInvalidSignatureLength","inputs":[{"name":"length","type":"uint256","internalType":"uint256"}]},{"type":"error","name":"ECDSAInvalidSignatureS","inputs":[{"name":"s","type":"bytes32","internalType":"bytes32"}]},{"type":"error","name":"EmptySettlements","inputs":[]},{"type":"error","name":"InvalidOracleSignature","inputs":[]},{"type":"error","name":"InvalidShortString","inputs":[]},{"type":"error","name":"InvalidStateRoot","inputs":[{"name":"expected","type":"bytes32","internalType":"bytes32"},{"name":"actual","type":"bytes32","internalType":"bytes32"}]},{"type":"error","name":"InvalidUserSeal","inputs":[{"name":"expected","type":"bytes32","internalType":"bytes32"},{"name":"actual","type":"bytes32","internalType":"bytes32"}]},{"type":"error","name":"NotSequencer","inputs":[{"name":"caller","type":"address","internalType":"address"}]},{"type":"error","name":"PoolNotInitialized","inputs":[{"name":"poolId","type":"bytes32","internalType":"bytes32"}]},{"type":"error","name":"ReentrancyGuardReentrantCall","inputs":[]},{"type":"error","name":"SealAlreadyUsed","inputs":[{"name":"seal","type":"bytes32","internalType":"bytes32"}]},{"type":"error","name":"StringTooLong","inputs":[{"name":"str","type":"string","internalType":"string"}]},{"type":"error","name":"ZeroAddress","inputs":[]}],"bytecode":{"object":"0x610180346200029457601f620023dd38819003918201601f19168301916001600160401b0391828411858510176200028057816080928692604096875283398101031262000294576200005283620002b4565b6200006060208501620002b4565b926200007c606062000074838801620002b4565b9601620002b4565b938151926200008b8462000298565b6011845260208401957012d3585c9ad95d14d95d1d1b195b595b9d607a1b8752835197620000b98962000298565b6001895260208901603160f81b8152620000d387620002c9565b98610120998a52620000e58b62000493565b97610140988952519020998a60e0525190209861010099808b524660a05286519060208201927f8b73c3c69bb8fe3d512ecc4cf759cc79239f7b179b0ffacaa9a75d522b39400f84528883015260608201524660808201523060a082015260a0815260c0810198818a10908a111762000280578887525190206080523060c05260017f9b779b17422d0df92223018b32b4d1fa46e071723d6817e2486d003becc55f00556001600160a01b03928316968715801562000275575b80156200026a575b80156200025f575b62000250575082906101609788528160018060a01b0319951685600254161760025516836003541617600355169060045416176004555192611da294856200063b8639608051856118de015260a05185611999015260c051856118a8015260e0518561192d0152518461195301525183610b1401525182610b3d01525181818161010b0152818161041b0152818161046e01528181610ffa015261104d0152f35b63d92e233d60e01b8152600490fd5b5083831615620001af565b5083821615620001a7565b50838516156200019f565b634e487b7160e01b5f52604160045260245ffd5b5f80fd5b604081019081106001600160401b038211176200028057604052565b51906001600160a01b03821682036200029457565b805160209081811015620003635750601f825111620003045780825192015190808310620002f657501790565b825f19910360031b1b161790565b90604051809263305a27a960e01b82528060048301528251908160248401525f935b82851062000349575050604492505f838284010152601f80199101168101030190fd5b848101820151868601604401529381019385935062000326565b906001600160401b03821162000280575f54926001938481811c9116801562000488575b838210146200047457601f81116200043e575b5081601f8411600114620003d857509282939183925f94620003cc575b50501b915f199060031b1c1916175f5560ff90565b015192505f80620003b7565b919083601f1981165f8052845f20945f905b888383106200042357505050106200040a575b505050811b015f5560ff90565b01515f1960f88460031b161c191690555f8080620003fd565b858701518855909601959485019487935090810190620003ea565b5f805284601f845f20920160051c820191601f860160051c015b828110620004685750506200039a565b5f815501859062000458565b634e487b7160e01b5f52602260045260245ffd5b90607f169062000387565b8051602090818110156200051f5750601f825111620004c05780825192015190808310620002f657501790565b90604051809263305a27a960e01b82528060048301528251908160248401525f935b82851062000505575050604492505f838284010152601f80199101168101030190fd5b8481018201518686016044015293810193859350620004e2565b9192916001600160401b038111620002805760019182548381811c911680156200062f575b828210146200047457601f8111620005f9575b5080601f8311600114620005955750819293945f9262000589575b50505f19600383901b1c191690821b17905560ff90565b015190505f8062000572565b90601f19831695845f52825f20925f905b888210620005e15750508385969710620005c8575b505050811b01905560ff90565b01515f1960f88460031b161c191690555f8080620005bb565b808785968294968601518155019501930190620005a6565b835f5283601f835f20920160051c820191601f850160051c015b8281106200062357505062000557565b5f815501849062000613565b90607f16906200054456fe60806040526004361015610011575f80fd5b5f803560e01c806320c4f161146114125780632547fa3e1461139b578063316c8b18146113615780633644e5151461133f57806341be802614610e4e57806345974b6e14610e13578063511239f014610d375780635b2fcfe014610d085780635c1bba3814610cdf57806375829def14610c905780637adbf97314610c055780637dc0d1d014610bdc57806384b0196e14610afe5780639f963c1e14610a1d578063c3801938146109f3578063c75f3cb6146109d5578063c780901314610190578063e2350d6314610166578063f851a4401461013d5763fbfa77cf146100f6575f80fd5b3461013a578060031936011261013a576040517f00000000000000000000000000000000000000000000000000000000000000006001600160a01b03168152602090f35b80fd5b503461013a578060031936011261013a576004546040516001600160a01b039091168152602090f35b503461013a57602036600319011261013a5760406020916004358152600783522054604051908152f35b503461013a57608036600319011261013a576024356001600160401b0381116109d157366023820112156109d1576001600160401b038160040135116109d157366024826004013560081b830101116109d1576044356001600160401b0381116109cd5761020290369060040161147a565b61020d9291926119bf565b8160040135156109bb576004358452600660205260408420926001600160401b03600285015460401c16156109a2576064358552600960205260ff604086205416610988576064358552600960205260408520600160ff19825416179055604051917fe183dd51b022cac21d1c5ef26d713ea64545947040764fad24fc8525e1f3f94d602084015260043560408401526064356060840152336080840152608083528260a08101106001600160401b0360a085011117610962576102f06102f6926102e88560a06102ff970160405260208151910120611a01565b92369161168e565b90611a3b565b90929192611a75565b6002546001600160a01b03908116911603610976576103218160040135611582565b61032e6040519182611561565b600482013580825261033f90611582565b601f1901366020830137835b826004013581106107e85750604051602081018181936020815193910192885b8181106107cf575050610387925003601f198101835282611561565b51902060643581036107af57508283845b8360040135811061067f5750846040516103b181611546565b6001815260203681830137604051906103c982611546565b6001825260203681840137604051916103e183611546565b6001835260203681850137336103f68361173d565b5285600f0b6104048261173d565b526001600160801b0385166104188461173d565b527f00000000000000000000000000000000000000000000000000000000000000006001600160a01b03163b1561067b578391610469604051948593849363e193baf160e01b855260048501611796565b0381837f00000000000000000000000000000000000000000000000000000000000000006001600160a01b03165af1801561067057610658575b505083546001600160801b036104bb83828416611826565b16906001600160801b031916178085558583600f0b135f1461060657506104fb6104f161051b92846001600160801b0316611826565b855460801c611826565b84546001600160801b031660809190911b6001600160801b031916178455565b6002830180546fffffffffffffffff000000000000000019164260401b67ffffffffffffffff60401b1617905560405191600401358252600f0b6020820152600435907f47954ac772ee753c95418ffc25e37737cb24bd490518e6cf9dace1641f24b30860403392a38054600190910154604080516001600160801b03808516825260809490941c60208201529290911690820152600435907ff2ebd054561b4ffb763fb9acd584f9c4593a9bb1ffea67d0fcb223d47f594bba9080606081015b0390a260017f9b779b17422d0df92223018b32b4d1fa46e071723d6817e2486d003becc55f005580f35b90600f83900b600160ff1b146106445761063f916106366104fb926001600160801b0386600f0b8a031690611841565b9060801c611826565b61051b565b634e487b7160e01b86526011600452602486fd5b61066190611518565b61066c57845f6104a3565b8480fd5b6040513d84823e3d90fd5b8380fd5b906106928285600401356024870161185a565b92336001600160a01b036106a860c08701611729565b1603610779576106ba60e0850161186a565b15610747576001600160801b03906106f3826106d860608801611782565b16600f936106e860408901611782565b16840b90840b611877565b820b910b0160016001607f1b0319811260016001607f1b0382131761073357600191610726604061072c93965b01611782565b90611826565b9101610398565b634e487b7160e01b87526011600452602487fd5b600191610726604061077361072c946001600160801b03610769848b01611782565b16600f0b90611877565b96610720565b60405162461bcd60e51b815260206004820152600e60248201526d2737ba103cb7bab91037b93232b960911b6044820152606490fd5b60449060405190639dae847760e01b825260643560048301526024820152fd5b845183526020948501948694509092019160010161036b565b6107fa8160048501356024860161185a565b359061080e8160048601356024870161185a565b602001356108248260048701356024880161185a565b60400161083090611782565b6108428360048801356024890161185a565b60600161084e90611782565b9061086184600489013560248a0161185a565b60800161086d90611a27565b61087f8560048a013560248b0161185a565b60a00161088b90611a27565b9161089e8660048b013560248c0161185a565b60c0016108aa90611729565b936108bd8760048c013560248d0161185a565b60e0016108c99061186a565b956040519860208a015260408901526001600160801b0380921660608901521660808701526001600160401b031660a08601526001600160401b031660c0850152600160a01b600190031660e08401526101009015158184015282528161012081011061012083016001600160401b0310176109625781610120600193016040526020815191012061095b828561174a565b520161034b565b634e487b7160e01b5f52604160045260245ffd5b604051632f58c7cd60e01b8152600490fd5b60405163d0ed891360e01b81526064356004820152602490fd5b6024604051636e0aa30560e11b81526004356004820152fd5b604051633744111b60e01b8152600490fd5b8280fd5b5080fd5b503461013a578060031936011261013a576020600554604051908152f35b503461013a57602036600319011261013a5760406020916004358152600883522054604051908152f35b503461013a57602036600319011261013a5760408160c09260a08351610a428161152b565b82815282602082015282858201528260608201528260808201520152600435815260066020522060405190610a768261152b565b8054906001600160801b039182811693848152602081019160801c825283600184015481600260408501968284168852606086019360801c84520154956001600160401b039788968760a06080890198828c168a52019960401c1689526040519a8b52511660208a0152511660408801525116606086015251166080840152511660a0820152f35b503461013a578060031936011261013a57610b387f0000000000000000000000000000000000000000000000000000000000000000611af8565b610b617f0000000000000000000000000000000000000000000000000000000000000000611c19565b6040519260208401938085106001600160401b0386111761096257610bb9610bd893610bab96604052838352604051968796600f60f81b885260e0602089015260e08801906114a7565b9086820360408801526114a7565b9146606086015230608086015260a085015283820360c08501526114e5565b0390f35b503461013a578060031936011261013a576002546040516001600160a01b039091168152602090f35b503461013a57602036600319011261013a576004356001600160a01b03818116918290036109cd57610c3c81600454163314611656565b8115610c7e57816002549182167f078c3b417dadf69374a59793b829c52001247130433427049317bde56607b1b78580a36001600160a01b0319161760025580f35b60405163d92e233d60e01b8152600490fd5b503461013a57602036600319011261013a576004356001600160a01b03818116918290036109cd57610cc86004549182163314611656565b8115610c7e576001600160a01b0319161760045580f35b503461013a578060031936011261013a576003546040516001600160a01b039091168152602090f35b503461013a57602036600319011261013a5760ff60406020926004358152600984522054166040519015158152f35b503461013a57602036600319011261013a57600435610d6160018060a01b03600454163314611656565b8082526006602052600260408320016001600160401b039081815460401c16610dd857610db191421667ffffffffffffffff60401b82549160401b169067ffffffffffffffff60401b1916179055565b7febcc9ffea17e08841d7588f2ecd87720e1cfb444bb3b5e662c4a5005c3c94ab28280a280f35b60405162461bcd60e51b8152602060048201526013602482015272105b1c9958591e481a5b9a5d1a585b1a5e9959606a1b6044820152606490fd5b503461013a578060031936011261013a5760206040517fc9299b19280153bd4d6b1b3774c82534505ddabe82d048be64b90cf8bc20fb8c8152f35b503461122b5761010036600319011261122b57602435906001600160401b03821161122b573660238301121561122b576001600160401b0382600401351161122b5736602460608460040135028401011161122b57606036604319011261122b5760e4356001600160401b03811161122b57610ece90369060040161147a565b6003546001600160a01b0316330361132757610ee86119bf565b8360040135156109bb576004355f52600660205260405f20906001600160401b03600283015460401c16156109a25760055492604051917fc9299b19280153bd4d6b1b3774c82534505ddabe82d048be64b90cf8bc20fb8c6020840152600435604084015260a435606084015260c43560808401528460a0840152866004013560c084015260c083528260e08101106001600160401b0360e085011117610962576102f06102f6926102e88560e0610faa970160405260208151910120611a01565b6002546001600160a01b0390811691160361097657610fcc84600401356116d3565b610fd985600401356116d3565b90610fe786600401356116d3565b915f805b8860040135821061124d5750507f00000000000000000000000000000000000000000000000000000000000000006001600160a01b03163b1561122b575f91611048604051948593849363e193baf160e01b855260048501611796565b0381837f00000000000000000000000000000000000000000000000000000000000000006001600160a01b03165af180156112425761122f575b506001600160801b0391606435838116810361122b57836110a7845492828416611826565b166001600160801b03198092161780845560443590858216820361122b576110d5916104fb9160801c611826565b836110de61176c565b16611203575b506002820180546001600160801b0319166001600160401b038316174260401b67ffffffffffffffff60401b16179055808452600760205260a4356040852055600860205260c435604085205560018101948582116111ef577ff2ebd054561b4ffb763fb9acd584f9c4593a9bb1ffea67d0fcb223d47f594bba93949560055560405191825260a435602083015260c43560408301526004013560608201527f44b2bff788d41168f3b7b59cdf86970e21ef28f3052e2bb6084aace719f67a3e608060043592a2826001825492015416906105dc604051928392600435968160801c91168491604091949360608401956001600160801b039283809216865216602085015216910152565b634e487b7160e01b85526011600452602485fd5b61120b61176c565b60018401918561121f845493828516611841565b1691161790555f6110e4565b5f80fd5b61123a919350611518565b5f915f611082565b6040513d5f823e3d90fd5b611267611262838b6004013560248d01611705565b611729565b611271838661174a565b6001600160a01b039091169052886001600160801b036112cc6040610720866112ad60206112a78360048a013560248b01611705565b0161175e565b95600f96870b6112bd838c61174a565b52602481600401359101611705565b166112d7848861174a565b526112ef60206112a78560048e013560248f01611705565b900b905f828201928312911290801582169115161761131357600190910190610feb565b634e487b7160e01b5f52601160045260245ffd5b604051630596787760e01b8152336004820152602490fd5b3461122b575f36600319011261122b5760206113596118a5565b604051908152f35b3461122b575f36600319011261122b5760206040517fe183dd51b022cac21d1c5ef26d713ea64545947040764fad24fc8525e1f3f94d8152f35b3461122b57602036600319011261122b576004356001600160a01b038181169182900361122b576113d181600454163314611656565b8115610c7e57816003549182167fcd58b762453bd126b48db83f2cecd464f5281dd7e5e6824b528c09d0482984d65f80a36001600160a01b03191617600355005b3461122b57606036600319011261122b576001600160401b0360443581811161122b573660238201121561122b57806004013591821161122b573660248360051b8301011161122b5760209160246114709201602435600435611599565b6040519015158152f35b9181601f8401121561122b578235916001600160401b03831161122b576020838186019501011161122b57565b91908251928382525f5b8481106114d1575050825f602080949584010152601f8019910116010190565b6020818301810151848301820152016114b1565b9081518082526020808093019301915f5b828110611504575050505090565b8351855293810193928101926001016114f6565b6001600160401b03811161096257604052565b60c081019081106001600160401b0382111761096257604052565b604081019081106001600160401b0382111761096257604052565b90601f801991011681019081106001600160401b0382111761096257604052565b6001600160401b0381116109625760051b60200190565b93909192935f5260206007815260409260405f205494851561164b576115be87611582565b966115cc6040519889611561565b8088528388019060051b82019136831161122b578490915b83831061163b5750505050915f925b865184101561163157611606848861174a565b519081811015611622575f5282526001845f205b9301926115f3565b905f5282526001845f2061161a565b9350945050501490565b82358152918101918591016115e4565b505050925050505f90565b1561165d57565b60405162461bcd60e51b81526020600482015260096024820152682737ba1030b236b4b760b91b6044820152606490fd5b9291926001600160401b03821161096257604051916116b7601f8201601f191660200184611561565b82948184528183011161122b578281602093845f960137010152565b906116dd82611582565b6116ea6040519182611561565b82815280926116fb601f1991611582565b0190602036910137565b9190811015611715576060020190565b634e487b7160e01b5f52603260045260245ffd5b356001600160a01b038116810361122b5790565b8051156117155760200190565b80518210156117155760209160051b010190565b3580600f0b810361122b5790565b6084356001600160801b038116810361122b5790565b356001600160801b038116810361122b5790565b939290936060810160608252855180915260808201906020809701905f5b888282106118095750505050818103868301528580855192838152019401905f5b8181106117f5575050506117f293945060408184039101526114e5565b90565b8251865294870194918701916001016117d5565b83516001600160a01b0316855293840193909201916001016117b4565b9190916001600160801b038080941691160191821161131357565b6001600160801b03918216908216039190821161131357565b91908110156117155760081b0190565b35801515810361122b5790565b600f91820b910b03906f7fffffffffffffffffffffffffffffff19821260016001607f1b0383131761131357565b307f00000000000000000000000000000000000000000000000000000000000000006001600160a01b03161480611996575b15611900577f000000000000000000000000000000000000000000000000000000000000000090565b60405160208101907f8b73c3c69bb8fe3d512ecc4cf759cc79239f7b179b0ffacaa9a75d522b39400f82527f000000000000000000000000000000000000000000000000000000000000000060408201527f000000000000000000000000000000000000000000000000000000000000000060608201524660808201523060a082015260a081526119908161152b565b51902090565b507f000000000000000000000000000000000000000000000000000000000000000046146118d7565b7f9b779b17422d0df92223018b32b4d1fa46e071723d6817e2486d003becc55f0060028154146119ef5760029055565b604051633ee5aeb560e01b8152600490fd5b604290611a0c6118a5565b906040519161190160f01b8352600283015260228201522090565b356001600160401b038116810361122b5790565b8151919060418303611a6b57611a649250602082015190606060408401519301515f1a90611cea565b9192909190565b50505f9160029190565b6004811015611ae45780611a87575050565b60018103611aa15760405163f645eedf60e01b8152600490fd5b60028103611ac25760405163fce698f760e01b815260048101839052602490fd5b600314611acc5750565b602490604051906335e2f38360e21b82526004820152fd5b634e487b7160e01b5f52602160045260245ffd5b60ff8114611b365760ff811690601f8211611b245760405191611b1a83611546565b8252602082015290565b604051632cd44ac360e21b8152600490fd5b506040515f8054906001908260011c60018416928315611c0f575b6020948583108514611bfb578287528694908115611bdb5750600114611b80575b50506117f292500382611561565b5f8080527f290decd9548b62a8d60345a988386fc84ba6bc95484008f6362f93160ef3e56395935091905b818310611bc35750506117f293508201015f80611b72565b85548784018501529485019486945091830191611bab565b9150506117f294925060ff191682840152151560051b8201015f80611b72565b634e487b7160e01b5f52602260045260245ffd5b90607f1690611b51565b60ff8114611c3b5760ff811690601f8211611b245760405191611b1a83611546565b506040515f60018054918260011c60018416928315611ce0575b6020948583108514611bfb578287528694908115611bdb5750600114611c835750506117f292500382611561565b9093915060015f527fb10e2d527612073b26eecdfd717e6a320cf44b4afac2b0732d9fcbe2b7fa0cf6935f915b818310611cc85750506117f293508201015f80611b72565b85548784018501529485019486945091830191611cb0565b90607f1690611c55565b91907f7fffffffffffffffffffffffffffffff5d576e7357a4501ddfe92f46681b20a08411611d61579160209360809260ff5f9560405194855216868401526040830152606082015282805260015afa15611242575f516001600160a01b03811615611d5757905f905f90565b505f906001905f90565b5050505f916003919056fea26469706673582212205c6687d914d0e46af057ee7b9f7aa0dbddbdcdf25055251a59a3ec5334c337eb64736f6c63430008180033","linkReferences":{}},"methodIdentifiers":{"BATCH_SETTLE_TYPEHASH()":"45974b6e","DOMAIN_SEPARATOR()":"3644e515","SELF_SETTLE_TYPEHASH()":"316c8b18","admin()":"f851a440","batchNonce()":"c75f3cb6","batchSettle(bytes32,(address,int128,uint128)[],(uint128,uint128,uint128),bytes32,bytes32,bytes)":"41be8026","eip712Domain()":"84b0196e","getBatchRoot(uint256)":"e2350d63","getPoolLedger(bytes32)":"9f963c1e","getStateRoot(uint256)":"c3801938","initializePool(bytes32)":"511239f0","oracle()":"7dc0d1d0","selfSettleAll(bytes32,(bytes32,bytes32,uint128,uint128,uint64,uint64,address,bool)[],bytes,bytes32)":"c7809013","sequencer()":"5c1bba38","setOracle(address)":"7adbf973","setSequencer(address)":"2547fa3e","transferAdmin(address)":"75829def","usedSeals(bytes32)":"5b2fcfe0","vault()":"fbfa77cf","verifyOrder(uint256,bytes32,bytes32[])":"20c4f161"},"id":54}