{"abi":[{"type":"constructor","inputs":[{"name":"_vault","type":"address","internalType":"address"},{"name":"_oracle","type":"address","internalType":"address"},{"name":"_sequencer","type":"address","internalType":"address"},{"name":"_admin","type":"address","internalType":"address"}],"stateMutability":"nonpayable"},{"type":"function","name":"BATCH_SETTLE_TYPEHASH","inputs":[],"outputs":[{"name":"","type":"bytes32","internalType":"bytes32"}],"stateMutability":"view"},{"type":"function","name":"DOMAIN_SEPARATOR","inputs":[],"outputs":[{"name":"","type":"bytes32","internalType":"bytes32"}],"stateMutability":"view"},{"type":"function","name":"SELF_SETTLE_TYPEHASH","inputs":[],"outputs":[{"name":"","type":"bytes32","internalType":"bytes32"}],"stateMutability":"view"},{"type":"function","name":"admin","inputs":[],"outputs":[{"name":"","type":"address","internalType":"address"}],"stateMutability":"view"},{"type":"function","name":"batchNonce","inputs":[],"outputs":[{"name":"","type":"uint256","internalType":"uint256"}],"stateMutability":"view"},{"type":"function","name":"batchSettle","inputs":[{"name":"poolId","type":"bytes32","internalType":"bytes32"},{"name":"settlements","type":"tuple[]","internalType":"struct IKMarketSettlement.SettlementItem[]","components":[{"name":"user","type":"address","internalType":"address"},{"name":"netDelta","type":"int128","internalType":"int128"},{"name":"lockedDelta","type":"uint128","internalType":"uint128"}]},{"name":"poolDelta","type":"tuple","internalType":"struct IKMarketSettlement.PoolDelta","components":[{"name":"totalPayoutsDelta","type":"uint128","internalType":"uint128"},{"name":"totalBetsReceivedDelta","type":"uint128","internalType":"uint128"},{"name":"lockedBetsDelta","type":"uint128","internalType":"uint128"}]},{"name":"batchRoot","type":"bytes32","internalType":"bytes32"},{"name":"stateRoot","type":"bytes32","internalType":"bytes32"},{"name":"oracleSignature","type":"bytes","internalType":"bytes"}],"outputs":[],"stateMutability":"nonpayable"},{"type":"function","name":"eip712Domain","inputs":[],"outputs":[{"name":"fields","type":"bytes1","internalType":"bytes1"},{"name":"name","type":"string","internalType":"string"},{"name":"version","type":"string","internalType":"string"},{"name":"chainId","type":"uint256","internalType":"uint256"},{"name":"verifyingContract","type":"address","internalType":"address"},{"name":"salt","type":"bytes32","internalType":"bytes32"},{"name":"extensions","type":"uint256[]","internalType":"uint256[]"}],"stateMutability":"view"},{"type":"function","name":"getBatchRoot","inputs":[{"name":"_batchNonce","type":"uint256","internalType":"uint256"}],"outputs":[{"name":"","type":"bytes32","internalType":"bytes32"}],"stateMutability":"view"},{"type":"function","name":"getPoolLedger","inputs":[{"name":"poolId","type":"bytes32","internalType":"bytes32"}],"outputs":[{"name":"","type":"tuple","internalType":"struct IKMarketSettlement.PoolLedger","components":[{"name":"totalBetsReceived","type":"uint128","internalType":"uint128"},{"name":"totalPayouts","type":"uint128","internalType":"uint128"},{"name":"lockedBets","type":"uint128","internalType":"uint128"},{"name":"lpBalance","type":"uint128","internalType":"uint128"},{"name":"lastBatchNonce","type":"uint64","internalType":"uint64"},{"name":"lastUpdateTime","type":"uint64","internalType":"uint64"}]}],"stateMutability":"view"},{"type":"function","name":"getStateRoot","inputs":[{"name":"_batchNonce","type":"uint256","internalType":"uint256"}],"outputs":[{"name":"","type":"bytes32","internalType":"bytes32"}],"stateMutability":"view"},{"type":"function","name":"initializePool","inputs":[{"name":"poolId","type":"bytes32","internalType":"bytes32"}],"outputs":[],"stateMutability":"nonpayable"},{"type":"function","name":"oracle","inputs":[],"outputs":[{"name":"","type":"address","internalType":"address"}],"stateMutability":"view"},{"type":"function","name":"selfSettleAll","inputs":[{"name":"poolId","type":"bytes32","internalType":"bytes32"},{"name":"orders","type":"tuple[]","internalType":"struct IKMarketSettlement.SettleOrder[]","components":[{"name":"poolId","type":"bytes32","internalType":"bytes32"},{"name":"tickId","type":"bytes32","internalType":"bytes32"},{"name":"betAmount","type":"uint128","internalType":"uint128"},{"name":"payoutAmount","type":"uint128","internalType":"uint128"},{"name":"expiryTime","type":"uint64","internalType":"uint64"},{"name":"timestamp","type":"uint64","internalType":"uint64"},{"name":"user","type":"address","internalType":"address"},{"name":"isWin","type":"bool","internalType":"bool"}]},{"name":"oracleSignature","type":"bytes","internalType":"bytes"},{"name":"userSeal","type":"bytes32","internalType":"bytes32"}],"outputs":[],"stateMutability":"nonpayable"},{"type":"function","name":"sequencer","inputs":[],"outputs":[{"name":"","type":"address","internalType":"address"}],"stateMutability":"view"},{"type":"function","name":"setOracle","inputs":[{"name":"_oracle","type":"address","internalType":"address"}],"outputs":[],"stateMutability":"nonpayable"},{"type":"function","name":"setSequencer","inputs":[{"name":"_sequencer","type":"address","internalType":"address"}],"outputs":[],"stateMutability":"nonpayable"},{"type":"function","name":"transferAdmin","inputs":[{"name":"newAdmin","type":"address","internalType":"address"}],"outputs":[],"stateMutability":"nonpayable"},{"type":"function","name":"vault","inputs":[],"outputs":[{"name":"","type":"address","internalType":"contract IKMarketVault"}],"stateMutability":"view"},{"type":"function","name":"verifyOrder","inputs":[{"name":"_batchNonce","type":"uint256","internalType":"uint256"},{"name":"orderHash","type":"bytes32","internalType":"bytes32"},{"name":"merkleProof","type":"bytes32[]","internalType":"bytes32[]"}],"outputs":[{"name":"","type":"bool","internalType":"bool"}],"stateMutability":"view"},{"type":"event","name":"BatchSettled","inputs":[{"name":"poolId","type":"bytes32","indexed":true,"internalType":"bytes32"},{"name":"batchNonce","type":"uint256","indexed":false,"internalType":"uint256"},{"name":"batchRoot","type":"bytes32","indexed":false,"internalType":"bytes32"},{"name":"stateRoot","type":"bytes32","indexed":false,"internalType":"bytes32"},{"name":"settlementCount","type":"uint256","indexed":false,"internalType":"uint256"}],"anonymous":false},{"type":"event","name":"EIP712DomainChanged","inputs":[],"anonymous":false},{"type":"event","name":"OracleUpdated","inputs":[{"name":"oldOracle","type":"address","indexed":true,"internalType":"address"},{"name":"newOracle","type":"address","indexed":true,"internalType":"address"}],"anonymous":false},{"type":"event","name":"PoolInitialized","inputs":[{"name":"poolId","type":"bytes32","indexed":true,"internalType":"bytes32"}],"anonymous":false},{"type":"event","name":"PoolLedgerUpdated","inputs":[{"name":"poolId","type":"bytes32","indexed":true,"internalType":"bytes32"},{"name":"totalBetsReceived","type":"uint128","indexed":false,"internalType":"uint128"},{"name":"totalPayouts","type":"uint128","indexed":false,"internalType":"uint128"},{"name":"lockedBets","type":"uint128","indexed":false,"internalType":"uint128"}],"anonymous":false},{"type":"event","name":"SelfSettled","inputs":[{"name":"user","type":"address","indexed":true,"internalType":"address"},{"name":"poolId","type":"bytes32","indexed":true,"internalType":"bytes32"},{"name":"orderCount","type":"uint256","indexed":false,"internalType":"uint256"},{"name":"netDelta","type":"int128","indexed":false,"internalType":"int128"}],"anonymous":false},{"type":"event","name":"SequencerUpdated","inputs":[{"name":"oldSequencer","type":"address","indexed":true,"internalType":"address"},{"name":"newSequencer","type":"address","indexed":true,"internalType":"address"}],"anonymous":false},{"type":"error","name":"BatchNonceMismatch","inputs":[{"name":"expected","type":"uint256","internalType":"uint256"},{"name":"actual","type":"uint256","internalType":"uint256"}]},{"type":"error","name":"DeltaMismatch","inputs":[{"name":"expected","type":"int256","internalType":"int256"},{"name":"actual","type":"int256","internalType":"int256"}]},{"type":"error","name":"ECDSAInvalidSignature","inputs":[]},{"type":"error","name":"ECDSAInvalidSignatureLength","inputs":[{"name":"length","type":"uint256","internalType":"uint256"}]},{"type":"error","name":"ECDSAInvalidSignatureS","inputs":[{"name":"s","type":"bytes32","internalType":"bytes32"}]},{"type":"error","name":"EmptySettlements","inputs":[]},{"type":"error","name":"InvalidOracleSignature","inputs":[]},{"type":"error","name":"InvalidShortString","inputs":[]},{"type":"error","name":"InvalidStateRoot","inputs":[{"name":"expected","type":"bytes32","internalType":"bytes32"},{"name":"actual","type":"bytes32","internalType":"bytes32"}]},{"type":"error","name":"InvalidUserSeal","inputs":[{"name":"expected","type":"bytes32","internalType":"bytes32"},{"name":"actual","type":"bytes32","internalType":"bytes32"}]},{"type":"error","name":"NotSequencer","inputs":[{"name":"caller","type":"address","internalType":"address"}]},{"type":"error","name":"PoolNotInitialized","inputs":[{"name":"poolId","type":"bytes32","internalType":"bytes32"}]},{"type":"error","name":"ReentrancyGuardReentrantCall","inputs":[]},{"type":"error","name":"StringTooLong","inputs":[{"name":"str","type":"string","internalType":"string"}]},{"type":"error","name":"ZeroAddress","inputs":[]}],"bytecode":{"object":"0x610180346200028657601f6200219f38819003918201601f19168301916001600160401b0391828411858510176200027257816080928692604096875283398101031262000286576200005283620002a6565b6200006060208501620002a6565b926200007c606062000074838801620002a6565b9601620002a6565b938151926200008b846200028a565b6011845260208401957012d3585c9ad95d14d95d1d1b195b595b9d607a1b8752835197620000b9896200028a565b6001895260208901603160f81b8152620000d387620002bb565b98610120998a52620000e58b62000485565b97610140988952519020998a60e0525190209861010099808b524660a05286519060208201927f8b73c3c69bb8fe3d512ecc4cf759cc79239f7b179b0ffacaa9a75d522b39400f84528883015260608201524660808201523060a082015260a0815260c0810198818a10908a111762000272578887525190206080523060c05260017f9b779b17422d0df92223018b32b4d1fa46e071723d6817e2486d003becc55f00556001600160a01b03928316968715801562000267575b80156200025c575b801562000251575b62000242575082906101609788528160018060a01b0319951685600254161760025516836003541617600355169060045416176004555192611b7294856200062d8639608051856116ae015260a05185611769015260c05185611678015260e051856116fd015251846117230152518361093e01525182610967015251818181610100015281816103d60152610dc60152f35b63d92e233d60e01b8152600490fd5b5083831615620001af565b5083821615620001a7565b50838516156200019f565b634e487b7160e01b5f52604160045260245ffd5b5f80fd5b604081019081106001600160401b038211176200027257604052565b51906001600160a01b03821682036200028657565b805160209081811015620003555750601f825111620002f65780825192015190808310620002e857501790565b825f19910360031b1b161790565b90604051809263305a27a960e01b82528060048301528251908160248401525f935b8285106200033b575050604492505f838284010152601f80199101168101030190fd5b848101820151868601604401529381019385935062000318565b906001600160401b03821162000272575f54926001938481811c911680156200047a575b838210146200046657601f811162000430575b5081601f8411600114620003ca57509282939183925f94620003be575b50501b915f199060031b1c1916175f5560ff90565b015192505f80620003a9565b919083601f1981165f8052845f20945f905b88838310620004155750505010620003fc575b505050811b015f5560ff90565b01515f1960f88460031b161c191690555f8080620003ef565b858701518855909601959485019487935090810190620003dc565b5f805284601f845f20920160051c820191601f860160051c015b8281106200045a5750506200038c565b5f81550185906200044a565b634e487b7160e01b5f52602260045260245ffd5b90607f169062000379565b805160209081811015620005115750601f825111620004b25780825192015190808310620002e857501790565b90604051809263305a27a960e01b82528060048301528251908160248401525f935b828510620004f7575050604492505f838284010152601f80199101168101030190fd5b8481018201518686016044015293810193859350620004d4565b9192916001600160401b038111620002725760019182548381811c9116801562000621575b828210146200046657601f8111620005eb575b5080601f8311600114620005875750819293945f926200057b575b50505f19600383901b1c191690821b17905560ff90565b015190505f8062000564565b90601f19831695845f52825f20925f905b888210620005d35750508385969710620005ba575b505050811b01905560ff90565b01515f1960f88460031b161c191690555f8080620005ad565b80878596829496860151815501950193019062000598565b835f5283601f835f20920160051c820191601f850160051c015b8281106200061557505062000549565b5f815501849062000605565b90607f16906200053656fe60806040526004361015610011575f80fd5b5f803560e01c806320c4f161146111e75780632547fa3e14611170578063316c8b18146111365780633644e5151461111457806341be802614610c4957806345974b6e14610c0e578063511239f014610b325780635c1bba3814610b0957806375829def14610aba5780637adbf97314610a2f5780637dc0d1d014610a0657806384b0196e146109285780639f963c1e14610847578063c38019381461081d578063c75f3cb6146107ff578063c780901314610185578063e2350d631461015b578063f851a440146101325763fbfa77cf146100eb575f80fd5b3461012f578060031936011261012f576040517f00000000000000000000000000000000000000000000000000000000000000006001600160a01b03168152602090f35b80fd5b503461012f578060031936011261012f576004546040516001600160a01b039091168152602090f35b503461012f57602036600319011261012f5760406020916004358152600783522054604051908152f35b503461012f57608036600319011261012f576024356001600160401b0381116107fb57366023820112156107fb576001600160401b038160040135116107fb57366024826004013560081b830101116107fb576044356001600160401b0381116104ae576101f790369060040161124f565b6101ff61178f565b8260040135156107e957600435845260066020526001600160401b03600260408620015460401c16156107d0576040519060208201917fe183dd51b022cac21d1c5ef26d713ea64545947040764fad24fc8525e1f3f94d8352600435604082015260643560608201523360808201526080815260a08101938185106001600160401b038611176107aa576102a36102b1946102ab936102ba976040525190206117d1565b923691611463565b9061180b565b90929192611845565b6002546001600160a01b039081169116036107be576102dc8160040135611357565b6102e96040519182611336565b60048201358082526102fa90611357565b601f1901366020830137825b826004013581106106305750604051602081018181936020815193910192875b818110610617575050610342925003601f198101835282611336565b51902060643581036105f75750818080805b846004013581106104c1575060405161036c8161131b565b6001815260203681830137604051916103848361131b565b60018352602036818501376001600160801b03604051916103a48361131b565b6001835260203681850137336103b985611512565b52600f0b95866103c886611512565b52166103d382611512565b527f00000000000000000000000000000000000000000000000000000000000000006001600160a01b0316803b156104bd57610429938580946040519687958694859363e193baf160e01b85526004850161156b565b03925af180156104b25761049a575b5050604051916004013582526020820152600435907f47954ac772ee753c95418ffc25e37737cb24bd490518e6cf9dace1641f24b30860403392a360017f9b779b17422d0df92223018b32b4d1fa46e071723d6817e2486d003becc55f005580f35b6104a3906112ed565b6104ae57825f610438565b8280fd5b6040513d84823e3d90fd5b8480fd5b929091506104d78385600401356024870161162a565b91336001600160a01b036104ed60c086016114fe565b16036105c1576104ff60e0840161163a565b1561058f576001600160801b03906105388261051d60608701611557565b16600f9361052d60408801611557565b16840b90840b611647565b820b910b0160016001607f1b0319811260016001607f1b0382131761057b5760019161056b604061057193955b01611557565b906115fb565b9201908491610354565b634e487b7160e01b86526011600452602486fd5b60019161056b60406105bb610571946001600160801b036105b1848a01611557565b16600f0b90611647565b95610565565b60405162461bcd60e51b815260206004820152600e60248201526d2737ba103cb7bab91037b93232b960911b6044820152606490fd5b60449060405190639dae847760e01b825260643560048301526024820152fd5b8451835260209485019486945090920191600101610326565b6106428160048501356024860161162a565b35906106568160048601356024870161162a565b6020013561066c8260048701356024880161162a565b60400161067890611557565b61068a8360048801356024890161162a565b60600161069690611557565b906106a984600489013560248a0161162a565b6080016106b5906117f7565b6106c78560048a013560248b0161162a565b60a0016106d3906117f7565b916106e68660048b013560248c0161162a565b60c0016106f2906114fe565b936107058760048c013560248d0161162a565b60e0016107119061163a565b956040519860208a015260408901526001600160801b0380921660608901521660808701526001600160401b031660a08601526001600160401b031660c0850152600160a01b600190031660e08401526101009015158184015282528161012081011061012083016001600160401b0310176107aa578161012060019301604052602081519101206107a3828561151f565b5201610306565b634e487b7160e01b5f52604160045260245ffd5b604051632f58c7cd60e01b8152600490fd5b6024604051636e0aa30560e11b81526004356004820152fd5b604051633744111b60e01b8152600490fd5b5080fd5b503461012f578060031936011261012f576020600554604051908152f35b503461012f57602036600319011261012f5760406020916004358152600883522054604051908152f35b503461012f57602036600319011261012f5760408160c09260a0835161086c81611300565b828152826020820152828582015282606082015282608082015201526004358152600660205220604051906108a082611300565b8054906001600160801b039182811693848152602081019160801c825283600184015481600260408501968284168852606086019360801c84520154956001600160401b039788968760a06080890198828c168a52019960401c1689526040519a8b52511660208a0152511660408801525116606086015251166080840152511660a0820152f35b503461012f578060031936011261012f576109627f00000000000000000000000000000000000000000000000000000000000000006118c8565b61098b7f00000000000000000000000000000000000000000000000000000000000000006119e9565b6040519260208401938085106001600160401b038611176107aa576109e3610a02936109d596604052838352604051968796600f60f81b885260e0602089015260e088019061127c565b90868203604088015261127c565b9146606086015230608086015260a085015283820360c08501526112ba565b0390f35b503461012f578060031936011261012f576002546040516001600160a01b039091168152602090f35b503461012f57602036600319011261012f576004356001600160a01b03818116918290036104ae57610a668160045416331461142b565b8115610aa857816002549182167f078c3b417dadf69374a59793b829c52001247130433427049317bde56607b1b78580a36001600160a01b0319161760025580f35b60405163d92e233d60e01b8152600490fd5b503461012f57602036600319011261012f576004356001600160a01b03818116918290036104ae57610af2600454918216331461142b565b8115610aa8576001600160a01b0319161760045580f35b503461012f578060031936011261012f576003546040516001600160a01b039091168152602090f35b503461012f57602036600319011261012f57600435610b5c60018060a01b0360045416331461142b565b8082526006602052600260408320016001600160401b039081815460401c16610bd357610bac91421667ffffffffffffffff60401b82549160401b169067ffffffffffffffff60401b1916179055565b7febcc9ffea17e08841d7588f2ecd87720e1cfb444bb3b5e662c4a5005c3c94ab28280a280f35b60405162461bcd60e51b8152602060048201526013602482015272105b1c9958591e481a5b9a5d1a585b1a5e9959606a1b6044820152606490fd5b503461012f578060031936011261012f5760206040517fc9299b19280153bd4d6b1b3774c82534505ddabe82d048be64b90cf8bc20fb8c8152f35b5034610fee57610100366003190112610fee57600435602480356001600160401b0391828211610fee5736602383011215610fee57816004013590838211610fee578083019281369160608502010111610fee576060366043190112610fee5760a4359160c43560e435868111610fee57610cc890369060040161124f565b6003546001600160a01b039692959190871633036110fe57610ce861178f565b84156107e957895f526020966006885260405f209860028a01928b845460401c16156110e657600554988d8d604051908d8201927fc9299b19280153bd4d6b1b3774c82534505ddabe82d048be64b90cf8bc20fb8c845260408301528960608301528a60808301528c60a08301528b60c083015260c0825260e0820190828210908211176110d357926102a3610d8c95936102ab936102b1966040525190206117d1565b8280600254169116036107be57610da2876114a8565b90610dac886114a8565b92610db6896114a8565b915f805b8b8210611010575050507f000000000000000000000000000000000000000000000000000000000000000016803b15610fee57610e11935f80946040519687958694859363e193baf160e01b85526004850161156b565b03925af1801561100557610ff2575b506001600160801b03986064358a81168103610fee578a610e458b54928284166115fb565b166001600160801b031991604435908d82168203610fee5783918383610e6f93161760801c6115fb565b60801b16178a558a610e7f611541565b16610fae575b5081546fffffffffffffffff000000000000000019888316166fffffffffffffffffffffffffffffffff19909116174290911660401b67ffffffffffffffff60401b161790555b848a52600786528160408b2055600886528260408b20556001850190818611610f9c5750606096947ff2ebd054561b4ffb763fb9acd584f9c4593a9bb1ffea67d0fcb223d47f594bba9896948a947f44b2bff788d41168f3b7b59cdf86970e21ef28f3052e2bb6084aace719f67a3e9460809460055560405193845287840152604083015288820152a282600183549301541691604051938116845260801c908301526040820152a260017f9b779b17422d0df92223018b32b4d1fa46e071723d6817e2486d003becc55f005580f35b634e487b7160e01b8b5260116004528afd5b610fb6611541565b60018b01918c835492168d8316038d8111610fda578d169116179055610ecc610e85565b50634e487b7160e01b8f526011600452858ffd5b5f80fd5b610ffd919b506112ed565b5f995f610e20565b6040513d5f823e3d90fd5b8d808d8461101f8183896114da565b611028906114fe565b88611033838d61151f565b9116905261104191876114da565b0161104b90611533565b90600f91820b61105b858b61151f565b528d846110698183896114da565b60400161107590611557565b6001600160801b0316611088828b61151f565b5261109391876114da565b0161109d90611533565b900b818101915f138015918312918216911516176110c057600190910190610dba565b88634e487b7160e01b5f5260116004525ffd5b88634e487b7160e01b5f5260416004525ffd5b604051636e0aa30560e11b8152600481018e90528590fd5b50604051630596787760e01b8152336004820152fd5b34610fee575f366003190112610fee57602061112e611675565b604051908152f35b34610fee575f366003190112610fee5760206040517fe183dd51b022cac21d1c5ef26d713ea64545947040764fad24fc8525e1f3f94d8152f35b34610fee576020366003190112610fee576004356001600160a01b0381811691829003610fee576111a68160045416331461142b565b8115610aa857816003549182167fcd58b762453bd126b48db83f2cecd464f5281dd7e5e6824b528c09d0482984d65f80a36001600160a01b03191617600355005b34610fee576060366003190112610fee576001600160401b03604435818111610fee5736602382011215610fee578060040135918211610fee573660248360051b83010111610fee576020916024611245920160243560043561136e565b6040519015158152f35b9181601f84011215610fee578235916001600160401b038311610fee5760208381860195010111610fee57565b91908251928382525f5b8481106112a6575050825f602080949584010152601f8019910116010190565b602081830181015184830182015201611286565b9081518082526020808093019301915f5b8281106112d9575050505090565b8351855293810193928101926001016112cb565b6001600160401b0381116107aa57604052565b60c081019081106001600160401b038211176107aa57604052565b604081019081106001600160401b038211176107aa57604052565b90601f801991011681019081106001600160401b038211176107aa57604052565b6001600160401b0381116107aa5760051b60200190565b93909192935f5260206007815260409260405f20549485156114205761139387611357565b966113a16040519889611336565b8088528388019060051b820191368311610fee578490915b8383106114105750505050915f925b8651841015611406576113db848861151f565b5190818110156113f7575f5282526001845f205b9301926113c8565b905f5282526001845f206113ef565b9350945050501490565b82358152918101918591016113b9565b505050925050505f90565b1561143257565b60405162461bcd60e51b81526020600482015260096024820152682737ba1030b236b4b760b91b6044820152606490fd5b9291926001600160401b0382116107aa576040519161148c601f8201601f191660200184611336565b829481845281830111610fee578281602093845f960137010152565b906114b282611357565b6114bf6040519182611336565b82815280926114d0601f1991611357565b0190602036910137565b91908110156114ea576060020190565b634e487b7160e01b5f52603260045260245ffd5b356001600160a01b0381168103610fee5790565b8051156114ea5760200190565b80518210156114ea5760209160051b010190565b3580600f0b8103610fee5790565b6084356001600160801b0381168103610fee5790565b356001600160801b0381168103610fee5790565b939290936060810160608252855180915260808201906020809701905f5b888282106115de5750505050818103868301528580855192838152019401905f5b8181106115ca575050506115c793945060408184039101526112ba565b90565b8251865294870194918701916001016115aa565b83516001600160a01b031685529384019390920191600101611589565b9190916001600160801b038080941691160191821161161657565b634e487b7160e01b5f52601160045260245ffd5b91908110156114ea5760081b0190565b358015158103610fee5790565b600f91820b910b03906f7fffffffffffffffffffffffffffffff19821260016001607f1b0383131761161657565b307f00000000000000000000000000000000000000000000000000000000000000006001600160a01b03161480611766575b156116d0577f000000000000000000000000000000000000000000000000000000000000000090565b60405160208101907f8b73c3c69bb8fe3d512ecc4cf759cc79239f7b179b0ffacaa9a75d522b39400f82527f000000000000000000000000000000000000000000000000000000000000000060408201527f000000000000000000000000000000000000000000000000000000000000000060608201524660808201523060a082015260a0815261176081611300565b51902090565b507f000000000000000000000000000000000000000000000000000000000000000046146116a7565b7f9b779b17422d0df92223018b32b4d1fa46e071723d6817e2486d003becc55f0060028154146117bf5760029055565b604051633ee5aeb560e01b8152600490fd5b6042906117dc611675565b906040519161190160f01b8352600283015260228201522090565b356001600160401b0381168103610fee5790565b815191906041830361183b576118349250602082015190606060408401519301515f1a90611aba565b9192909190565b50505f9160029190565b60048110156118b45780611857575050565b600181036118715760405163f645eedf60e01b8152600490fd5b600281036118925760405163fce698f760e01b815260048101839052602490fd5b60031461189c5750565b602490604051906335e2f38360e21b82526004820152fd5b634e487b7160e01b5f52602160045260245ffd5b60ff81146119065760ff811690601f82116118f457604051916118ea8361131b565b8252602082015290565b604051632cd44ac360e21b8152600490fd5b506040515f8054906001908260011c600184169283156119df575b60209485831085146119cb5782875286949081156119ab5750600114611950575b50506115c792500382611336565b5f8080527f290decd9548b62a8d60345a988386fc84ba6bc95484008f6362f93160ef3e56395935091905b8183106119935750506115c793508201015f80611942565b8554878401850152948501948694509183019161197b565b9150506115c794925060ff191682840152151560051b8201015f80611942565b634e487b7160e01b5f52602260045260245ffd5b90607f1690611921565b60ff8114611a0b5760ff811690601f82116118f457604051916118ea8361131b565b506040515f60018054918260011c60018416928315611ab0575b60209485831085146119cb5782875286949081156119ab5750600114611a535750506115c792500382611336565b9093915060015f527fb10e2d527612073b26eecdfd717e6a320cf44b4afac2b0732d9fcbe2b7fa0cf6935f915b818310611a985750506115c793508201015f80611942565b85548784018501529485019486945091830191611a80565b90607f1690611a25565b91907f7fffffffffffffffffffffffffffffff5d576e7357a4501ddfe92f46681b20a08411611b31579160209360809260ff5f9560405194855216868401526040830152606082015282805260015afa15611005575f516001600160a01b03811615611b2757905f905f90565b505f906001905f90565b5050505f916003919056fea26469706673582212204a743d3fbb2ee900ab5ad197e3ef00a981442a8b554cc8ae54cb16ac0708299064736f6c63430008180033","linkReferences":{}},"methodIdentifiers":{"BATCH_SETTLE_TYPEHASH()":"45974b6e","DOMAIN_SEPARATOR()":"3644e515","SELF_SETTLE_TYPEHASH()":"316c8b18","admin()":"f851a440","batchNonce()":"c75f3cb6","batchSettle(bytes32,(address,int128,uint128)[],(uint128,uint128,uint128),bytes32,bytes32,bytes)":"41be8026","eip712Domain()":"84b0196e","getBatchRoot(uint256)":"e2350d63","getPoolLedger(bytes32)":"9f963c1e","getStateRoot(uint256)":"c3801938","initializePool(bytes32)":"511239f0","oracle()":"7dc0d1d0","selfSettleAll(bytes32,(bytes32,bytes32,uint128,uint128,uint64,uint64,address,bool)[],bytes,bytes32)":"c7809013","sequencer()":"5c1bba38","setOracle(address)":"7adbf973","setSequencer(address)":"2547fa3e","transferAdmin(address)":"75829def","vault()":"fbfa77cf","verifyOrder(uint256,bytes32,bytes32[])":"20c4f161"},"id":33}