{"abi":[{"type":"constructor","inputs":[{"name":"_vaultChainId","type":"uint256","internalType":"uint256"},{"name":"_vault","type":"address","internalType":"address"},{"name":"_rebalancer","type":"address","internalType":"address"},{"name":"_defaultAdapter","type":"address","internalType":"address"},{"name":"_targetBufferBps","type":"uint256","internalType":"uint256"},{"name":"_criticalBufferBps","type":"uint256","internalType":"uint256"},{"name":"_cooldownSeconds","type":"uint256","internalType":"uint256"}],"stateMutability":"nonpayable"},{"type":"function","name":"cooldownSeconds","inputs":[],"outputs":[{"name":"","type":"uint256","internalType":"uint256"}],"stateMutability":"view"},{"type":"function","name":"criticalBufferBps","inputs":[],"outputs":[{"name":"","type":"uint256","internalType":"uint256"}],"stateMutability":"view"},{"type":"function","name":"defaultAdapter","inputs":[],"outputs":[{"name":"","type":"address","internalType":"address"}],"stateMutability":"view"},{"type":"function","name":"lastCallbackTimestamp","inputs":[],"outputs":[{"name":"","type":"uint256","internalType":"uint256"}],"stateMutability":"view"},{"type":"function","name":"react","inputs":[{"name":"chain_id","type":"uint256","internalType":"uint256"},{"name":"_contract","type":"address","internalType":"address"},{"name":"topic_0","type":"uint256","internalType":"uint256"},{"name":"","type":"uint256","internalType":"uint256"},{"name":"","type":"uint256","internalType":"uint256"},{"name":"","type":"uint256","internalType":"uint256"},{"name":"data","type":"bytes","internalType":"bytes"},{"name":"","type":"uint256","internalType":"uint256"},{"name":"","type":"uint256","internalType":"uint256"}],"outputs":[],"stateMutability":"nonpayable"},{"type":"function","name":"rebalancer","inputs":[],"outputs":[{"name":"","type":"address","internalType":"address"}],"stateMutability":"view"},{"type":"function","name":"targetBufferBps","inputs":[],"outputs":[{"name":"","type":"uint256","internalType":"uint256"}],"stateMutability":"view"},{"type":"function","name":"vault","inputs":[],"outputs":[{"name":"","type":"address","internalType":"address"}],"stateMutability":"view"},{"type":"function","name":"vaultChainId","inputs":[],"outputs":[{"name":"","type":"uint256","internalType":"uint256"}],"stateMutability":"view"},{"type":"event","name":"Callback","inputs":[{"name":"chain_id","type":"uint256","indexed":true,"internalType":"uint256"},{"name":"_contract","type":"address","indexed":true,"internalType":"address"},{"name":"gas_limit","type":"uint64","indexed":false,"internalType":"uint64"},{"name":"payload","type":"bytes","indexed":false,"internalType":"bytes"}],"anonymous":false},{"type":"event","name":"GuardianTriggered","inputs":[{"name":"level","type":"uint8","indexed":false,"internalType":"enum ReactiveLiquidityGuardian.WaterLevel"},{"name":"utilizationBps","type":"uint256","indexed":false,"internalType":"uint256"},{"name":"deployAmount","type":"uint256","indexed":false,"internalType":"uint256"}],"anonymous":false}],"bytecode":{"object":"0x610120346101b457601f6107d038819003918201601f19168301916001600160401b039182841185851017610196578160e092869260409687528339810103126101b457825190610052602085016101b8565b9161005e8486016101b8565b61006a606087016101b8565b95608081015160c060a0830151920151928460a0528660c05260e0526101009788525f556001556002557ff416fa44d51ab03051806aa93d25ae6e17a42616f8996f26073211fc8141e988928360805262ffffff803b156101b4575f928360c492885197889586946305a6aced60e41b8652600486015260018060a01b0316602485015260448401527fa65f96fc951c35ead38571571f4a9a0b86a2b6ad1deb82e83495b96bf3c15b4080606485015280608485015260a48401525af180156101aa57610187575b50505161060391826101cd8339608051826102e8015260a05182818161019801526102b6015260c05182818160940152610597015260e051828181610240015261046b01525181818161013501526103a60152f35b81116101965781525f80610132565b634e487b7160e01b5f52604160045260245ffd5b83513d5f823e3d90fd5b5f80fd5b51906001600160a01b03821682036101b45756fe60806040908082526004361015610014575f80fd5b5f3560e01c90816301d22ccd1461022e575080634190e48f146101bb578063567ad85d14610181578063715857b014610164578063734e6cad14610121578063b06d03c614610103578063b8221bc4146100e5578063e89d835e146100c75763fbfa77cf14610081575f80fd5b346100c3575f3660031901126100c357517f00000000000000000000000000000000000000000000000000000000000000006001600160a01b03168152602090f35b5f80fd5b50346100c3575f3660031901126100c3576020906003549051908152f35b50346100c3575f3660031901126100c3576020906002549051908152f35b50346100c3575f3660031901126100c3576020906001549051908152f35b50346100c3575f3660031901126100c357517f00000000000000000000000000000000000000000000000000000000000000006001600160a01b03168152602090f35b50346100c3575f3660031901126100c3576020905f549051908152f35b50346100c3575f3660031901126100c357602090517f00000000000000000000000000000000000000000000000000000000000000008152f35b346100c3576101203660031901126100c3576024356001600160a01b03811681036100c35760c4359067ffffffffffffffff908183116100c357366023840112156100c35782600401359182116100c35736602483850101116100c357602461022c930190604435906004356102b0565b005b346100c3575f3660031901126100c3577f00000000000000000000000000000000000000000000000000000000000000006001600160a01b03168152602090f35b9190820180921161027c57565b634e487b7160e01b5f52601160045260245ffd5b8181029291811591840414171561027c57565b9190820391821161027c57565b929391907f000000000000000000000000000000000000000000000000000000000000000080941490811591610595575b5061058f577f00000000000000000000000000000000000000000000000000000000000000000361058a5761031b6003546002549061026f565b421061058a5782606091810103126100c357813560209260409161034360208301358261026f565b918215610582576127109081830283810483148415171561027c5760015490859004949085106104e657505050506002935f935b4260035560038610156104d2578351632b388a4160e11b602082015260ff871660248201526001600160a01b037f0000000000000000000000000000000000000000000000000000000000000000811660448301526064808301889052825260a08201919081831067ffffffffffffffff8411176104be57828752620f424083528660c08301528151948560e08401525f5b8681106104a957505084926060837f8dd725fa9d6cd150017ab9e60318d40616439424e2fade9c1c58854950917dfc935f6101007f58d90456bbc0a4bc0a5123f1100bd0a848ce719a89d34e194ae4033a7004e4c99e9c9a859e9c9a980101527f00000000000000000000000000000000000000000000000000000000000000001695601f80199101168101030190a381519384526020840152820152a1565b80829185016101008382015191015201610409565b634e487b7160e01b5f52604160045260245ffd5b634e487b7160e01b5f52602160045260245ffd5b5f54969796918286106105305750906104fe91610290565b048082111561052757610510916102a3565b925b831561052057600194610377565b5050505050565b50505f92610512565b9693929161053d91610290565b04908082111561057957610550916102a3565b935b8484811592831561056c575b505050610520575f94610377565b01351090505f848161055e565b50505f93610552565b505050505050565b505050565b50505050565b7f00000000000000000000000000000000000000000000000000000000000000006001600160a01b039081169116141590505f6102e156fea2646970667358221220eaeb414912f4c04da3e18532f49bc9cde06e7fdc210ad647fa51b17fb471427f64736f6c63430008180033","linkReferences":{}},"methodIdentifiers":{"cooldownSeconds()":"b8221bc4","criticalBufferBps()":"b06d03c6","defaultAdapter()":"734e6cad","lastCallbackTimestamp()":"e89d835e","react(uint256,address,uint256,uint256,uint256,uint256,bytes,uint256,uint256)":"4190e48f","rebalancer()":"01d22ccd","targetBufferBps()":"715857b0","vault()":"fbfa77cf","vaultChainId()":"567ad85d"},"id":61}